:100000000C94F6170C9427180C9427180C942718A6
:100010000C9427180C9427180C9427180C94271864
:100020000C9427180C9427180C9427180C94271854
:100030000C9427180C9427180C9427180C94271844
:100040000C9427180C94356D0C9427180C942718D1
:100050000C9427180C9427180C94B19A0C9475BD25
:100060000C9427180C94AE420C9427180C94271863
:100070000C9427180C9427180C9427180C94271804
:100080000C9427180C9427180C9427180C942718F4
:100090000C9427180C9427180C9427180C942718E4
:1000A0000C9427180C9427180C9427180C942718D4
:1000B0000C9427180C9427180C9427180C942718C4
:1000C0000C9427180C9427180C9427180C942718B4
:1000D0000C9427180C9427180C9427180C942718A4
:1000E0000C94271871BB74BB63BB67BB6DBBABBB08
:1000F00078BB7CBB82BB86BB8ABB90BB94BB98BBE6
:10010000ABBB9EBBA2BBA6BB8FBC94BC99BCA3BC23
:10011000ADBC26BDB7BCBFBCC7BCD1BCDBBCE5BC5D
:10012000F4BCFEBC26BD08BD12BD1CBD084AD73BB1
:100130003BCE016E84BCBFFDC12F3D6C74319ABDB6
:1001400056833DDA3D00C77F11BED9E4BB4C3E91DA
:100150006BAAAABE000000803F05A84CCDB2D44EC9
:10016000B93836A9020C50B9918688083CA6AAAACB
:100170002ABE000000803F000C94D0AF0C94C7BC96
:100180000C941CBD0C9490BB0C94EA740C94CE8F10
:100190000C9474BB0C94535E0C94C7B70C942EB59E
:1001A0000C94A2BB0C9408AF0C9429B20C94F4BC30
:1001B0000C9404B20C945AB90C9478BB0C9426BDE0
:1001C0000C948FBC0C9423B20C9467BB0C94D3B7E3
:1001D0000C9482BB0C945C5D0C94505E0C9463BBDD
:1001E0000C940B7D0C9414A10C943A5B0C94F5B117
:1001F0000C94D1B70C9460910C94CBB30C9419BAB5
:100200000C948D8B0C94D5B30C9492B80C941DB2B5
:100210000C9499BC0C9418940C94F1AE0C94FEBC04
:100220000C94E5BC0C94D0B30C94C6B30C946DBB89
:100230000C94B7BC0C9476750C94DCB30C94BF4C46
:100240000C94A6BB0C949F750C94ABBB0C94FAB1A8
:100250000C94D1BC0C9419530C944ABB0C949EBBC7
:100260000C9408BD0C94B08B0C94768D0C945B5957
:100270000C9459590C94417C0C94BFBC0C9412BD45
:100280000C947CBB0C944CBB0C944EC60C9465B285
:100290000C94FB950C94ADBC0C94F0920C94B38B25
:1002A0000C94D6B30C94FFB10C94DBBC0C94D9B372
:1002B0000C9432750C9494BC0C94E0940C94565E9F
:1002C0000C948ABB0C9498BB0C94DAAE0C94EFBDE2
:1002D0000C9471BB0C94A3BC0C9494BB0C9486BB83
:1002E00047322F47332062616420706172616D650F
:1002F000746572730A00536C6565702E2E2E004370
:100300006C69636B20746F20726573756D652E2E3A
:100310002E004E6F206D6F76652E00456E64206650
:10032000696C65206C6973740A00426567696E20A8
:1003300066696C65206C6973740A0044656C657449
:10034000696F6E206661696C65642C2046696C6516
:100350003A200046696C652064656C657465643A92
:10036000006F70656E206661696C65642C2046695B
:100370006C653A20002569730025696D2025697335
:10038000002569682025696D202569730025696449
:10039000202569682025696D202569730025697904
:1003A00020256964202569682025696D20256973E9
:1003B000005072696E742074696D653A2000507245
:1003C0006F7465637465642050696E0A0020573A43
:1003D000004520436F6F6C696E672E2E2E004520FE
:1003E00048656174696E672E2E2E004B494C4C4552
:1003F000442E20004D3131332053006F6B005631B5
:10040000204520434E43204F66662E0054484552F7
:100410004D414C5F50524F54454354494F4E00415B
:1004200055544F5245504F52545F53445F535441BB
:1004300054555300454D455247454E43595F504131
:100440005253455200434153455F4C494748545F1E
:100450004252494748544E45535300544F47474C26
:10046000455F4C494748545300534F4654574152F7
:10047000455F504F574552004255494C445F5045E7
:100480005243454E54004C4556454C494E475F44F7
:10049000415441005A5F50524F4245004155544F1C
:1004A0004C4556454C005052494E545F4A4F42000D
:1004B00050524F4752455353004155544F524550A7
:1004C0004F52545F54454D5000564F4C554D455476
:1004D00052494300454550524F4D00534552494102
:1004E0004C5F584F4E5F584F4646004649524D5755
:1004F0004152455F4E414D453A4D61726C696E20E7
:100500006275676669782D322E302E78202847690B
:10051000746875622920534F555243455F434F44D9
:10052000455F55524C3A68747470733A2F2F67695F
:10053000746875622E636F6D2F4D61726C696E46C3
:1005400069726D776172652F4D61726C696E2050B2
:10055000524F544F434F4C5F56455253494F4E3ABA
:10056000312E30204D414348494E455F5459504546
:100570003A5631204520434E432045585452554465
:1005800045525F434F554E543A3120555549443AF0
:1005900063656465326132662D343161322D3437E2
:1005A00034382D396231322D633535633632663356
:1005B000363766660A002F2F20007A5F6D61783A21
:1005C00020007A5F6D696E3A200079325F6D696E46
:1005D0003A2000795F6D696E3A200078325F6D696C
:1005E0006E3A2000785F6D696E3A20005265706F38
:1005F0007274696E6720656E6473746F70207374B3
:10060000617475730A004D31343520533C696E6452
:1006100065783E206F7574206F662072616E676525
:100620002028302D31290A00205400205200416337
:1006300063656C65726174696F6E3A205000205971
:10064000002058004475616C20456E6473746F70AF
:100650002041646A7573746D656E7420286D6D2910
:100660003A20004F6666004F6E2000205A00205945
:1006700000580020204D61783A2000205A0020596F
:1006800000580020204D696E3A2000536F66742098
:10069000656E6473746F70733A200020643A0020B2
:1006A000693A0020703A00496E76616C6964206591
:1006B000787472756465720A0043290A0061626C7D
:1006C000656420286D696E2074656D702000436F2D
:1006D0006C6420657874727564657320617265203E
:1006E0000023646566696E652044454641554C5457
:1006F0005F4B64200023646566696E65204445464F
:1007000041554C545F4B69200023646566696E65F2
:100710002044454641554C545F4B7020005049449D
:10072000204175746F74756E652066696E697368B3
:100730006564212050757420746865206C61737441
:10074000204B702C204B6920616E64204B64206329
:100750006F6E7374616E74732066726F6D20626564
:100760006C6F7720696E746F20436F6E6669677572
:10077000726174696F6E2E680A0050494420417599
:10078000746F74756E65206661696C656421207490
:10079000696D656F75740A00453120544845524DA6
:1007A000414C2052554E4157415900546865726D75
:1007B000616C2052756E6177617900453120486522
:1007C0006174696E67206661696C65640048656183
:1007D00074696E67206661696C65640050494420E5
:1007E0004175746F74756E65206661696C6564210E
:1007F0002054656D706572617475726520746F6FD9
:1008000020686967680A00204B643A2000204B6921
:100810003A2000204B703A20000A20436C61737329
:10082000696320504944200A002054753A20002072
:100830004B753A2000206D61783A2000206D696E7A
:100840003A200020643A200020626961733A200057
:10085000504944204175746F74756E6520737461DE
:1008600072740A00504944204175746F74756E6546
:10087000206661696C65642120426164206578743A
:100880007275646572206E756D6265720A00486FDC
:100890006D65202573257325732066697273740056
:1008A0002066697273740A005A0059005800486F34
:1008B0006D6520004F666673657473206170706C9F
:1008C000696564004572723A20546F6F20666172E8
:1008D0002100546F6F206661722066726F6D207206
:1008E00065666572656E636520706F696E740A0077
:1008F000454550524F4D2064697361626C65640ACE
:10090000004E6F2063617365206C696768740A002C
:100910004163746976652045787472756465723ACE
:100920002000496E76616C69642065787472756424
:1009300065720A00434F4D4D554E49434154494F4E
:100940004E0044525952554E004552524F52530098
:10095000494E464F004543484F0025301D0C18288E
:1009600029FF24311C0B174527FF232F1B0A1E4488
:1009700043FFFFFFFF030806FFFF202C16FFFFFFCA
:10098000033809FF36222B1AFF212A19FF000162C2
:100990007573793A2070617573656420666F722093
:1009A000696E7075740A00627573793A20706175AA
:1009B00073656420666F7220757365720A006275D4
:1009C00073793A2070726F63657373696E670A009A
:1009D0004B494C4C45442E20004B494C4C20636104
:1009E00075736564206279204B494C4C20627574A4
:1009F000746F6E2F70696E0A004B494C4C45442E43
:100A000020004B494C4C206361757365642062790A
:100A100020746F6F206D75636820696E61637469FF
:100A200076652074696D65202D2063757272656E20
:100A30007420636F6D6D616E643A2000506C656167
:100A40007365207265736574005052494E54455267
:100A50002048414C544544005072696E74657220C0
:100A600068616C7465642E206B696C6C2829206346
:100A7000616C6C6564210A0020466C6F773A200037
:100A80006F66660055095009490942093409444511
:100A90004255473A0020496E76616C69642065785A
:100AA0007472756465722000656E7175657565692F
:100AB0006E672022004D3234004D32332025730002
:100AC000556E6B6E6F776E20636F6D6D616E643AFD
:100AD00020220053442063617264206F6B0A006F10
:100AE00070656E526F6F74206661696C65640A0090
:100AF000766F6C756D652E696E6974206661696CC0
:100B000065640A00534420696E6974206661696CEB
:100B10000A0057726974696E6720746F2066696C89
:100B2000653A20006F70656E206661696C65642CA3
:100B30002046696C653A20006F70656E20666169B9
:100B40006C65642C2046696C653A200046696C65CA
:100B50002073656C65637465640A002053697A6567
:100B60003A200046696C65206F70656E65643A20B6
:100B7000006F70656E206661696C65642C20466943
:100B80006C653A2000667265736800646F696E6711
:100B9000002066696C653A20004E6F772000454E54
:100BA0004420535542524F5554494E450A00222085
:100BB000706F73002220706172656E743A22005368
:100BC0005542524F5554494E452043414C4C207498
:100BD00061726765743A22004B494C4C45442E20A3
:100BE00000747279696E6720746F2063616C6C2089
:100BF0007375622D67636F64652066696C65732029
:100C00007769746820746F6F206D616E79206C65F0
:100C100076656C732E204D4158206C6576656C208E
:100C200069733A004572726F723A004572723A20E7
:100C30007574663820666F6E74206E6F7420696EEE
:100C4000697469616C697A65642E0025753A25308E
:100C5000327500253032753A2530327500257564BD
:100C600020253032753A2530327500202020202092
:100C700020002020202000092000000000000000AB
:100C80000000000000003FFFF00000000000000036
:100C900000000000003800700000000000000000AC
:100CA0000000000030FC30000000000000000000E8
:100CB00000000020FC100000000000000000000008
:100CC000000020781000000000000000000000007C
:100CD00000203010000000000000000000000000B4
:100CE0002C00D03FC0000000000000000000002EDB
:100CF00031D07FE0000000000000000000002F7BEA
:100D0000D07FE0000000000000000000002F7BD03A
:100D10007FE0000000000000000000002E31D03F06
:100D2000C0000000000000000000002C00D03FC008
:100D3000000000000000000000002030107FE000F4
:100D40000000000000000000002078107FE000009C
:100D5000000000000000000020FC107FE000000008
:100D60000000000000000030FC301F800000000088
:100D70000000000000003800700F000000000000BC
:100D800000000000003FFFF006000000000000002F
:100D90000000000000000000000000000000000053
:100DA0000000003FFFF00000000000000000000015
:100DB000000038007000000000000000000000008B
:100DC000003186300000000000000000000000003C
:100DD0002387100000000000000000000000002732
:100DE00087900000000000000000000000002F8736
:100DF000D00000000000000000000000002F03D021
:100E00003FC0000000000000000000002030107F04
:100E1000E0000000000000000000002078107FE0EB
:100E2000000000000000000000002078107FE000BB
:100E30000000000000000000002030103FC0000053
:100E400000000000000000002F03D03FC0000000A1
:100E5000000000000000002F87D07FE000000000AD
:100E60000000000000002787907FE00000000000E5
:100E700000000000002387107FE000000000000059
:100E8000000000003186301F8000000000000000DC
:100E90000000003800700F0000000000000000009B
:100EA00000003FFFF006000000000000000000000E
:100EB000000000000001FFFFFFFFFFFFFFFFFFC179
:100EC00083FFC0000007FFFFFFFFFFFFFFFFFF875B
:100ED000E1FFE000000FFFFFFFFFFFFFFFFFFF0F3D
:100EE000F07FF000000E0000000000000000001F76
:100EF000FC3FF000001C0000000000000000003F6C
:100F0000FE003800001C0000000000000000007F10
:100F1000FF803800001C000000000000000001FFFE
:100F20001FC03800001C3C0000780F80000003FE4A
:100F30000FC03800001C3C0000783F8000000FFC10
:100F400007C03800001C3C0000F8FF8000001FFCB8
:100F50000FC03800001C3E0000F8FF8000007FF842
:100F60000F803800001C1E0000F0F7800001FFF821
:100F70001F803800001C1F0001F007800007FFF0F1
:100F80001F803800001C1F0001E00780001FFFF0D9
:100F90003F803800001C0F0003E00780007FFFE067
:100FA0007F803800001C0F8003E0078003FFFFC034
:100FB0007F803800001C078003C007801FFFFE00F1
:100FC000FF803800001C078007C007803FFFF80043
:100FD000FF803800001C07C0078007807FFFE0010A
:100FE000FF003800001C03C0078007807FFFE0017E
:100FF000FF003800001C03E00F8007807FFFC00067
:10100000FF003800001C01E00F000780780000009E
:10101000FF003800001C01E01F000780780000007E
:10102000FF003800001C01F01E000780780000005F
:10103000FF003800001C00F01E0007807800000050
:10104000FF003800001C00F83E0007807800000018
:10105000FF003800001C00F83C0007807FFFC00044
:10106000FF003800001C00787C0007807FFFE00153
:10107000FF003800001C007C7C0007807FFFE0013F
:10108000FF003800001C003C780007807FFFF00163
:10109000FF003800001C003EF80007803FFFFC0006
:1010A000FF803800001C003EF000078007FFFFC0F3
:1010B0007F803800001C001FF000078000FFFFE069
:1010C0007F803800001C001FF0000780001FFFE039
:1010D0003F803800001C000FE00007800007FFF091
:1010E0003F803800001C000FE00007800001FFF87F
:1010F0001F803800001C000FC000078000007FF830
:101100000F803800001C0007C000078000003FFC73
:101110000FC03800001C0007C000078000000FFC53
:1011200007C03800001C000380000780000007FE95
:1011300007C03800001C000380000300000001FE0F
:101140000FC03800001C000000000000000000FF7D
:101150003F803800001C0000000000000000007FFD
:10116000FF003800000E0000000000000000001F1B
:10117000FC007800000FFFFFFFFFFFFFFFFFFF0FE6
:10118000F03FF8000007FFFFFFFFFFFFFFFFFF87B3
:10119000E0FFF0000003FFFFFFFFFFFFFFFFFFC3C3
:1011A00083FFE000000000000000000000000000DD
:1011B000000000000000000000000000000000002F
:1011C000000000000000000000000000000000001F
:1011D000000000000000000000000000000000000F
:1011E00000000000000FF40307C28067F9FF3E0A09
:1011F0000183E000001FF6031FE6C06FFBFF7F1BAB
:10120000018FF000001807033876E06C0300631BC1
:10121000819C1800001807833006F06C0300619B66
:10122000C1980000001807C36006F86C0300619BBA
:10123000E1B00000001806E36006DC6C0300639B6D
:1012400071B00000001FE67361E6CE6FF3FC7F1BF8
:1012500039B0F0000018063B61F6C76C03007E1B36
:101260001DB0F8000018061F6036C3EC0300671BB2
:101270000FB018000018060F3036C1EC0300639B56
:1012800007981800001806071876C0EC0300619B49
:10129000038C3800001FF6030FE6C06FFBFE60DB17
:1012A0000187F000000FF60107C6C027F9FE60DBDA
:1012B0000083E0001FFFFFFFFFFFFF600000000052
:1012C00001FF400000000000FF8000000000007FE0
:1012D00083CF00000C303F87FF80000C301F8679E1
:1012E00080000C000F8C30C7838C30E78C30CFC768
:1012F000CC31F38C30DCECEC33B98C30D86C6C3303
:10130000198C30D06C0C33198C30D86C0C33198C90
:1013100030DC6C0E3B198C30CF7C079F198C30C7AA
:101320007C038F19400000000000026000000000F4
:1013300000061FFFFFFFFFFFF82020506C616E6E5C
:10134000657242756666657242797465733A20000B
:101350002046726565204D656D6F72793A200043B5
:101360006F6D70696C65643A204D6179203134206D
:10137000323031380A00207C20417574686F723A2F
:1013800020286E6F6E652C2064656661756C742014
:10139000636F6E666967290A00323031382D30314B
:1013A0002D323000204C6173742055706461746577
:1013B000643A20006275676669782D322E302E7887
:1013C0000A004D61726C696E0020536F667477611C
:1013D00072652052657365740A00205761746368F2
:1013E000646F672052657365740A002042726F77DC
:1013F0006E206F75742052657365740A00204578FD
:101400007465726E616C2052657365740A00506F6A
:1014100077657255700A0073746172740A006175A1
:10142000746F25692E67006572726F72207772691A
:1014300074696E6720746F2066696C650A00446F7A
:101440006E6520736176696E672066696C652E0A29
:10145000004D323900456E6473746F7073202563DC
:1014600020256320256320256300205A3A00205957
:101470003A0020583A00656E6473746F7073206888
:1014800069743A200000060C00FE07022903BF0120
:101490007FFE08FE08FE05080806000040F0C88828
:1014A00088987810050808060000C0F888888888A1
:1014B00088F80505050600012030F83020050808E9
:1014C0000600002070F820202020E0050909060011
:1014D000FF2070A8A8B8888870200509090600FFB9
:1014E000E080C0B0A8283028280509090600FFF8C8
:1014F000A88888888888A8F8050A0A0600FE20506F
:1015000050505088A8A8887003030306000340A029
:1015100040FFFFFFFFFFFFFFFFFFFFFFFFFFFFFF9A
:10152000FFFFFFFFFFFFFF0000000605FF010707A9
:10153000060200808080808000800303030601058E
:10154000A0A0A005060606000050F85050F850056F
:1015500009090600FF2070A8A07028A870200507C0
:1015600007060000C8C81020409898050707060025
:101570000040A0A040A890680103030602058080F7
:10158000800309090601FF20404080808040402000
:101590000309090601FF80404020202040408005CB
:1015A000070706000020A8702070A8200505050682
:1015B00000012020F820200203030601FFC0408024
:1015C000050101060003F8020202060100C0C00581
:1015D0000707060000081010204040800507070696
:1015E0000000708898A8C8887003070706010040AB
:1015F000C040404040E00507070600007088081022
:101600002040F8050707060000F808103008887029
:1016100005070706000010305090F8101005070766
:10162000060000F880F0080888700507070600002B
:10163000304080F0888870050707060000F8081021
:101640001020202005070706000070888870888811
:10165000700507070600007088887808106002058A
:1016600005060100C0C000C0C00206060601FFC09A
:10167000C000C040800305050601012040804020D5
:10168000050303060002F800F803050506010180C2
:1016900040204080050707060000708810202000C9
:1016A000200507070600007088B8A8B880700507F5
:1016B00007060000708888F88888880507070600F4
:1016C00000F04848704848F0050707060000708899
:1016D0008080808870050707060000F04848484869
:1016E00048F0050707060000F88080F08080F805C4
:1016F0000707060000F88080F08080800507070655
:1017000000007088808098887005070706000088B0
:101710008888F8888888030707060100E040404071
:101720004040E005070706000038101010109060D8
:101730000507070600008890A0C0A090880507074D
:10174000060000808080808080F805070706000082
:1017500088D8A8888888880507070600008888C870
:10176000A8988888050707060000708888888888F8
:1017700070050707060000F08888F0808080050764
:101780000706000070888888A8906805070706008B
:1017900000F08888F0A09088050707060000708890
:1017A0008070088870050707060000F820202020B8
:1017B000202005070706000088888888888870052B
:1017C000070706000088888888505020050707060C
:1017D000000088888888A8A85005070706000088A8
:1017E0008850205088880507070600008888502008
:1017F000202020050707060000F80810204080F888
:101800000309090601FFE080808080808080E00578
:101810000707060000804040201010080309090651
:1018200001FFE020202020202020E0050303060007
:10183000052050880501010600FEF8030303060198
:1018400005804020050505060000700878887805A9
:1018500007070600008080F0888888F005050506E7
:10186000000070808088700507070600000808786F
:10187000888888780505050600007088F080700566
:101880000707060000304840E040404005070706D3
:1018900000FE7088888878087005070706000080B9
:1018A00080F0888888880307070601004000C04050
:1018B0004040E00409090601FE100030101010102D
:1018C000906005070706000080808890E0908803FC
:1018D0000707060100C04040404040E005050506FE
:1018E0000000D0A8A8A8A8050505060000B0C88873
:1018F0008888050505060000708888887005070738
:101900000600FEF0888888F080800507070600FE44
:1019100078888888780808050505060000B0C88022
:10192000808005050506000078807008F00507072F
:101930000600002020F820202018050505060000DC
:1019400088888898680505050600008888885020E2
:101950000505050600008888A8A8500505050600AD
:101960000088502050880507070600FE88888850A8
:10197000204080050505060000F8102040F8030906
:10198000090601FF204040408040404020010909F5
:101990000602FF80808080808080808003090906A5
:1019A00001FF804040402040404080050303060086
:1019B0000248A890FF20746F6F206C6F6E672065DF
:1019C0007874727573696F6E2070726576656E7467
:1019D00065640A0020636F6C6420657874727573A7
:1019E000696F6E2070726576656E7465640A006F4B
:1019F0006B00526573656E643A20004B494C4C4550
:101A0000442E200053544F505045442E2000507215
:101A1000696E7465722073746F707065642064758C
:101A20006520746F206572726F72732E204669781C
:101A300020746865206572726F7220616E64207513
:101A40007365204D39393920746F20726573746164
:101A500072742E202854656D70657261747572659C
:101A60002069732072657365742E20536574206934
:101A70007420616674657220726573746172746932
:101A80006E67290A004E6F20436865636B73756D3E
:101A90002077697468206C696E65206E756D62656B
:101AA000722C204C617374204C696E653A20004E94
:101AB0006F20436865636B73756D20776974682068
:101AC0006C696E65206E756D6265722C204C617359
:101AD00074204C696E653A2000636865636B7375AA
:101AE0006D206D69736D617463682C204C61737433
:101AF000204C696E653A20004C696E65204E756D0C
:101B0000626572206973206E6F74204C617374205B
:101B10004C696E65204E756D6265722B312C204CC0
:101B2000617374204C696E653A20004D313130008C
:101B30004D33310053442072656164206572726FC9
:101B4000720A00446F6E65207072696E74696E6708
:101B50002066696C650A00286E6F2066696C6529CD
:101B60000043757272656E742066696C653A200078
:101B70005344207072696E74696E6720627974656F
:101B800020004E6F74205344207072696E74696E29
:101B9000670A005072656865617420414253206392
:101BA0006F6E66005072656865617420504C41200C
:101BB000636F6E66005049442D44005049442D44E3
:101BC000005049442D49005049442D490050494492
:101BD0002D50005049442D50002008204661637468
:101BE0000020082046616374002008204D617800C1
:101BF0002008204D6178002008204D6178002008E1
:101C0000204D696E002008204D696E002008204D8F
:101C1000696E004F6666004F6E20004175746F74E8
:101C2000656D700046616E207370656564203200DA
:101C300046616E20737065656420320046616E20D7
:101C4000737065656420320046616E20737065654F
:101C50006420310046616E20737065656420310038
:101C600046616E2073706565642031004E6F7A7A2C
:101C70006C65004E6F7A7A6C6500436F6E74726F9C
:101C80006C004E6F7A7A6C65004E6F7A7A6C6500E4
:101C90004E6F7A7A6C650046616E2073706565647C
:101CA0000046616E2073706565640046616E207346
:101CB000706565640054656D7065726174757265F8
:101CC000005654726176206D696E005654726176CA
:101CD000206D696E005654726176206D696E0056F3
:101CE0006D696E00566D696E00566D696E00566DB9
:101CF0006178204500566D6178204500566D617809
:101D0000204500566D6178205A00566D6178205A42
:101D100000566D6178205A00566D61782059005642
:101D20006D6178205900566D6178205900566D61BB
:101D300078205800566D6178205800566D617820E3
:101D400058004D6F74696F6E00416D6178204500D9
:101D5000416D6178204500416D6178205A00416DE8
:101D60006178205A00416D6178205900416D617899
:101D7000205900416D6178205800416D61782058EC
:101D800000412D74726176656C00412D747261762C
:101D9000656C00412D7265747261637400412D722F
:101DA00065747261637400416363656C00416363D1
:101DB000656C004D6F74696F6E0020286D6D290091
:101DC00020440020490020204D3330312050005065
:101DD00049442073657474696E67733A0A0020463B
:101DE0000020420020480020204D3134352053008F
:101DF0004D6174657269616C2068656174757020ED
:101E0000706172616D65746572733A0A00205900E1
:101E100020580020204D36363600456E6473746FAE
:101E2000702061646A7573746D656E743A0A00207F
:101E30005A0020590020204D323036205800486F7B
:101E40006D65206F66667365743A0A002045002050
:101E50005A00205900205800204200205400202021
:101E60004D323035205300416476616E6365643ACB
:101E700020533C6D696E5F66656564726174653E92
:101E800020543C6D696E5F74726176656C5F666547
:101E90006564726174653E20423C6D696E5F736576
:101EA000676D656E745F74696D655F75733E20580C
:101EB0003C6D61785F78795F6A65726B3E205A3C51
:101EC0006D61785F7A5F6A65726B3E20453C6D613B
:101ED000785F655F6A65726B3E0A0020540020528D
:101EE0000020204D323034205000416363656C6522
:101EF000726174696F6E2028756E6974732F733206
:101F0000293A20503C7072696E745F616363656C3E
:101F10003E20523C726574726163745F61636365F5
:101F20006C3E20543C74726176656C5F61636365DE
:101F30006C3E0A00204500205A0020590020204D08
:101F40003230312058004D6178696D756D204163E4
:101F500063656C65726174696F6E2028756E697453
:101F6000732F7332293A0A00204500205A00205965
:101F70000020204D3230332058004D6178696D7556
:101F80006D206665656472617465732028756E697D
:101F900074732F73293A0A00204500205A002059F3
:101FA0000020204D39322058005374657073207022
:101FB000657220756E69743A0A0020204D32303007
:101FC0002044300A0020204D32303020440020448C
:101FD000697361626C65640A0046696C616D656E67
:101FE000742073657474696E67733A0020204D31F4
:101FF00034392043203B20556E69747320696E206C
:1020000043656C736975730A0020204732312020C4
:1020100020203B20556E69747320696E206D6D0021
:10202000205A3A0020593A0020436F756E742058A8
:102030003A0020453A00205A3A0020593A00583ACE
:1020400000000048430000484300004843000000EF
:102050000000000000000000000000000000000080
:1020600000000000000000484200004842000080DC
:1020700040000000005761726E696E673A20486F39
:102080006D696E672042756D702044697669736F63
:1020900072203C20310A000404060000E0400000E9
:1020A000E04000004040000048430000484300007A
:1020B0004843FFFFFF537465707261746520746F4D
:1020C0006F20686967683A200024F4D43050C38ECA
:1020D00020C2A24017828B7011127A910D816CD9A7
:1020E0000AA861E108C7586607615143061E4B5DA7
:1020F00005C145A7041A411104093D9803713931FE
:10210000034036DB0265339102D4305402802E1D29
:1021100002632CEE01752AC501B028A001102781A9
:10212000018F2564012B244B01E0223401AC211FD7
:10213000018D200D01801FFC00841EED00971DDF26
:1021400000B81CD200E61BC600201BBC00641AB2FB
:1021500000B219A8000A19A0006A189900D11791B5
:102160000040178B00B516840031167E00B3157938
:10217000003A157300C7146F0058146A00EE136616
:10218000008813630025135E00C7125B006C1257B2
:102190000015125400C111510070114F0021114B54
:1021A00000D61049008D104700461044000210422E
:1021B00000C00F4000800F3E00420F3C00060F3B66
:1021C00000CB0E3800930E37005C0E3500270E341E
:1021D00000F30D3200C10D3100900D3000600D2E66
:1021E00000320D2D00050D2C00D90C2B00AE0C2952
:1021F00000850C29005C0C2700350C27000E0C26EE
:1022000000E80B2400C40B2400A00B23007D0B234B
:10221000005A0B2100390B2100180B2000F80A1F6F
:1022200000D90A1E00BB0A1E009D0A1D00800A1D5F
:1022300000630A1C00470A1B002C0A1B00110A1A23
:1022400000F7091A00DD091900C4091900AB0919C2
:1022500000920917007B091800630917004C091642
:102260000036091600200916000A091500F50815A0
:1022700000E0081400CC081400B8081400A40814E6
:1022800000900813007D0812006B08130058081214
:10229000004608120034081100230811001208112A
:1022A0000001081100F0071000E0071000D007102F
:1022B00000C0071000B0070F00A107100091070E23
:1022C0000083070F0074070F0065070E0057070E05
:1022D0000049070E003B070D002E070E0020070DDA
:1022E0000013070D0006070D00F9060C00ED060DA2
:1022F00000E0060C00D4060C00C8060C00BC060C5E
:1023000000B0060C00A4060B0099060C008D060B0D
:102310000082060B0077060B006C060B0061060AB4
:102320000057060B004C060A0042060A0038060A4F
:10233000002E060A0024060A001A060A00100609E2
:102340000007060A00FD050900F4050900EB050970
:1023500000E2050900D9050900D0050900C70509F3
:1023600000BE050900B5050800AD050800A5050972
:10237000009C050800940508008C050800840508E9
:10238000007C050800740508006C05070065050859
:10239000005D050700560508004E050700470507C4
:1023A000004005080038050700310507002A050729
:1023B00000230507001C050600160507000F05078A
:1023C000000805060002050700FB040600F50407E7
:1023D00000EE040600E8040600E2040700DB040641
:1023E00000D5040600CF040600C9040600C3040695
:1023F00000BD040600B7040600B1040500AC0406E5
:1024000000A6040600A00405009B04060095040530
:1024100000900406008A0405008504050080040677
:10242000007A04050075040500700405006B0405BE
:102430000066040500610405005C040500570405FE
:1024400000520405004D040500480405004304053E
:10245000003E0404003A040500350405003004047D
:10246000002C04050027040400230405001E0404B6
:10247000001A04040016040500110404000D0404ED
:1024800000090405000404040000040400FC030423
:1024900000F8030400F4030400F0030400EC030458
:1024A00000E8030400E4030400E0030400DC030488
:1024B00000D8030400D4030400D0030400CC0304B8
:1024C00000C8030300C503030024F404D9201BC47F
:1024D0000C5C0E9804C4095F0265077101F405F9EC
:1024E00000FB04B30048048700C10369005803558A
:1024F0000003034500BE023A008402310053022A61
:10250000002902250004022000E4011C00C8011972
:1025100000AF01170098011400840113007101102D
:10252000006101100051010E0043010D0036010B46
:10253000002B010B0020010B00150109000C010903
:102540000003010800FB000800F3000800EB00078F
:1025500000E4000600DE000600D8000600D20006F7
:1025600000CC000500C7000500C2000500BD000446
:1025700000B9000400B5000400B1000400AD00047F
:1025800000A9000400A5000300A20003009F0004AE
:10259000009B0003009800030095000200930003D5
:1025A00000900003008D0002008B000300880002F1
:1025B000008600020084000300810002007F000208
:1025C000007D0002007B000200790002007700011C
:1025D0000076000200740002007200010071000227
:1025E000006F0002006D0001006C0002006A000133
:1025F000006900020067000100660001006500013B
:10260000006400020062000100610001006000013E
:10261000005F0002005D0001005C0001005B000142
:10262000005A000100590001005800010057000144
:102630000056000100550001005400010053000045
:102640000053000100520001005100010050000140
:10265000004F0001004E0000004E0001004D00013F
:10266000004C0001004B0000004B0001004A00013B
:102670000049000100480000004800010047000137
:102680000046000000460001004500000045000132
:10269000004400010043000000430001004200002C
:1026A0000042000100410000004100010040000123
:1026B000003F0000003F0001003E0000003E00011E
:1026C000003D0000003D0001003C0000003C000017
:1026D000003C0001003B0000003B0001003A00000C
:1026E000003A000100390000003900010038000004
:1026F00000380000003800010037000000370001FA
:1027000000360000003600000036000100350000F1
:1027100000350000003500010034000000340000E6
:1027200000340001003300000033000000330001DA
:1027300000320000003200000032000100310000D1
:1027400000310000003100010030000000300000C6
:1027500000300001002F0000002F0000002F0000BB
:10276000002F0001002E0000002E0000002E0001AE
:10277000002D0000002D0000002D0000002D0001A4
:10278000002C0000002C0000002C0000002C000198
:10279000002B0000002B0000002B0000002B00018C
:1027A000002A0000002A0000002A0000002A000180
:1027B0000029000000290000002900000029000075
:1027C0000029000100280000002800000028000067
:1027D000002800000028000100270000002700005A
:1027E000002700000027000000270001002600004D
:1027F0000026000000260000002600000026000140
:102800000025000000250000002500000025000034
:102810000025000000250001002400000024000025
:102820000024000000240000002400010023000018
:10283000002300000023000000230000002300000C
:1028400000230000002300010022000000220000FD
:1028500000220000002200000022000000220001EF
:1028600000210000002100000021000000210000E4
:1028700000210000002100000021000100200000D4
:1028800000200000002000000020000000200000C8
:10289000002000000020000000200001001F0000B8
:1028A000001F0000001F0000001F0000001F0000AC
:1028B000001F0000001F0001001E0000001E00009D
:1028C000001E0000001E000000436172642072655B
:1028D0006D6F766564004361726420696E73657222
:1028E0007465640048617264636F64656420446564
:1028F0006661756C742053657474696E6773204CDF
:102900006F616465640A009001000090010000900E
:10291000010000401F00000000F0420000F04200F3
:1029200000F0410000C8410000C8420000C8420059
:1029300000C8430000C8427C3C3E5E2B3D3F2F5BFD
:102940005D3B2C2A225C005631204520434E43201B
:1029500052656164792E005072696E74696E672EDB
:102960002E2E005072696E7420706175736564005C
:102970005072696E742061626F7274656400507287
:10298000696E742066726F6D2053440053746F70CB
:10299000207072696E7400526573756D6520707277
:1029A000696E74004E6F205344206361726400505E
:1029B00061757365207072696E7400436F6E747216
:1029C0006F6C00507265706172650054756E6500C1
:1029D000496E666F2073637265656E00466C6F7733
:1029E00000466C6F770046616E20737065656420E9
:1029F000320046616E207370656564203200466166
:102A00006E20737065656420320046616E207370BD
:102A100065656420310046616E20737065656420D1
:102A2000310046616E2073706565642031004E6F21
:102A30007A7A6C65004E6F7A7A6C650053706565C2
:102A400064005370656564005370656564004D6192
:102A5000696E004D343238005072656865617420CB
:102A6000504C4100436F6F6C646F776E005072651D
:102A700068656174204142530044697361626C650A
:102A8000207374657070657273004D38340053653F
:102A90007420686F6D65206F66667365747300419E
:102AA00075746F20686F6D6500473238004D6F7622
:102AB000652061786973004D61696E0056652D6A05
:102AC00065726B0056652D6A65726B0056652D6ADE
:102AD00065726B00567A2D6A65726B00567A2D6AA4
:102AE00065726B0056792D6A65726B0056792D6A96
:102AF00065726B0056792D6A65726B0056782D6A87
:102B000065726B0056782D6A65726B0056782D6A77
:102B100065726B004D6F74696F6E004573746570FC
:102B2000732F6D6D004573746570732F6D6D005A52
:102B300073746570732F6D6D005A73746570732FA5
:102B40006D6D005973746570732F6D6D00597374DA
:102B50006570732F6D6D005873746570732F6D6D94
:102B6000005873746570732F6D6D004D6F74696FCD
:102B70006E0053746570732F6D6D004A65726B0043
:102B8000416363656C65726174696F6E0056656C54
:102B90006F6369747900436F6E74726F6C0046697D
:102BA0006C2E204469612E0046696C2E20446961B8
:102BB0002E004F6666004F6E20004520696E206D26
:102BC0006D3300436F6E74726F6C0043616E6E6F95
:102BD0007420656E746572207375626469723A2040
:102BE00000022E2E004D61696E001000AF00F03F14
:102BF000AF004D6963726F737465707320756E6199
:102C00007661696C61626C650A0045323A20004564
:102C1000313A20005A3A2000593A2000583A200010
:102C20004D53312C4D53322050696E730A0062654A
:102C3000640A002C2073797374656D2073746F704F
:102C400070656421204865617465725F49443A206B
:102C50000045312048656174696E67206661696C62
:102C600065640048656174696E67206661696C65BA
:102C700064004B494C4C45442E2000202D20496EC9
:102C800076616C6964206578747275646572206E13
:102C9000756D62657220210A004531204572723AD5
:102CA000204D415854454D50004D415854454D50CC
:102CB00020747269676765726564004531204572EA
:102CC000723A204D494E54454D50004D494E5445A1
:102CD0004D502074726967676572656400202F002B
:102CE00020403A0043616E6E6F74206F70656E20F5
:102CF00073756264697220006563686F3A004531DC
:102D000020544845524D414C2052554E415741594F
:102D100000546865726D616C2052756E61776179DF
:102D20000020746F6F206C6F6E6720657874727509
:102D300073696F6E2070726576656E7465640A00E3
:102D400020636F6C6420657874727573696F6E2090
:102D500070726576656E7465640A004D6F766520E5
:102D600058004D6F76652059004D6F7665205A00EA
:102D70004578747275646572004D6F766520302EEB
:102D8000316D6D004D6F766520316D6D004D6F7644
:102D9000652031306D6D004D6F7665206178697307
:102DA000004578747275646572004D6F7665205ABF
:102DB000004D6F76652059004D6F766520580045AF
:102DC00078747275646572004D6F7665205A004D97
:102DD0006F76652059004D6F7665205800507265FA
:102DE0007061726500526573746F72652066616907
:102DF0006C736166650046696C616D656E74004D4B
:102E00006F74696F6E0054656D7065726174757270
:102E100065004D61696E004572723A2075746638BE
:102E200020666F6E74206E6F7420696E69746961BC
:102E30006C697A65642E004572723A207574663842
:102E400020666F6E74206E6F7420696E697469619C
:102E50006C697A65642E0000002100240027002A96
:102E6000002D003000330001010000040107010AB9
:102E70000100002200250028002B002E0031003424
:102E80000002010000050108010B010000200023E1
:102E900000260029002C002F003200000100000352
:102EA00001060109010505050507050808080802CE
:102EB0000202020A0A0808040404040101010101D3
:102EC0000101010303030303030303040707070CC2
:102ED0000C0C0C0C0C0C0C02020202060606060678
:102EE0000606060B0B0B0B0B0B0B0B07070A0A0A4C
:102EF0000A0A0A0505050404040808010210202036
:102F0000080810204010204080020102010804023D
:102F100001010204081020408080402010080402B3
:102F2000018004020180402010080402010804020C
:102F30000101020408102040800102040810204012
:102F400080100804088010204004408010204004B5
:102F50008000000A0B02090C0D0E08070304010093
:102F60000000000000000000000000000000000061
:102F7000000000000000000000000000001211101E
:102F80000000000000000000000000000000000041
:102F90000000000000000000000000000000000031
:102FA000000000000000004361703A004E414E49AD
:102FB0004E495459494E46CDCCCC3D0AD7233C17F7
:102FC000B7D13877CC2B329595E6241FB14F0A0044
:102FD0000020410000C84200401C4620BCBE4CCA34
:102FE0001B0E5AAEC59D74004EC6EFBD11241FBE08
:102FF000CFEFD1E2DEBFCDBF00E00CBF12E0A0E01A
:10300000B2E0E6E0FCEA01E00BBF02C007900D92DF
:10301000A63FB107D9F723E1A6EFB2E001C01D92A8
:10302000AA30B207E1F717E1C5EFD7E100E006C02B
:1030300021970109802FFE010E94ADC9C43FD1072D
:1030400080E00807A9F70E949EBF0C94F1D50C946C
:1030500000002F923F924F925F926F927F928F92D9
:103060009F92AF92BF92CF92DF92EF92FF920F9317
:103070001F93CF93DF93CDB7DEB7C859D1090FB6F1
:10308000F894DEBF0FBECDBF0091840C20E6029FF6
:10309000800111240C5F144F8091760880FF07C0D7
:1030A00088EF9CE20E94443CC8010E9489420E9431
:1030B00069BD609320037093210380932203909352
:1030C000230310922B0310922A038FE380932C0387
:1030D00010921E0310921D03109210031092110300
:1030E0001092120310921303C8018C01DC012C9181
:1030F00001962032D1F32E34D1F411968C9190EDBB
:10310000980F9A3020F08D3211F08B3281F40E5FDF
:103110001F4FF8010F5F1F4F208120532A30C8F343
:10312000CF018C010196F80120812032D1F3109358
:103130006D0300936C037801FFEFEF1AFF0AD801CB
:103140007C906AE270E0C7010E9407CD009731F0E1
:10315000FC01319780818032E1F31182BDE47B165E
:1031600031F0E4E57E1619F0F7E47F12F9C0F701BB
:1031700080812FEFE21AF20A8032C9F380538A303D
:1031800008F0EEC070922C0320911D0330911E03B5
:103190004AE03196429FC001439F900D1124DF0108
:1031A00011972C91022E000C330B20533109280F5C
:1031B000391F808180538A3060F330931E0320933F
:1031C0001D03DF0131968C918032D9F34DE47416E2
:1031D00089F040912A0350912B03C0901003D090A6
:1031E0001103E0901203F0901303812C912C5401F1
:1031F000839448C02E31310591F03CF427313105DC
:1032000071F02C31310529F70AC0253731050CF34F
:103210002737310524F0203A53E03507D1F6B09333
:103220002B03A0932A039CC06132F1F161546A31EF
:1032300008F079C0CF01FC01708101967032D9F39A
:1032400080ED870F8A3008F04DC0CF01A62FB0E087
:103250001401250104C0220C331C441C551C6A9522
:10326000D2F7C228D328E428F528009709F459C0DA
:10327000801BAA50BD4F8C93808181548A3108F005
:103280005CC0DF01FD0131966C916111CDCF50938F
:103290002B0340932A03C0921003D0921103E092B3
:1032A0001203F09213035CC08DE47812BFCF20327A
:1032B000310509F0BBCFC0921003D0921103E09208
:1032C0001203F0921303F0932B03E0932A0363E2BB
:1032D00070E0CF010E9407CD009709F441C0DC01E6
:1032E0001C923EC07E3211F481810DC07D3211F0FE
:1032F0007B3269F4818190ED980F9A3008F4A5CF64
:103300008E3229F4828180538A3008F49ECF411591
:10331000510511F00C94D632AF01415051090C9473
:10332000D63280E0A6CF4115510509F0A5CFAD01F9
:10333000A3CF90ED980F9A3030F4BF0181918111A5
:10334000F8CFCB0107C093ED980F9230B0F38B32DA
:10335000A1F3F7CFFC01019660816032D9F391CFE0
:1033600011E010931F0380912C038D3411F40C9401
:10337000BD21843511F40C94A432873411F00C94DF
:10338000CF3280911D0390911E038430910509F482
:10339000D3C54CF497FDEDC78230910514F50E941A
:1033A0003F580C94D1328A35910509F44EC724F464
:1033B0004C9709F4F0C5DDC78B35910509F449C771
:1033C0008C35910509F0D5C7F3E52F2EF2E03F2E9D
:1033D000AAECCA2EADE0DA2EE12CF12C00E010E0D0
:1033E00075C720913302222311F40C94D13211E0DD
:1033F000029709F010E00E94413782E50E943437BD
:10340000882309F45CC10E94BA366B017C014090AC
:10341000F30A5090F40A6090F50A7090F60A209131
:10342000F70A3091F80A4091F90A5091FA0A239666
:103430002CAF3DAF4EAF5FAF23978091D90D9091E8
:10344000DA0DA091DB0DB091DC0D27968CAF9DAF0E
:10345000AEAFBFAF27972091DD0D3091DE0D4091CB
:10346000DF0D5091E00D2B962CAF3DAF4EAF5FAF0F
:103470002B9720E030E0A901C701B6010E94D7D107
:10348000882309F44FC5A301920127966CAD7DAD49
:103490008EAD9FAD27970E94D7D1811111C0239681
:1034A0002CAD3DAD4EAD5FAD23972B966CAD7DAD94
:1034B0008EAD9FAD2B970E94D7D1882309F432C5DA
:1034C00020E030E0A901C701B6010E94D7D1881FD2
:1034D0008827881F18130BC080E090E0A0E8BFE3A6
:1034E0006B968CAF9DAFAEAFBFAF6B970AC020E0BD
:1034F00030E040E85FEB6B962CAF3DAF4EAF5FAF77
:103500006B97A301920127966CAD7DAD8EAD9FADFB
:1035100027970E94BDC963966CAF7DAF8EAF9FAFFA
:10352000639723962CAD3DAD4EAD5FAD23972B96A3
:103530006CAD7DAD8EAD9FAD2B970E94BDC96796DA
:103540006CAF7DAF8EAF9FAF679763962CAD3DADEF
:103550004EAD5FAD6397CA01B9010E943DD24B01E8
:103560005C0167962CAD3DAD4EAD5FAD6797CA016E
:10357000B9010E943DD29B01AC01C501B4010E947A
:10358000BEC90E946CCC2F966CAF7DAF8EAF9FAF43
:103590002F9720E030E040E05FE30E943DD24B01F6
:1035A0005C01A7019601C701B6010E943DD26B01E3
:1035B0007C01A5019401C501B4010E943DD29B018B
:1035C000AC01C701B6010E94BDC90E946CCC9B0131
:1035D000AC016B966CAD7DAD8EAD9FAD6B970E94CF
:1035E0003DD24B015C0127962CAD3DAD4EAD5FAD9C
:1035F0002797C301B2010E94BEC920E030E040E03D
:103600005FE30E943DD26B017C0167966CAD7DAD9E
:103610008EAD9FAD679790582F962CAD3DAD4EADBA
:103620005FAD2F970E94B8CA9B01AC01C501B401E0
:103630000E943DD29B01AC01C701B6010E94BEC9E8
:10364000A30192010E94BDC96B017C012B962CAD98
:103650003DAD4EAD5FAD2B9723966CAD7DAD8EAD80
:103660009FAD23970E94BEC920E030E040E05FE3B9
:103670000E943DD22B013C012F962CAD3DAD4EADAD
:103680005FAD2F9763966CAD7DAD8EAD9FAD6397AB
:103690000E94B8CA9B01AC01C501B4010E943DD291
:1036A0009B01AC01C301B2010E94BEC923962CAD9F
:1036B0003DAD4EAD5FAD23970E94BDC914C089E4F6
:1036C0000E943437882329F00E94BA366B017C01AE
:1036D00003C0C12CD12C76018AE40E9434378823A0
:1036E000F9F00E94BA362B966CAF7DAF8EAF9FAFCC
:1036F0002B9720E030E0A901C701B6010E94D7D185
:1037000081111EC020E030E0A9012B966CAD7DAD8B
:103710008EAD9FAD2B970E94D7D1811111C002C4ED
:1037200020E030E0A901C701B6010E94D7D188236B
:1037300009F4F8C32B961CAE1DAE1EAE1FAE2B9720
:10374000D701C601B05823968CAF9DAFAEAFBFAFC7
:1037500023972B962CAD3DAD4EAD5FAD2B975058BA
:1037600027962CAF3DAF4EAF5FAF27979C01AD01C1
:10377000BC01CD010E943DD24B015C0127962CADCE
:103780003DAD4EAD5FAD2797CA01B9010E943DD254
:103790009B01AC01C501B4010E94BEC90E946CCC62
:1037A000A7966CAF7DAF8EAF9FAFA7978091F30ABE
:1037B0009091F40AA091F50AB091F60A2F968CAF79
:1037C0009DAFAEAFBFAF2F97A7019601BC01CD0152
:1037D0000E94BEC96B966CAF7DAF8EAF9FAF6B97EB
:1037E0002091F70A3091F80A4091F90A5091FA0AAB
:1037F00063962CAF3DAF4EAF5FAF63972B962CAD6A
:103800003DAD4EAD5FAD2B9763966CAD7DAD8EAD8E
:103810009FAD63970E94BEC9AB966CAF7DAF8EAF74
:103820009FAFAB978091D90D9091DA0DA091DB0DF0
:10383000B091DC0D67968CAF9DAFAEAFBFAF679711
:103840006B962CAD3DAD4EAD5FAD6B97BC01CD0120
:103850000E94BDC96B017C012091DD0D3091DE0D10
:103860004091DF0D5091E00D6F962CAF3DAF4EAF04
:103870005FAF6F97AB962CAD3DAD4EAD5FADAB97E7
:103880006F966CAD7DAD8EAD9FAD6F970E94BDC93B
:103890004B015C018091FB0A9091FC0AA091FD0A0A
:1038A000B091FE0AA3968CAF9DAFAEAFBFAFA3970A
:1038B0009C01AD016091E10D7091E20D8091E30DED
:1038C0009091E40D0E94BDC92B013C012091E50DB2
:1038D0003091E60D4091E70D5091E80DE3962CAF45
:1038E0003DAF4EAF5FAFE3978091FF0A9091000B21
:1038F000A091010BB091020BAF968CAF9DAFAEAF14
:10390000BFAFAF97A701960123966CAD7DAD8EAD8D
:103910009FAD23970E943DD2E7966CAF7DAF8EAFEF
:103920009FAFE797A501940127966CAD7DAD8EAD55
:103930009FAD27970E943DD29B01AC01E7966CADED
:103940007DAD8EAD9FADE7970E94BEC9E7966CAF87
:103950007DAF8EAF9FAFE797A501940123966CAD25
:103960007DAD8EAD9FAD23970E943DD24B015C0192
:10397000A701960127966CAD7DAD8EAD9FAD2797C3
:103980000E943DD29B01AC01C501B4010E94BDC99A
:10399000E7962CAD3DAD4EAD5FADE7970E943DCAB9
:1039A0006B017C0120E030E0A9010E94D7D187FFA4
:1039B0000AC02BED3FE049EC50E4C701B6010E947C
:1039C000BEC96B017C01112351F02BED3FE049ECA6
:1039D00050E4C701B6010E94BDC96B017C0120E023
:1039E00030E0A901C701B6010E94D7D1811128C0DA
:1039F00067962CAD3DAD4EAD5FAD67972F966CAD24
:103A00007DAD8EAD9FAD2F970E94D7D1811118C08B
:103A10006F962CAD3DAD4EAD5FAD6F9763966CADBF
:103A20007DAD8EAD9FAD63970E94D7D1811108C047
:103A30000BEDC02E0FE0D02E09ECE02E00E4F02EAE
:103A4000A7019601A7966CAD7DAD8EAD9FADA797F2
:103A50000E943DD24B015C0120E030E0A901C3018E
:103A6000B2010E94D7D18823C9F0A5019401C501F4
:103A7000B4010E943DD24B015C01A3019201C3013C
:103A8000B2010E943DD29B01AC01C501B4010E946C
:103A9000BEC90E946CCC4B015C010DC020E030E03F
:103AA000A901C501B4010E941ECC87FF04C0B7FA6A
:103AB000B094B7F8B0942FE632E143E85AE3C50179
:103AC000B4010E94D7D187FD21C22AE939E949E131
:103AD0005EE3C501B4010E94B8CA0E9460CB0E9497
:103AE00031CB1B01672B19F422242394312CB10113
:103AF00080E090E00E94DCD14B015C019B01AC01B5
:103B0000C701B6010E94B8CA2F966CAF7DAF8EAFC9
:103B10009FAF2F97A5019401C301B2010E94B8CABB
:103B2000A7966CAF7DAF8EAF9FAFA797AF962CAD2A
:103B30003DAD4EAD5FADAF97E3966CAD7DAD8EAD57
:103B40009FADE3970E94BDC9A50194010E94B8CA28
:103B5000E3966CAF7DAF8EAF9FAFE3972F962CAD02
:103B60003DAD4EAD5FAD2F97CA01B9010E943DD268
:103B700020E030E040E05FE30E943DD29B01AC01D9
:103B800060E070E080E89FE30E94BDC96F966CAF73
:103B90007DAF8EAF9FAF6F97A3962CAD3DAD4EAD71
:103BA0005FADA39729873A874B875C87AF968CAD2B
:103BB0009DADAEADBFADAF978D879E87AF87B88BFC
:103BC0006091310270913202072E000C880B990B24
:103BD0000E94DED120910D0230910E0240910F0221
:103BE000509110020E943DD22AE037ED43E25CE39F
:103BF0000E943DD26BAF7CAF8DAF9EAF0E9469BD7E
:103C00009B01AC0128533F4F4F4F5F4FA3962CAF02
:103C10003DAF4EAF5FAFA3974FAC21965FAC2197FE
:103C200022966FAC229723967FAC239741E050E019
:103C300065965FAF4EAF659759E160965FAF60974D
:103C40006596EEADFFAD6597E215F30509F43EC14B
:103C50000E94A39B0E9469BDDC01CB01A3962CAD01
:103C60003DAD4EAD5FADA397821B930BA40BB50B7F
:103C7000B7FD10C00E9469BD9B01AC0128533F4FA6
:103C80004F4F5F4FA3962CAF3DAF4EAF5FAFA397A3
:103C90000E941F3D60963FAD6097315060963FAFE8
:103CA0006097332309F44BC06F962CAD3DAD4EADFC
:103CB0005FAD6F9727966CAD7DAD8EAD9FAD2797AD
:103CC0000E943DD26B017C012F962CAD3DAD4EADD7
:103CD0005FAD2F97B201C3010E943DD2A7019601AB
:103CE0000E94BEC97B018C016F962CAD3DAD4EADDF
:103CF0005FAD6F97B201C3010E943DD24B015C01E1
:103D00002F962CAD3DAD4EAD5FAD2F9727966CAD88
:103D10007DAD8EAD9FAD27970E943DD29B01AC013A
:103D2000C501B4010E94BDC92B013C01C701D801E6
:103D300027968CAF9DAFAEAFBFAF279761C065969A
:103D40004EAD5FAD6597BA0180E090E00E94DCD196
:103D50002F962CAD3DAD4EAD5FAD2F970E943DD25D
:103D60004B015C010E94B3CA6B017C01C501B40127
:103D70000E945ECC4B015C01A701960123966CADBD
:103D80007DAD8EAD9FAD23970E943DD22B013C01AE
:103D9000A50194012B966CAD7DAD8EAD9FAD2B979B
:103DA0000E943DD29B01AC01C301B2010E94BEC979
:103DB0002B013C01A501940123966CAD7DAD8EAD28
:103DC0009FAD23970E943DD24B015C01A701960154
:103DD0002B966CAD7DAD8EAD9FAD2B970E943DD2E5
:103DE0009B01AC01C501B4010E94BDC927966CAF0F
:103DF0007DAF8EAF9FAF279759E160965FAF609719
:103E00009201A3016B966CAD7DAD8EAD9FAD6B97AE
:103E10000E94BEC969837A838B839C8327962CADCD
:103E20003DAD4EAD5FAD2797AB966CAD7DAD8EAD24
:103E30009FADAB970E94BEC96D837E838F839887A9
:103E4000A7962CAD3DAD4EAD5FADA79769857A8540
:103E50008B859C850E94BEC969877A878B879C87E2
:103E6000E3962CAD3DAD4EAD5FADE3976D857E85A0
:103E70008F8598890E94BEC96D877E878F87988BB2
:103E8000CE0101960E94C264E090B10D1C8E1D8E81
:103E90001E8E1F8ECE014C966C018E01055C1F4F4D
:103EA0009E01235F3F4FAE01475F5F4FBE016B5FD7
:103EB0007F4F4B970E94D1476596AEADBFAD6597DA
:103EC00011966596BFAFAEAF6597BACEE090B10DD3
:103ED0001FAA18AE19AE1AAE9E01295C3F4F6901A8
:103EE0008E01055C1F4F25EE3DE041EE5DE06DED7E
:103EF0007DE089ED9DE00E94D14780E1E9EDFDE0A4
:103F0000A3EFBAE001900D928A95E1F70E9469BD96
:103F100060932003709321038093220390932303E3
:103F20000C94D13284E29CE00E94443C80EE92E00A
:103F30000E94443C0C94D13280E50E94343788239F
:103F400029F00E94AA366B017C0103C0C12CD12C40
:103F5000760183E50E943437882361F00E94BA36E7
:103F600020E030E04AE754E40E943DD20E9431CB89
:103F70006B017C010E94ADAE80916E03811105C082
:103F800060E086EF92E00E942081C701B6010E94A6
:103F9000CF3F0C94D1320E94ADAE80910D02909132
:103FA0000E02A0910F02B09110028093260390930D
:103FB0002703A0932803B0932903809131029091A5
:103FC0003202909325038093240384E690E090933B
:103FD0003202809331021093F30E88E50E94ED3691
:103FE000282E89E50E94ED36082F8AE50E94ED36DD
:103FF000382E211005C0011105C011E0182705C099
:10400000011102C010E001C0182F80E1E3EFFAE0D7
:10401000A9EDBDE001900D928A95E1F782E50E943D
:104020003437882369F00E94BA366B017C0120E0A6
:1040300030E0A9010E94D7D1882309F4CBC006C083
:10404000C12CD12CB0EAEB2EB0E4FB2E111105C02F
:10405000211003C0002309F4CEC0C092E10DD0921C
:10406000E20DE092E30DF092E40D8090FB0A909057
:10407000FC0AA090FD0AB090FE0AA5019401C701B8
:10408000B6010E941ECC18160CF0A4C08091F70A4D
:104090009091F80AA091F90AB091FA0A23968CAF90
:1040A0009DAFAEAFBFAF23972091F30A3091F40AD2
:1040B0004091F50A5091F60A27962CAF3DAF4EAFCE
:1040C0005FAF279780910D0290910E02A0910F0291
:1040D000B09110022B968CAF9DAFAEAFBFAF2B97B8
:1040E000EDE6F0E24590559065907490A701960139
:1040F000C501B4010E94D7D187FF12C040920D02C2
:1041000050920E0260920F0270921002C092FB0A4F
:10411000D092FC0AE092FD0AF092FE0A0E9400652D
:1041200085E595E5A5E0B3E480930D0290930E023A
:10413000A0930F02B093100227962CAD3DAD4EAD6B
:104140005FAD27972093F30A3093F40A4093F50A62
:104150005093F60A23968CAD9DADAEADBFAD2397BF
:104160008093F70A9093F80AA093F90AB093FA0A99
:104170000E940065A70196016091FB0A7091FC0AFC
:104180008091FD0A9091FE0A0E941ECC181694F4AC
:1041900040920D0250920E0260920F027092100235
:1041A000C092FB0AD092FC0AE092FD0AF092FE0A4D
:1041B0000E9400652B962CAD3DAD4EAD5FAD2B97AB
:1041C00020930D0230930E0240930F025093100281
:1041D0000E94ADAE111105C0211003C0011106C02F
:1041E0000AC080E00E94CB651123C1F381E00E94E8
:1041F000CB65111102C0332019F082E00E94CB651B
:104200000E942C658091F20E8093F30E809126031C
:1042100090912703A0912803B091290380930D0268
:1042200090930E02A0930F02B0931002809124038A
:1042300090912503909332028093310283E0809322
:1042400007020E945C670C94D13210921C030C94FC
:10425000D13210931C030C94D1320E94BA362B0138
:104260003C01133059F0F701E254F24F20813181C3
:10427000428153810E94BDC92B013C01F701ED50E1
:10428000F54F2081318142815381C301B2010E94E7
:10429000BDC94B015C012DEB37E346E855EB0E94AD
:1042A0001ECC87FD1BC02DEB37E346E855E3C50167
:1042B000B4010E94D7D118168CF01F5FB4E0CB0E6A
:1042C000D11CE4E0EE0EF11C143039F1D1018D91D6
:1042D0001D010E943437882381F3BFCF133051F47E
:1042E0004092FF0A5092000B6092010B7092020BF9
:1042F00001E0E3CFA5019401F60160817181828123
:1043000093810E94BEC9D6016D937D938D939C933A
:104310001397812F0E948264D0CF002331F1209126
:1043200083083091840840918508509186086091F7
:10433000FF0A7091000B8091010B9091020B0E947B
:104340003DD20E942BCC6093EE0E7093EF0E8093C3
:10435000F00E9093F10E1092DE0E1092DF0E10927E
:10436000E00E1092E10E0E9479A10E945C670C940D
:10437000D1320E9498490C94D13280911D039091C2
:104380001E038037910509F44DC50CF01CC18F3117
:10439000910509F412C40CF08FC08531910509F420
:1043A000A3C20CF060C08430910509F48BC28CF478
:1043B00097FF02C00C94A132823091050CF40AC21E
:1043C000039711F00C94A13281E00E94ED3F0C9410
:1043D000D1328131910509F47AC2A4F4059711F024
:1043E0000C94A1320E94ADAE739A60E070E082E05E
:1043F0000E9466BC61E070E080E090E00E94CF3FE8
:104400000C94D1328231910509F491C5449711F091
:104410000C94A1328AE293E00E94443C10929E11D7
:1044200040E050E0BA018FE79FE00E9445848BE1B5
:10443000EFE7FFE0DE01119601900D928A95E1F71A
:1044400040E050E0BE016F5F7F4F80E090E00E944F
:10445000A89FCE0101960E94373C8BE193E00E9419
:10446000443C0C94D1328A31910509F465C2A4F41C
:104470008731910509F442C20CF43AC288319105A2
:1044800009F44FC2499711F00C94A1321092520FC7
:104490000E94A87F0C94D1328C31910509F45EC240
:1044A0000CF458C28D31910511F40C94D1324E9711
:1044B00009F45EC20C94A1328535910509F46EC5EC
:1044C0000CF04BC08D34910509F45FC4BCF48A3202
:1044D000910509F40FC42CF4809709F422C30C94BD
:1044E000A1328B34910509F44CC48C34910511F040
:1044F0000C94A1320E94A87F0C94D1328235910590
:1045000009F40CC504F58135910511F00C94A13224
:104510000E94B0990E94ADAE0E94B93B1092A40CCB
:104520001092A30C1092A60C1092A50C68EE73E0EA
:1045300080E090E00E94933B60E08EEF93E00E9469
:1045400020810C94D1328335910509F4EBC4843574
:10455000910509F4ECC40C94A1328B36910509F451
:10456000C5C4F4F48836910509F413C47CF48C3581
:10457000910511F00C94A13227E5C22E22E0D22E33
:1045800037E7E32E38E0F32E10E023C58936910596
:1045900009F470C48A36910509F481C40C94A132DF
:1045A0008D36910509F41CC40CF438C48E3691057F
:1045B00009F430C48F36910511F00C94A1320E9499
:1045C000533C0C94D132823E910511F40C943B2C57
:1045D0000CF06FC08B39910509F45DC46CF586371A
:1045E000910509F4D2C5C4F48237910509F471C567
:1045F0000CF41CC48337910509F471C58537910506
:1046000011F00C94A13260E080912A0390912B0369
:104610000E943F810C94D1328837910509F440C63D
:104620000CF4EAC58937910509F441C68139910531
:1046300009F443C60C94A1328D3C910509F48CC752
:10464000ACF4893C910509F4CFC634F4883C91055B
:1046500009F484C60C94A1328B3C910509F4E6C69A
:104660008C3C910509F400C70C94A132833D91055F
:1046700011F40C94762B7CF48E3C910511F00C9483
:10468000A1326FE5C62E62E0D62E77EEE72E7AE0F5
:10469000F72E10E0D4C78C3D910511F40C942E2C0C
:1046A0008D3D910511F00C94A1320E9491410C9422
:1046B000D1328C3AF1E09F0711F40C9494300CF055
:1046C00041C08E3531E0930711F40C94FA31ECF4CB
:1046D0008D3251E0950711F40C943E2C4CF48C3241
:1046E000914011F00C94A1320E9437590C94D132B0
:1046F0008E32E1E09E0711F40C94D02C8F32914061
:1047000011F40C94142D0C94A132833621E09207FD
:1047100011F40C9483323CF48F35914011F40C94D5
:104720002F320C94A132803951E0950711F40C948A
:1047300091308A39914011F00C94A1320E94C53B0E
:104740000C94D1328A39B2E09B0709F48AC71CF570
:10475000853FF1E09F0711F40C94A1317CF4843F74
:10476000914011F00C94A13284E29CE00E94443C00
:1047700080EF98E00E94443C0C94D132863F41E0A7
:10478000940711F40C94A731873F914011F40C94D5
:10479000AA310C94A1328C38A3E09A0711F40C943E
:1047A000E03164F48B38934011F00C94A13233E67D
:1047B000E32E32E0F32E10E00C94B931803AF3E0AE
:1047C0009F0709F4EDC1873E934011F40C948C329D
:1047D0000C94A132A0902A03B0902B0380E50E9494
:1047E0003437882359F00E94AA366B017C0111E00E
:1047F000672B682B692B31F410E004C010E0C12C4A
:10480000D12C760183E50E943437882311F40C946F
:10481000DA320E94BA3620E030E04AE754E40E94DF
:104820003DD20E9431CB6B017C0111110BC0672B73
:10483000682B692B39F4A114B10421F0D5018C91B6
:10484000811102C010E001C011E00E94ADAE112341
:1048500029F061E0C5010E943F8105C060E08FEF53
:1048600092E00E94208183E080931F0381E0809387
:10487000680EC114D104E104F104E9F00E9469BD9D
:10488000C60ED71EE81EF91E0E9469BDDC01CB01D1
:104890008C199D09AE09BF09B7FD06C00E94AD8FF6
:1048A0001092680E0C94D1328091680E8823B1F377
:1048B0000E941F3DE9CF8091680E882379F30E9402
:1048C0001F3DF9CF80E00E94ED3F0C94D13260E0B3
:1048D00082E193E00E94208117981498169813980B
:1048E000159810980C94D1320E94C2460C94D13283
:1048F0001092520F1092530F0C94D13280912A03D0
:1049000090912B03FC012081222329F0203209F40D
:1049100010823196F8CF40E061E00E9403450C948C
:10492000D1328091530F882319F081E08093520F88
:104930000E946E7F0C94D1328091530F882311F422
:104940000C94D13283E50E94343781110C94DF320C
:104950000C94D1320E947A540C94D13240E060E041
:1049600080912A0390912B030E9403450C94D1322D
:104970008091530F882311F40C94D13289EE90E189
:104980000E944A8589EE90E10E947D851092510F28
:104990001092500FE0902A03F0902B038091530F58
:1049A000882311F40C94D1320E94F8441C8E1F8E7F
:1049B0008FE79FE090939B0F80939A0FF701808180
:1049C0008F3209F058C06FE270E0C7010E9407CD36
:1049D0008C010F5F1F4F4E01FCE18F0E911C0115E2
:1049E000110509F44EC06FE270E0C8010E9407CDC6
:1049F0006C01009709F446C00817190708F042C077
:104A00005C01A01AB10AA501B801CE0101960E946D
:104A100030CDE1E0F0E0EC0FFD1FEA0DFB1D108250
:104A2000CE0101960E94894260919A0F70919B0F6E
:104A300021E0AE014F5F5F4FC4010E949B8A81114C
:104A400012C0BE016F5F7F4F81E693E00E94A53CDC
:104A50008EE20E943D3C8AE00E943D3CC4010E94DF
:104A6000373C0C94D13290929B0F80929A0F860122
:104A70000F5F1F4FB4CF8CE99FE090939B0F809303
:104A80009A0F870160919A0F70919B0F19821C8277
:104A900022E0A801CE0101960E949B8A811102C0EA
:104AA000F12C14C0CE0101960E94169F8823C1F3F9
:104AB00061E0CE0101960E942E85009789F325EED4
:104AC000DC012C931C820E94E679F82ECE0101961F
:104AD0000E94373CFF2081F083E593E00E94443C34
:104AE000C8010E94894210929A1110929B11109253
:104AF0009C1110929D110FC08BE393E00E94443CE7
:104B0000F80181918F01882319F00E943D3CF8CF74
:104B10008EE20E943D3CCE014C960E94373C0C94A4
:104B2000D1328091520F81110E94ADAE8091530F0E
:104B3000882311F40C94D13280E50E943437882305
:104B400019F00E949A3603C080E50E94ED36182FB6
:104B5000482F61E080912A0390912B030E94034526
:104B600083E50E943437882381F00E947636AB01BA
:104B7000BC0140939A1150939B1160939C117093C8
:104B80009D1189EE90E10E9445848091530F882306
:104B900019F081E08093520F11110C94D132C8CEDC
:104BA00080912A0390912B0321E02093510F40E044
:104BB00060E00E9403450C94D1320E943A7FECE3FE
:104BC000CE2ED12CE12CF12CA70196010E94B5D557
:104BD000762E672ECA01B901A70196010E94B5D5AC
:104BE0006B017C01CA01B90128E130E040E050E0EE
:104BF0000E94B5D54B015C01C9016DE671E00E94D0
:104C000066C98E010F5F1F4F6115710599F06F9294
:104C10007F92DF92CF929F928F929F938F937F93F9
:104C20006F938DE993E09F938F931F930F930E944F
:104C30006ED112C00097B1F06F927F92DF92CF9247
:104C40009F928F929F938F938DE893E09F938F9382
:104C50001F930F930E946ED10FB6F894DEBF0FBE64
:104C6000CDBF36C081149104A104B10479F06F92D4
:104C70007F92DF92CF929F928F9281E893E09F93F1
:104C80008F931F930F930E946ED1E6CFC114D1046E
:104C9000E104F10469F06F927F92DF92CF9289E78D
:104CA00093E09F938F931F930F930E946ED1D4CF65
:104CB0006F927F9285E793E09F938F931F930F935B
:104CC0000E946ED10F900F900F900F900F900F9049
:104CD00060E0C8010E943F8188EF9CE20E94443C52
:104CE000B80181EB93E00E94A53C8AE00E943D3C24
:104CF0000C94D13283E50E943437882311F40C944C
:104D0000D1320E948636E82E80E50E94343788230F
:104D100039F00E9476368B0177FF04C00C94D132B3
:104D20000DE010E0802F0E940F3C882351F084E2B8
:104D30009CE00E94443C8EEB93E00E94443C0C9427
:104D4000D13261E0802F0E942ABC6E2D802F0E94FC
:104D5000FABBF12CB701802F0E9466BCB6E00B179E
:104D600051F0E8E00E130C94D132F092A40CE092D2
:104D7000A30C0C94D132F092A60CE092A50C0C94EA
:104D8000D1320E946E7F0C94D1320E94BD7F0C9470
:104D9000D1320E945C4181110C94D132809176080D
:104DA00083FF02C00C94D13283E50E9434378823FC
:104DB00099F00E94BA360E942ACB8B017093910E13
:104DC0006093900E80E00E9465990635110524F4E9
:104DD0000E94BD7F0E94AD8F0E9409C60C94D13203
:104DE0000E945C4181110C94D1328091760883FF3E
:104DF00002C00C94D13283E50E9434378FAF811109
:104E00000C94F03282E50E94343781110C94F03218
:104E10000C94D1320E94DFBD0C94D13210920C025E
:104E20000C94D1328BEE93E00E94C43C83E50E9447
:104E30003437882369F00E948636809300028D33D0
:104E400010F40C94D1328CE3809300020C94D13294
:104E500088EF9CE20E94443C4091000250E060E0F8
:104E600070E084EF93E00E9422418AE00E943D3C82
:104E70000C94D1320E945C41811109C08BEF93E008
:104E80000E94443C0E9418998AE00E943D3C109286
:104E90001F030C945C360E944C540C94D13280E574
:104EA0000E943437882341F00E948636182F8230C2
:104EB00010F00C94D13201C010E083E50E94343729
:104EC000882319F00E94763602C06FEF70E0E12F60
:104ED000F0E06F3F710510F06FEF70E0EE0FFF1F15
:104EE000ED55F34F718360830C94D13280E50E94BD
:104EF0003437882341F00E9476366230710510F015
:104F00000C94D13202C060E070E0660F771FFB01A5
:104F1000ED55F34F118210820C94D1321092170389
:104F20000C94D13281E0809317030C94D13283E545
:104F30000E9434378823A1F00E94BA3620E030E086
:104F40004AE754E40E943DD20E9431CB60930102B3
:104F50007093020280930302909304020C94D13266
:104F600088E50E94ED3681110C94AA3489E50E94EF
:104F7000ED3681110C94AA348AE50E94ED36811138
:104F80000C94AA3485E40E94ED3681110C94AA3465
:104F90000E94ADAE0E94B93B0C94D13283E50E94D1
:104FA000ED36882311F40C94D1320E94BA3620E0F9
:104FB00030E04AE754E40E943DD20E9431CB609336
:104FC00018037093190380931A0390931B030C9496
:104FD000D132D6018D916D010E94ED36882309F4FE
:104FE0006DC0133009F063C00E94BA364B015C01FA
:104FF00020E030E040EA51E40E94D7D187FF4EC064
:10500000A5019401609183087091840880918508BE
:10501000909186080E94B8CA2B013C019B01AC010B
:105020006091C0127091C1128091C2129091C3120E
:105030000E943DD26093C0127093C1128093C2123D
:105040009093C312A30192016091DC127091DD1262
:105050008091DE129091DF120E943DD26093DC12AB
:105060007093DD128093DE129093DF126091030E35
:105070007091040E8091050E9091060E0E94DCD175
:10508000A30192010E943DD20E9431CB6093030E96
:105090007093040E8093050E9093060E8092830801
:1050A00090928408A0928508B092860807C00E945A
:1050B000BA36F70160837183828393831F5FF4E0C4
:1050C000EF0EF11C143009F084CF0E94BE740C94D2
:1050D000D1320E94ADAE0E945C670C94D1328BEE4F
:1050E00094E00E94443C60E08BED94E00E94BFBDE0
:1050F00060E084ED94E00E94BFBD61E089EC94E043
:105100000E94BFBD61E089EB94E00E94BFBD60E0FA
:1051100080EB94E00E94BFBD61E086EA94E00E94CB
:10512000BFBD60E08CE994E00E94BFBD60E084E90F
:1051300094E00E94BFBD60E086E894E00E94BFBD9D
:1051400060E088E794E00E94BFBD60E089E694E0FB
:105150000E94BFBD60E08BE594E00E94BFBD60E0AF
:1051600085E494E00E94BFBD60E084E394E00E9487
:10517000BFBD60E08FE194E00E94BFBD61E08CE0C4
:1051800094E00E94BFBD0C94D13200912A0310918B
:105190002B0383E0F12C40E08150E9F0D8019C9191
:1051A000292F2B7F2134C1F711962C912133A1F7A0
:1051B000913421F0953421F441E002C0FF24F394AE
:1051C00098012E5F3F4F89012F5F3F4FF80190817B
:1051D0009032C9F3E1CF442321F088EF9CE20E9492
:1051E000443CFF2021F086EB95E00E94443CC8013E
:1051F0000E9489420C94D1328CEE95E00E94443C8E
:1052000084EE95E00E94443C1E9903C085EB92E039
:1052100002C08BEA92E00E9489428BED95E00E94E9
:10522000443C029903C085EB92E002C08BEA92E015
:105230000E94894283ED95E00E94443C1D9903C081
:1052400085EB92E002C08BEA92E00E9489428AECF0
:1052500095E00E94443C019903C085EB92E002C0B6
:105260008BEA92E00E94894282EC95E00E94443CE5
:105270001C9B03C085EB92E002C08BEA92E00E9487
:1052800089428AEB95E00E94443C379B03C085EB42
:1052900092E002C08BEA92E00E9489420C94D132E3
:1052A00081E08093F30E8093F20E0C94D132109231
:1052B000F30E1092F20E0C94D13283E50E94343733
:1052C000882319F00E94763602C060E070E08B01FE
:1052D00011270230110554F084E29CE00E94443C06
:1052E00086E096E00E94443C0C94D13288E40E940F
:1052F00034378823A9F00E9476366A3A71053CF06B
:105300006530F1E07F072CF064E071E002C06AEAEA
:1053100070E0F801EE0FFF1FE355F24F71836083D9
:1053200086E40E943437882311F40C94D1320E9411
:105330007636000F111FF801EB55F24F7183608331
:105340006F3F710519F014F06FEF70E077FF02C046
:1053500060E070E0718360830C94D1320E945C4104
:1053600081110C94D13284E40E94ED368823C1F17E
:105370000E94BA3611E020E030E0A9010E94D7D1A6
:10538000811101C010E01093AB12112349F10E946A
:10539000BA36E0918B0E24E0E29FF0011124E05533
:1053A000FD4E608371838283938320E030E0A90106
:1053B0006091B0127091B1128091B2129091B312BB
:1053C0000E94D7D181110CC080E090E0A0EEBFE335
:1053D0008093B0129093B112A093B212B093B31213
:1053E0000E9414A10C94D132A7E0EA2EAEE0FA2E6E
:1053F0000BE512E0B4E0DB2ED00ED8018D918D01CB
:105400000E94ED36882349F00E94BA360E9431CBC3
:10541000F7016083718382839383F4E0EF0EF11CC4
:10542000D012EBCF0E9454740C94D132E0EDEE2EEA
:10543000E2E1FE2E0BE512E0F4E0DF2ED00ED80103
:105440008D918D010E94ED36882339F00E94BA3685
:10545000F7016083718382839383F4E0EF0EF11C84
:10546000D012EDCF0C94D13283E50E9434378823DB
:10547000A1F00E94BA366093C8127093C91280934B
:10548000CA129093CB126093C4127093C51280938A
:10549000C6129093C71210E001C011E080E50E948F
:1054A0003437882359F00E94BA366093C81270933B
:1054B000C9128093CA129093CB1210E082E50E9429
:1054C0003437882359F00E94BA366093CC12709317
:1054D000CD128093CE129093CF1210E084E50E94FB
:1054E0003437882361F00E94BA366093C4127093F7
:1054F000C5128093C6129093C7120C94D132112317
:1055000011F40C94D1324091C8125091C91260919B
:10551000CA127091CB128EE296E00E9472424091C4
:10552000CC125091CD126091CE127091CF128BE2BD
:1055300096E00E9472424091C4125091C51260914F
:10554000C6127091C71288E296E00E9472428AE009
:105550000E943D3C0C94D13283E50E94ED368823B5
:1055600051F00E94BA366093E8127093E91280936A
:10557000EA129093EB1284E50E94ED36882351F0F5
:105580000E94BA366093E4127093E5128093E6129B
:105590009093E71282E40E94ED36882351F00E9436
:1055A000AA366093E0127093E1128093E212909316
:1055B000E31288E50E94ED36882351F00E94BA3646
:1055C0006093B4127093B5128093B6129093B71291
:1055D00089E50E94ED36882351F00E94BA36609327
:1055E000B8127093B9128093BA129093BB128AE5E5
:1055F0000E94ED36882351F00E94BA366093BC12A7
:105600007093BD128093BE129093BF1285E40E94E6
:10561000ED36882309F4C5C70E94BA366093C012DC
:105620007093C1128093C2129093C312BAC71F5FC6
:10563000F4E0EF0EF11C133011F40C94B521D601F7
:105640008D916D010E94ED36882389F30E94BA3650
:10565000F7016083718382839383812F0E94826428
:10566000E6CF88E50E94ED36882361F00E94BA36C5
:105670006093ED0D7093EE0D8093EF0D9093F00D10
:1056800010E001C011E089E50E94ED36882359F051
:105690000E94BA366093E90D7093EA0D8093EB0D8A
:1056A0009093EC0D7EC7112309F47BC784E496E048
:1056B0000E94443C4091ED0D5091EE0D6091EF0D34
:1056C0007091F00D81E496E00E9472424091E90DE4
:1056D0005091EA0D6091EB0D7091EC0D8EE396E028
:1056E0000E9472428AE00E943D3C5BC788EF9CE2C8
:1056F0000E94443C8BE896E00E94443C83E50E9473
:10570000ED36882321F00E949A3680931102809111
:105710001102811103C083E696E002C087E696E09D
:105720000E94443C83E896E00E94443C2091BE0DD8
:105730003091BF0D4091C00D5091C10D6091B20DDF
:105740007091B30D8091B40D9091B50D0E94BEC9BA
:10575000AB01BC0181E896E00E9472422091C20D2B
:105760003091C30D4091C40D5091C50D6091B60D9F
:105770007091B70D8091B80D9091B90D0E94BEC97E
:10578000AB01BC018EE796E00E9472422091C60DEB
:105790003091C70D4091C80D5091C90D6091BA0D5F
:1057A0007091BB0D8091BC0D9091BD0D0E94BEC942
:1057B000AB01BC018BE796E00E94724283E796E062
:1057C0000E94443C2091BE0D3091BF0D4091C00D10
:1057D0005091C10D609112027091130280911402D8
:1057E000909115020E94BEC9AB01BC0181E796E011
:1057F0000E9472422091C20D3091C30D4091C40DA0
:105800005091C50D60911602709117028091180297
:10581000909119020E94BEC9AB01BC018EE696E0D0
:105820000E9472422091C60D3091C70D4091C80D63
:105830005091C90D60911A0270911B0280911C0257
:1058400090911D020E94BEC9AB01BC018BE696E09F
:105850000E9472428AE00E943D3CA3C683E50E94FA
:105860003437882309F49DC60E947636709332023D
:105870006093310296C60E94674093C685E40E94F9
:105880003437811110C080E50E94ED368823C1F0C5
:105890000E94BA366093800E7093810E8093820EC0
:1058A0009093830E0DC00E948636882361F384E2B4
:1058B0009CE00E94443C87EA96E00E94443C71C60A
:1058C00089E40E94ED36882381F00E94BA362CEAE2
:1058D00035EC47E25EE30E943DD260937C0E70930C
:1058E0007D0E80937E0E90937F0E84E40E94ED36B1
:1058F000882381F00E94BA362CEA35EC47E25EE359
:105900000E94B8CA6093840E7093850E8093860EB1
:105910009093870E88EF9CE20E94443C4091800E59
:105920005091810E6091820E7091830E83EA96E011
:105930000E9472422CEA35EC47E25EE360917C0EF5
:1059400070917D0E80917E0E90917F0E0E94B8CA5C
:105950006B017C018FE996E00E94443C42E0C70164
:10596000B6010E94FD412CEA35EC47E25EE360910E
:10597000840E7091850E8091860E9091870E0E9404
:105980003DD26B017C018BE996E00E94443C42E0F1
:10599000C701B6010E94FD418AE00E943D3C01C65C
:1059A00083E50E94ED36182F882371F00E94BA36E5
:1059B0000E942ACB70934C0260934B0221E0672B2C
:1059C00009F020E02093EC1280E50E94ED36882358
:1059D00059F020914B0230914C02232B11F00E9480
:1059E0009A368093EC12DDC51111DBC588EF9CE27D
:1059F0000E94443C8091EC12811103C06AEB72E07A
:105A000002C067EB72E08EEC96E00E94A53C6091CC
:105A10004B0270914C028DEB96E00E944F4189EB56
:105A200096E00E94443CBDC585E40E94343788233B
:105A300021F00E9476367B0102C0E12CF12C83E438
:105A40000E943437882341F00E947636C058DF4FD9
:105A50006883C058D04006C025E0C058DF4F288377
:105A6000C058D04085E50E943437882319F00E9441
:105A70009A3603C085E50E94ED36C457DF4F888310
:105A8000CC58D040F7FC07C0812C912C56E1A52EB4
:105A900053E4B52E06C0812C912C4CE8A42E42E490
:105AA000B42E83E50E943437882321F00E94BA3651
:105AB0004B015C01E114F10411F410928B0E0E9471
:105AC00069BD2B013C01EE2029F084E698E00E949C
:105AD000443C67C5C501B4010E942ACB072E000CC7
