:100000000C942E1C0C945F1C0C945F1C0C945F1CB5
:100010000C945F1C0C945F1C0C945F1C0C945F1C74
:100020000C945F1C0C945F1C0C945F1C0C945F1C64
:100030000C945F1C0C945F1C0C945F1C0C945F1C54
:100040000C945F1C0C94FA670C945F1C0C945F1C5E
:100050000C945F1C0C945F1C0C94DD8F0C942EC7C9
:100060000C945F1C0C945B440C945F1C0C945F1C00
:100070000C945F1C0C945F1C0C945F1C0C945F1C14
:100080000C945F1C0C945F1C0C945F1C0C945F1C04
:100090000C945F1C0C945F1C0C945F1C0C945F1CF4
:1000A0000C945F1C0C945F1C0C945F1C0C945F1CE4
:1000B0000C945F1C0C945F1C0C945F1C0C945F1CD4
:1000C0000C945F1C0C945F1C0C945F1C0C945F1CC4
:1000D0000C945F1C0C945F1C0C945F1C0C945F1CB4
:1000E0000C945F1C3F424242464249424C42764297
:1000F0005042534257425A425D4261426442674213
:1001000076426B426E427142E282018320834383D6
:10011000668305858983AA83CB83EE831184348427
:1001200057847A8405859D84C084E2840BC50EC5FE
:10013000FDC401C507C545C512C516C51CC520C5EA
:1001400024C52AC52EC532C545C538C53CC540C5E0
:1001500029C62EC633C63DC647C6C0C651C659C6F7
:1001600061C66BC675C67FC68EC698C6C0C6A2C617
:10017000ACC6B6C6084AD73B3BCE016E84BCBFFDB9
:10018000C12F3D6C74319ABD56833DDA3D00C77F67
:1001900011BED9E4BB4C3E916BAAAABE0000008000
:1001A0003F05A84CCDB2D44EB93836A9020C50B98F
:1001B000918688083CA6AAAA2ABE000000803F00BB
:1001C0000C94BFC10C9418590C9447C60C943B7006
:1001D0000C9457840C9450420C9405850C945A420C
:1001E0000C9434840C946E420C949D840C9449427B
:1001F0000C949DBC0C9498C60C9489940C9482C069
:100200000C9412C50C9411840C94B3C10C94FDC4CD
:100210000C9415590C9429C60C94C3BF0C94EFBAD6
:100220000C94AF6F0C9418C30C9471420C94CCBA1C
:100230000C94C3B70C946B420C94C6920C9420831C
:100240000C9421580C9464420C94EE830C943DC69B
:100250000C946BC60C947A840C9499770C9433C6E6
:100260000C9420540C943F420C94A7BC0C94614213
:100270000C9459C60C94D7C90C94FF550C94F5BA3C
:100280000C940EC50C94DAB70C942AC50C94C0C615
:100290000C94C0C10C9489830C940E9D0C94A2B84C
:1002A0000C943ABE0C94CB830C9401C50C94AA8395
:1002B0000C946C4E0C941CC50C94E6A90C94D1BA09
:1002C0000C94A2BC0C942B9B0C9445C50C943CBE86
:1002D0000C94F76F0C9424C50C94C7BA0C94E28468
:1002E0000C9407C50C9466830C9438C50C9432C5E5
:1002F0000C941E540C94C0840C948EC60C944242F0
:100300000C9461C60C9453420C9451C60C94C3C116
:100310000C941B590C940BC50C94A2C60C94B5C13B
:100320000C9420C50C9498BC0C9475C60C942EC6E5
:100330000C948B9E0C94ACC60C94D6BA0C94039A75
:100340000C9467420C94C3920C9436D20C94A092F5
:100350000C94FBBA0C944C420C947FC60C9440C590
:100360000C9430BE0C94B6C60C9464700C942EC5DC
:100370000C9476420C9401830C945D420C943CC521
:100380000C9416C50C94E2820C94C6C10C94ACB7C4
:100390000C9473980C94F39B0C94FBBE0C944383C5
:1003A0000C9437BB0C9446420C94E1960C94574243
:1003B000434F4D4D554E49434154494F4E004452D1
:1003C0005952554E004552524F525300494E464FD6
:1003D000004543484F0020746F6F206C6F6E67209C
:1003E000657874727573696F6E2070726576656E6C
:1003F0007465640A0020636F6C642065787472759C
:1004000073696F6E2070726576656E7465640A003C
:1004100047322F47332062616420706172616D65DD
:10042000746572730A00536C6565702E2E2E00433E
:100430006C69636B20746F20726573756D652E2E09
:100440002E004E6F206D6F76652E00456E6420661F
:10045000696C65206C6973740A00426567696E2077
:1004600066696C65206C6973740A00286E6F20667B
:10047000696C65290043757272656E742066696CDB
:10048000653A20005344207072696E74696E67206B
:100490006279746520004E6F742053442070726935
:1004A0006E74696E670A0044656C6574696F6E20CE
:1004B0006661696C65642C2046696C653A2000466B
:1004C000696C652064656C657465643A006F70657D
:1004D0006E206661696C65642C2046696C653A2003
:1004E000002569730025696D2025697300256968F9
:1004F0002025696D202569730025696420256968B8
:100500002025696D20256973002569792025696496
:10051000202569682025696D20256973005072695E
:100520006E742074696D653A200050726F74656353
:100530007465642050696E0A00446F6E652E0A006F
:10054000534552564F206E6F742073657475700A50
:10055000005761746368696E672070696E730A0082
:1005600064697300656E0061626C65640A00656EA3
:100570006473746F70206D6F6E69746F72200020E9
:10058000573A004520436F6F6C696E672E2E2E0020
:10059000452048656174696E672E2E2E006F666671
:1005A00000D103CC03C503BE03B003444542554705
:1005B0003A004B494C4C45442E20004D31313320FC
:1005C00053006F6B005631204520434E43204F6649
:1005D000662E00544845524D414C5F50524F544591
:1005E0004354494F4E004155544F5245504F525479
:1005F0005F53445F53544154555300454D45524752
:10060000454E43595F504152534552004341534573
:100610005F4C494748545F4252494748544E4553FE
:100620005300544F47474C455F4C4947485453008B
:10063000534F4654574152455F504F574552004221
:1006400055494C445F50455243454E54004C455625
:10065000454C494E475F44415441005A5F50524F08
:100660004245004155544F4C4556454C0050524967
:100670004E545F4A4F420050524F47524553530029
:100680004155544F5245504F52545F54454D5000C0
:10069000564F4C554D455452494300454550524FD5
:1006A0004D0053455249414C5F584F4E5F584F469D
:1006B00046004649524D574152455F4E414D453ADD
:1006C0004D61726C696E206275676669782D322E95
:1006D000302E7820284769746875622920534F5559
:1006E0005243455F434F44455F55524C3A687474DA
:1006F00070733A2F2F6769746875622E636F6D2F60
:100700004D61726C696E4669726D776172652F4DCD
:1007100061726C696E2050524F544F434F4C5F567C
:10072000455253494F4E3A312E30204D41434849AE
:100730004E455F545950453A5631204520434E436B
:100740002045585452554445525F434F554E543AF4
:100750003120555549443A63656465326132662DEE
:10076000343161322D343734382D396231322D63D2
:1007700035356336326633363766660A002F2F20EA
:10078000007A5F6D61783A20007A5F6D696E3A2079
:100790000079325F6D696E3A2000795F6D696E3A5B
:1007A000200078325F6D696E3A2000785F6D696E67
:1007B0003A20005265706F7274696E6720656E64CE
:1007C00073746F70207374617475730A004D3134E3
:1007D0003520533C696E6465783E206F7574206FD8
:1007E000662072616E67652028302D31290A00204D
:1007F0005400205200416363656C65726174696FD7
:100800006E3A2050002059002058004475616C2039
:10081000456E6473746F702041646A7573746D659E
:100820006E7420286D6D293A20004F6666004F6E69
:100830002000205A00205900580020204D61783AAD
:100840002000205A00205900580020204D696E3A9F
:100850002000536F667420656E6473746F70733A12
:10086000200043290A0061626C656420286D696E6E
:100870002074656D702000436F6C6420657874721D
:1008800075646573206172652000454550524F4D77
:100890002064697361626C65640A004E6F20636155
:1008A0007365206C696768740A00416374697665D2
:1008B0002045787472756465723A2000496E7661DD
:1008C0006C69642065787472756465720A002530FD
:1008D0001D0C182829FF24311C0B174527FF232F37
:1008E0001B0A1E4443FFFFFFFF030806FFFF202CE7
:1008F00016FFFFFF033809FF36222B1AFF212A19A2
:10090000FF0001627573793A207061757365642028
:10091000666F7220696E7075740A00627573793A39
:100920002070617573656420666F722075736572DF
:100930000A00627573793A2070726F636573736928
:100940006E670A004B494C4C45442E20004B494CE5
:100950004C20636175736564206279204B494C4C6F
:1009600020627574746F6E2F70696E0A004B494C6B
:100970004C45442E20004B494C4C206361757365F7
:100980006420627920746F6F206D75636820696ED2
:100990006163746976652074696D65202D206375C7
:1009A0007272656E7420636F6D6D616E643A2000C3
:1009B000506C6561736520726573657400505249AF
:1009C0004E5445522048414C544544005072696E83
:1009D0007465722068616C7465642E206B696C6C40
:1009E00028292063616C6C6564210A0020466C6FC5
:1009F000773A200020643A0020693A0020703A00DB
:100A0000496E76616C69642065787472756465728C
:100A10000A00433A2000423A2000413A20002020B8
:100A20002020434F4D002020206E6F6E2D73746187
:100A30006E646172642050574D206D6F64650020B4
:100A40002020636F6D7061726520696E74657272CB
:100A500075707420656E61626C6564002020206F83
:100A6000766572666C6F7720696E746572727570E8
:100A70007420656E61626C6564003A20002020205D
:100A80002054494D534B00423A200020202020544E
:100A900043435200413A2000202020205443435237
:100AA000002020202043533A2000202020205747B8
:100AB0004D3A200050574D3A2020253464005057BD
:100AC0004D3A20202534640047004800000088008B
:100AD0008A008C00B300B400000098009A009C00CB
:100AE000A800AA00AC0028012A012C012020202007
:100AF00054494D455200440045006E00800081007D
:100B00006F00B000B1007000900091007100A00073
:100B1000A100720020012101730020697320616C23
:100B2000736F207469656420746F20746869732022
:100B300070696E0054494D45523143000A202E0021
:100B40002020002020506F72743A2000656E71756D
:100B5000657565696E672022004D3234004D323371
:100B600020257300556E6B6E6F776E20636F6D6D11
:100B7000616E643A20220053442063617264206FE6
:100B80006B0A006F70656E526F6F74206661696CDE
:100B900065640A00766F6C756D652E696E697420E8
:100BA0006661696C65640A00534420696E6974204B
:100BB0006661696C0A0057726974696E6720746FA8
:100BC0002066696C653A20006F70656E2066616909
:100BD0006C65642C2046696C653A20006F70656E08
:100BE000206661696C65642C2046696C653A20005A
:100BF00046696C652073656C65637465640A0020E2
:100C000053697A653A200046696C65206F70656E9D
:100C100065643A20006F70656E206661696C65647A
:100C20002C2046696C653A20006672657368006422
:100C30006F696E67002066696C653A20004E6F77B9
:100C40002000454E4420535542524F5554494E457D
:100C50000A002220706F73002220706172656E742A
:100C60003A2200535542524F5554494E4520434174
:100C70004C4C207461726765743A22004B494C4CAD
:100C800045442E2000747279696E6720746F20636A
:100C9000616C6C207375622D67636F646520666993
:100CA0006C6573207769746820746F6F206D616E56
:100CB00079206C6576656C732E204D4158206C65EB
:100CC00076656C2069733A004572726F723A00451E
:100CD00072723A207574663820666F6E74206E6F7B
:100CE0007420696E697469616C697A65642E002587
:100CF000753A2530327500253032753A2530327517
:100D00000025756420253032753A25303275002073
:100D1000202020202000202020200009200000008A
:100D2000000000000000000000003FFFF000000095
:100D3000000000000000000000380070000000000B
:100D4000000000000000000030FC30000000000047
:100D50000000000000000020FC1000000000000067
:100D600000000000000020781000000000000000DB
:100D70000000000000203010000000000000000013
:100D8000000000002C00D03FC00000000000000068
:100D90000000002E31D07FE00000000000000000C5
:100DA00000002F7BD07FE00000000000000000006A
:100DB000002F7BD07FE0000000000000000000005A
:100DC0002E31D03FC0000000000000000000002CC9
:100DD00000D03FC0000000000000000000002030F4
:100DE000107FE000000000000000000000207810EC
:100DF0007FE00000000000000000000020FC107FE9
:100E0000E00000000000000000000030FC301F8007
:100E1000000000000000000000003800700F00001B
:100E20000000000000000000003FFFF0060000008E
:100E300000000000000000000000000000000000B2
:100E4000000000000000003FFFF000000000000074
:100E500000000000000038007000000000000000EA
:100E6000000000000031863000000000000000009B
:100E700000000000238710000000000000000000B8
:100E80000000002787900000000000000000000024
:100E900000002F87D00000000000000000000000CC
:100EA000002F03D03FC00000000000000000000041
:100EB0002030107FE0000000000000000000002053
:100EC00078107FE0000000000000000000002078A3
:100ED000107FE00000000000000000000020301043
:100EE0003FC0000000000000000000002F03D03FC2
:100EF000C0000000000000000000002F87D07FE04D
:100F0000000000000000000000002787907FE00044
:100F10000000000000000000002387107FE00000B8
:100F200000000000000000003186301F800000003B
:100F3000000000000000003800700F0000000000FA
:100F40000000000000003FFFF0060000000000006D
:100F500000000000000000000001FFFFFFFFFFFF96
:100F6000FFFFFFC183FFC0000007FFFFFFFFFFFF80
:100F7000FFFFFF87E1FFE000000FFFFFFFFFFFFF24
:100F8000FFFFFF0FF07FF000000E000000000000E8
:100F90000000001FFC3FF000001C000000000000EB
:100FA0000000003FFE003800001C000000000000B0
:100FB0000000007FFF803800001C000000000000DF
:100FC000000001FF1FC03800001C3C0000780F80AB
:100FD000000003FE0FC03800001C3C0000783F807A
:100FE00000000FFC07C03800001C3C0000F8FF8028
:100FF00000001FFC0FC03800001C3E0000F8FF80FE
:1010000000007FF80F803800001C1E0000F0F78001
:101010000001FFF81F803800001C1F0001F007804E
:101020000007FFF01F803800001C1F0001E0078050
:10103000001FFFF03F803800001C0F0003E0078016
:10104000007FFFE07F803800001C0F8003E00780F6
:1010500003FFFFC07F803800001C078003C00780AB
:101060001FFFFE00FF803800001C078007C00780BC
:101070003FFFF800FF803800001C07C00780078092
:101080007FFFE001FF003800001C03C007800780DD
:101090007FFFE001FF003800001C03E00F800780A5
:1010A0007FFFC000FF003800001C01E00F00078038
:1010B00078000000FF003800001C01E01F000780DE
:1010C00078000000FF003800001C01F01E000780BF
:1010D00078000000FF003800001C00F01E000780B0
:1010E00078000000FF003800001C00F83E00078078
:1010F00078000000FF003800001C00F83C0007806A
:101100007FFFC000FF003800001C00787C000780D3
:101110007FFFE001FF003800001C007C7C0007809E
:101120007FFFE001FF003800001C003C78000780D2
:101130007FFFF001FF003800001C003EF800078030
:101140003FFFFC00FF803800001C003EF0000780DD
:1011500007FFFFC07F803800001C001FF0000780E1
:1011600000FFFFE07F803800001C001FF0000780B8
:10117000001FFFE03F803800001C000FE0000780E8
:101180000007FFF03F803800001C000FE0000780E0
:101190000001FFF81F803800001C000FC00007800E
:1011A00000007FF80F803800001C0007C000078097
:1011B00000003FFC0FC03800001C0007C000078083
:1011C00000000FFC07C03800001C000380000780EF
:1011D000000007FE07C03800001C00038000030069
:1011E000000001FE0FC03800001C000000000000DD
:1011F000000000FF3F803800001C000000000000DD
:101200000000007FFF003800000E0000000000001A
:101210000000001FFC007800000FFFFFFFFFFFFF32
:10122000FFFFFF0FF03FF8000007FFFFFFFFFFFF8A
:10123000FFFFFF87E0FFF0000003FFFFFFFFFFFF5E
:10124000FFFFFFC383FFE00000000000000000007C
:10125000000000000000000000000000000000008E
:10126000000000000000000000000000000000007E
:10127000000000000000000000000000000000006E
:101280000000000000000000000FF40307C28067A8
:10129000F9FF3E0A0183E000001FF6031FE6C06F5E
:1012A000FBFF7F1B018FF000001807033876E06C0E
:1012B0000300631B819C1800001807833006F06C44
:1012C0000300619BC1980000001807C36006F86C1A
:1012D0000300619BE1B00000001806E36006DC6CCF
:1012E0000300639B71B00000001FE67361E6CE6FE0
:1012F000F3FC7F1B39B0F0000018063B61F6C76CA9
:1013000003007E1B1DB0F8000018061F6036C3ECFA
:101310000300671B0FB018000018060F3036C1EC31
:101320000300639B07981800001806071876C0ECA6
:101330000300619B038C3800001FF6030FE6C06FAB
:10134000FBFE60DB0187F000000FF60107C6C02737
:10135000F9FE60DB0083E0001FFFFFFFFFFFFF607F
:101360000000000001FF400000000000FF800000BE
:101370000000007F83CF00000C303F87FF80000C0F
:10138000301F867980000C000F8C30C7838C30E7CB
:101390008C30CFC7CC31F38C30DCECEC33B98C30F3
:1013A000D86C6C33198C30D06C0C33198C30D86CF1
:1013B0000C33198C30DC6C0E3B198C30CF7C079FC2
:1013C000198C30C77C038F194000000000000260B8
:1013D0000000000000061FFFFFFFFFFFF820205065
:1013E0006C616E6E6572427566666572427974658F
:1013F000733A20002046726565204D656D6F7279E5
:101400003A2000436F6D70696C65643A204D6179D4
:1014100020313420323031380A00207C204175746C
:10142000686F723A20286E6F6E652C206465666165
:10143000756C7420636F6E666967290A00323031FB
:10144000382D30312D323000204C617374205570AE
:1014500064617465643A20006275676669782D324C
:101460002E302E780A004D61726C696E0020536F29
:101470006674776172652052657365740A0020573F
:1014800061746368646F672052657365740A002035
:1014900042726F776E206F75742052657365740A9F
:1014A000002045787465726E616C205265736574B6
:1014B0000A00506F77657255700A00737461727418
:1014C0000A006175746F25692E67006572726F720C
:1014D0002077726974696E6720746F2066696C6525
:1014E0000A00446F6E6520736176696E67206669D5
:1014F0006C652E0A004D323900456E6473746F704E
:101500007320256320256320256320256300205A4E
:101510003A0020593A0020583A00656E6473746F9F
:101520007073206869743A200000060C00FE070200
:101530002903BF017FFE08FE08FE0508080600001B
:1015400040F0C88888987810050808060000C0F8A0
:101550008888888888F80505050600012030F8305D
:10156000200508080600002070F820202020E00553
:1015700009090600FF2070A8A8B88888702005090E
:10158000090600FFE080C0B0A82830282805090916
:101590000600FFF8A88888888888A8F8050A0A063F
:1015A00000FE205050505088A8A8887003030306FE
:1015B000000340A040FFFFFFFFFFFFFFFFFFFFFF13
:1015C000FFFFFFFFFFFFFFFFFFFFFF00000006051B
:1015D000FF010707060200808080808000800303EF
:1015E00003060105A0A0A005060606000050F8505D
:1015F00050F8500509090600FF2070A8A07028A81F
:101600007020050707060000C8C8102040989805FC
:10161000070706000040A0A040A890680103030649
:1016200002058080800309090601FF204040808078
:10163000804040200309090601FF8040402020200F
:1016400040408005070706000020A8702070A820F1
:101650000505050600012020F820200203030601ED
:10166000FFC04080050101060003F80202020601E6
:1016700000C0C00507070600000810102040408089
:10168000050707060000708898A8C8887003070738
:1016900006010040C040404040E00507070600004A
:1016A000708808102040F8050707060000F80810A9
:1016B0003008887005070706000010305090F810B9
:1016C00010050707060000F880F008088870050775
:1016D00007060000304080F0888870050707060084
:1016E00000F8081010202020050707060000708869
:1016F0008870888870050707060000708888780859
:101700001060020505060100C0C000C0C002060648
:101710000601FFC0C000C04080030505060101208E
:1017200040804020050303060002F800F803050589
:1017300006010180402040800507070600007088F0
:1017400010202000200507070600007088B8A8B800
:101750008070050707060000708888F8888888056B
:101760000707060000F04848704848F005070706DC
:10177000000070888080808870050707060000F0F0
:101780004848484848F0050707060000F88080F000
:101790008080F8050707060000F88080F0808080D0
:1017A0000507070600007088808098887005070785
:1017B000060000888888F8888888030707060100E3
:1017C000E04040404040E0050707060000381010A8
:1017D000101090600507070600008890A0C0A09038
:1017E00088050707060000808080808080F8050754
:1017F0000706000088D8A88888888805070706009B
:10180000008888C8A898888805070706000070889F
:101810008888888870050707060000F08888F080AF
:10182000808005070706000070888888A8906805F2
:101830000707060000F08888F0A0908805070706D3
:10184000000070888070088870050707060000F89F
:10185000202020202020050707060000888888888F
:1018600088887005070706000088888888505020FF
:1018700005070706000088888888A8A8500507077C
:101880000600008888502050888805070706000059
:1018900088885020202020050707060000F808103F
:1018A000204080F80309090601FFE08080808080E5
:1018B0008080E005070706000080404020101008E7
:1018C0000309090601FFE020202020202020E00558
:1018D00003030600052050880501010600FEF803F9
:1018E0000303060105804020050505060000700879
:1018F0007888780507070600008080F0888888F0DF
:101900000505050600007080808870050707060041
:101910000008087888888878050505060000708822
:10192000F08070050707060000304840E040404066
:101930000507070600FE7088888878087005070785
:101940000600008080F08888888803070706010069
:101950004000C0404040E00409090601FE1000308C
:101960001010101090600507070600008080889016
:10197000E09088030707060100C04040404040E077
:10198000050505060000D0A8A8A8A80505050600BD
:1019900000B0C8888888050505060000708888881A
:1019A000700507070600FEF0888888F0808005072C
:1019B000070600FE7888888878080805050506006F
:1019C00000B0C8808080050505060000788070089A
:1019D000F00507070600002020F820202018050544
:1019E00005060000888888986805050506000088B7
:1019F000888850200505050600008888A8A850059D
:101A0000050506000088502050880507070600FEDF
:101A100088888850204080050505060000F81020C1
:101A200040F80309090601FF204040408040404043
:101A3000200109090602FF808080808080808080EC
:101A40000309090601FF80404040204040408005D6
:101A5000030306000248A890FF5072656865617430
:101A60002041425320636F6E660050726568656165
:101A70007420504C4120636F6E66005049442D44E1
:101A8000005049442D44005049442D4900504944D8
:101A90002D49005049442D50005049442D500020FC
:101AA00008204661637400200820466163740020AA
:101AB00008204D6178002008204D61780020082022
:101AC0004D6178002008204D696E002008204D6986
:101AD0006E002008204D696E004F6666004F6E2034
:101AE000004175746F74656D700046616E2073708F
:101AF00065656420320046616E2073706565642000
:101B0000320046616E207370656564203200466164
:101B10006E20737065656420310046616E207370BD
:101B200065656420310046616E20737065656420D0
:101B300031004E6F7A7A6C65004E6F7A7A6C650070
:101B4000436F6E74726F6C004E6F7A7A6C65004EE4
:101B50006F7A7A6C65004E6F7A7A6C650046616EBA
:101B60002073706565640046616E207370656564FE
:101B70000046616E2073706565640054656D706524
:101B8000726174757265005654726176206D696E6B
:101B9000005654726176206D696E005654726176FB
:101BA000206D696E00566D696E00566D696E005647
:101BB0006D696E00566D6178204500566D61782024
:101BC0004500566D6178204500566D6178205A00B9
:101BD000566D6178205A00566D6178205A00566D16
:101BE0006178205900566D6178205900566D6178F2
:101BF000205900566D6178205800566D6178205844
:101C000000566D61782058004D6F74696F6E004109
:101C10006D6178204500416D6178204500416D611E
:101C200078205A00416D6178205A00416D6178201A
:101C30005900416D6178205900416D61782058004C
:101C4000416D6178205800412D74726176656C0099
:101C5000412D74726176656C00412D7265747261FC
:101C6000637400412D726574726163740041636333
:101C7000656C00416363656C004D6F74696F6E0045
:101C800020286D6D290020440020490020204D337C
:101C900030312050005049442073657474696E6778
:101CA000733A0A0020460020420020480020204DC0
:101CB0003134352053004D6174657269616C206860
:101CC000656174757020706172616D6574657273A1
:101CD0003A0A0020590020580020204D36363600A0
:101CE000456E6473746F702061646A7573746D659A
:101CF0006E743A0A00205A0020590020204D3230DC
:101D000036205800486F6D65206F66667365743ABB
:101D10000A00204500205A00205900205800204287
:101D20000020540020204D3230352053004164768D
:101D3000616E6365643A20533C6D696E5F666565EC
:101D400064726174653E20543C6D696E5F747261AB
:101D500076656C5F66656564726174653E20423CC1
:101D60006D696E5F7365676D656E745F74696D65CF
:101D70005F75733E20583C6D61785F78795F6A6566
:101D8000726B3E205A3C6D61785F7A5F6A65726B58
:101D90003E20453C6D61785F655F6A65726B3E0A07
:101DA0000020540020520020204D323034205000BA
:101DB000416363656C65726174696F6E2028756E2E
:101DC0006974732F7332293A20503C7072696E74B3
:101DD0005F616363656C3E20523C7265747261633F
:101DE000745F616363656C3E20543C747261766518
:101DF0006C5F616363656C3E0A00204500205A00F9
:101E000020590020204D3230312058004D61786932
:101E10006D756D20416363656C65726174696F6E89
:101E20002028756E6974732F7332293A0A00204591
:101E300000205A0020590020204D32303320580015
:101E40004D6178696D756D20666565647261746554
:101E5000732028756E6974732F73293A0A00204520
:101E600000205A0020590020204D393220580053BC
:101E7000746570732070657220756E69743A0A001B
:101E800020204D3230302044300A0020204D3230A6
:101E9000302044002044697361626C65640A004626
:101EA000696C616D656E742073657474696E6773B7
:101EB0003A0020204D3134392043203B20556E69B3
:101EC000747320696E2043656C736975730A002012
:101ED00020473231202020203B20556E697473202A
:101EE000696E206D6D00205A3A0020593A00204357
:101EF0006F756E7420583A0020453A00205A3A0017
:101F000020593A00583A0000004843000048430076
:101F10000048430000000000000000000000000036
:101F20000000000000000000000000000048420027
:101F300000484200008040000000005761726E6956
:101F40006E673A20486F6D696E672042756D70202C
:101F500044697669736F72203C20310A00040406DC
:101F60000000E0400000E040000040400000484326
:101F70000000484300004843FFFFFF537465707240
:101F800061746520746F6F20686967683A20002467
:101F9000F4D43050C38E20C2A24017828B7011122D
:101FA0007A910D816CD90AA861E108C7586607616A
:101FB0005143061E4B5D05C145A7041A4111040992
:101FC0003D9803713931034036DB0265339102D409
:101FD000305402802E1D02632CEE01752AC501B01B
:101FE00028A001102781018F2564012B244B01E0DB
:101FF000223401AC211F018D200D01801FFC0084C3
:102000001EED00971DDF00B81CD200E61BC60020A5
:102010001BBC00641AB200B219A8000A19A0006A19
:10202000189900D117910040178B00B51684003124
:10203000167E00B31579003A157300C7146F005867
:10204000146A00EE1366008813630025135E00C750
:10205000125B006C12570015125400C11151007030
:10206000114F0021114B00D61049008D104700463A
:1020700010440002104200C00F4000800F3E00429A
:102080000F3C00060F3B00CB0E3800930E37005C70
:102090000E3500270E3400F30D3200C10D310090D3
:1020A0000D3000600D2E00320D2D00050D2C00D9D5
:1020B0000C2B00AE0C2900850C29005C0C27003588
:1020C0000C27000E0C2600E80B2400C40B2400A0F3
:1020D0000B23007D0B23005A0B2100390B21001824
:1020E0000B2000F80A1F00D90A1E00BB0A1E009D23
:1020F0000A1D00800A1D00630A1C00470A1B002CF1
:102100000A1B00110A1A00F7091A00DD091900C498
:10211000091900AB091900920917007B091800631F
:102120000917004C09160036091600200916000A86
:10213000091500F5081500E0081400CC081400B8D3
:10214000081400A4081400900813007D0812006B06
:102150000813005808120046081200340811002322
:102160000811001208110001081100F0071000E02A
:10217000071000D0071000C0071000B0070F00A123
:1021800007100091070E0083070F0074070F00650A
:10219000070E0057070E0049070E003B070D002EE3
:1021A000070E0020070D0013070D0006070D00F9AC
:1021B000060C00ED060D00E0060C00D4060C00C86D
:1021C000060C00BC060C00B0060C00A4060B00991F
:1021D000060C008D060B0082060B0077060B006CC8
:1021E000060B0061060A0057060B004C060A004267
:1021F000060A0038060A002E060A0024060A001AFB
:10220000060A001006090007060A00FD050900F489
:10221000050900EB050900E2050900D9050900D010
:10222000050900C7050900BE050900B5050800AD90
:10223000050800A50509009C050800940508008C08
:10224000050800840508007C050800740508006C7A
:10225000050700650508005D050700560508004EE6
:10226000050700470507004005080038050700314D
:102270000507002A050700230507001C05060016B0
:102280000507000F0507000805060002050700FB0B
:10229000040600F5040700EE040600E8040600E268
:1022A000040700DB040600D5040600CF040600C9BD
:1022B000040600C3040600BD040600B7040600B10E
:1022C000040500AC040600A6040600A00405009B5B
:1022D00004060095040500900406008A04050085A4
:1022E000040500800406007A0405007504050070EA
:1022F0000405006B04050066040500610405005C2C
:1023000004050057040500520405004D040500486B
:10231000040500430405003E0404003A04050035AA
:10232000040500300404002C0405002704040023E5
:102330000405001E0404001A04040016040500111C
:102340000404000D04040009040500040404000052
:10235000040400FC030400F8030400F4030400F088
:10236000030400EC030400E8030400E4030400E0B9
:10237000030400DC030400D8030400D4030400D0E9
:10238000030400CC030400C8030300C503030024B6
:10239000F404D9201BC40C5C0E9804C4095F0265C8
:1023A000077101F405F900FB04B30048048700C17C
:1023B0000369005803550003034500BE023A008438
:1023C00002310053022A002902250004022000E401
:1023D000011C00C8011900AF011700980114008406
:1023E000011300710110006101100051010E004342
:1023F000010D0036010B002B010B0020010B001515
:102400000109000C01090003010800FB000800F3AA
:10241000000800EB000700E4000600DE000600D81C
:10242000000600D2000600CC000500C7000500C26F
:10243000000500BD000400B9000400B5000400B1AF
:10244000000400AD000400A9000400A5000300A2E0
:102450000003009F0004009B000300980003009508
:1024600000020093000300900003008D0002008B27
:10247000000300880002008600020084000300813F
:102480000002007F0002007D0002007B0002007954
:102490000002007700010076000200740002007262
:1024A000000100710002006F0002006D0001006C6D
:1024B0000002006A00010069000200670001006676
:1024C000000100650001006400020062000100617B
:1024D000000100600001005F0002005D0001005C7F
:1024E0000001005B0001005A000100590001005882
:1024F0000001005700010056000100550001005482
:10250000000100530000005300010052000100517F
:10251000000100500001004F0001004E0000004E7D
:102520000001004D0001004C0001004B0000004B79
:102530000001004A00010049000100480000004875
:102540000001004700010046000000460001004570
:10255000000000450001004400010043000000436A
:102560000001004200000042000100410000004163
:10257000000100400001003F0000003F0001003E5C
:102580000000003E0001003D0000003D0001003C55
:102590000000003C0000003C0001003B0000003B4C
:1025A0000001003A0000003A000100390000003943
:1025B000000100380000003800000038000100373A
:1025C0000000003700010036000000360000003631
:1025D0000001003500000035000000350001003426
:1025E000000000340000003400010033000000331C
:1025F0000000003300010032000000320000003211
:102600000001003100000031000000310001003005
:1026100000000030000000300001002F0000002FFB
:102620000000002F0000002F0001002E0000002EEF
:102630000000002E0001002D0000002D0000002DE4
:102640000000002D0001002C0000002C0000002CD8
:102650000000002C0001002B0000002B0000002BCC
:102660000000002B0001002A0000002A0000002AC0
:102670000000002A000100290000002900000029B4
:1026800000000029000000290001002800000028A7
:10269000000000280000002800000028000100279A
:1026A000000000270000002700000027000000278E
:1026B0000001002600000026000000260000002681
:1026C0000000002600010025000000250000002574
:1026D0000000002500000025000000250001002466
:1026E000000000240000002400000024000000245A
:1026F000000100230000002300000023000000234D
:10270000000000230000002300000023000100223D
:102710000000002200000022000000220000002231
:102720000000002200010021000000210000002123
:102730000000002100000021000000210000002115
:102740000001002000000020000000200000002008
:1027500000000020000000200000002000000020F9
:102760000001001F0000001F0000001F0000001FEC
:102770000000001F0000001F0000001F0001001EDD
:102780000000001E0000001E0000001E0000004BA4
:10279000494C4C45442E200053544F505045442E34
:1027A00020005072696E7465722073746F7070656A
:1027B000642064756520746F206572726F72732E69
:1027C0002046697820746865206572726F72206196
:1027D0006E6420757365204D39393920746F20720D
:1027E0006573746172742E202854656D7065726112
:1027F000747572652069732072657365742E205339
:1028000065742069742061667465722072657374E2
:10281000617274696E67290A004E6F2043686563B0
:102820006B73756D2077697468206C696E65206EB6
:10283000756D6265722C204C617374204C696E65F5
:102840003A20004E6F20436865636B73756D207787
:10285000697468206C696E65206E756D6265722C96
:10286000204C617374204C696E653A200063686582
:10287000636B73756D206D69736D617463682C2073
:102880004C617374204C696E653A20004C696E652A
:10289000204E756D626572206973206E6F74204CD6
:1028A000617374204C696E65204E756D6265722B84
:1028B000312C204C617374204C696E653A20004DB8
:1028C000313130004D333100534420726561642052
:1028D0006572726F720A00446F6E65207072696E65
:1028E00074696E672066696C650A002364656669B1
:1028F0006E652044454641554C545F4B642000238F
:10290000646566696E652044454641554C545F4B8D
:1029100069200023646566696E652044454641551B
:102920004C545F4B702000504944204175746F74C3
:10293000756E652066696E697368656421205075DF
:102940007420746865206C617374204B702C204B6C
:102950006920616E64204B6420636F6E7374616ED6
:1029600074732066726F6D2062656C6F7720696E7C
:10297000746F20436F6E66696775726174696F6EFC
:102980002E680A00504944204175746F74756E6555
:10299000206661696C6564212074696D656F75746A
:1029A0000A00453120544845524D414C2052554E65
:1029B0004157415900546865726D616C2052756EC3
:1029C000617761790045312048656174696E6720DF
:1029D0006661696C65640048656174696E6720664C
:1029E00061696C656400504944204175746F747569
:1029F0006E65206661696C6564212054656D706543
:102A000072617475726520746F6F20686967680AF7
:102A100000204B643A2000204B693A2000204B7084
:102A20003A20000A20436C61737369632050494463
:102A3000200A002054753A2000204B753A200020CF
:102A40006D61783A2000206D696E3A200020643A6A
:102A5000200020626961733A20005049442041758A
:102A6000746F74756E652073746172740A005049D6
:102A700044204175746F74756E65206661696C657C
:102A800064212042616420657874727564657220E7
:102A90006E756D6265720A005A5F535445505F50FF
:102AA000494E005A5F4D53325F50494E005A5F4DB8
:102AB00053315F50494E005A5F4D494E5F50494E69
:102AC000005A5F4D41585F50494E005A5F454E4194
:102AD000424C455F50494E005A5F4449525F50494D
:102AE0004E0059325F535445505F50494E005932A1
:102AF0005F454E41424C455F50494E0059325F445C
:102B000049525F50494E00595F535445505F5049F8
:102B10004E00595F4D53325F50494E00595F4D533F
:102B2000315F50494E00595F4D494E5F50494E004C
:102B3000595F4D41585F50494E00595F454E4142E3
:102B40004C455F50494E00595F4449525F50494ED1
:102B50000058325F535445505F50494E0058325F21
:102B6000454E41424C455F50494E0058325F444902
:102B7000525F50494E00585F535445505F50494E84
:102B800000585F4D53325F50494E00585F4D5331EE
:102B90005F50494E00585F4D494E5F50494E0058B6
:102BA0005F4D41585F50494E00585F454E41424C81
:102BB000455F50494E00585F4449525F50494E00AE
:102BC00053535F50494E005350494E444C455F4C5F
:102BD000415345525F50574D5F50494E0053504945
:102BE0004E444C455F4C415345525F454E41424C2B
:102BF000455F50494E005350494E444C455F44494F
:102C0000525F50494E00534453530053445F444570
:102C1000544543545F50494E0053434B5F50494E17
:102C2000004D4F53495F50494E004D49534F5F503F
:102C3000494E004C45445F50494E004C43445F5060
:102C4000494E535F5253004C43445F50494E535FCB
:102C5000454E41424C45004C43445F50494E535F02
:102C60004437004C43445F50494E535F4436004C58
:102C700043445F50494E535F4435004C43445F50DA
:102C8000494E535F4434004B494C4C5F50494E0011
:102C90004845415445525F4245445F50494E0048C3
:102CA00045415445525F325F50494E0048454154BA
:102CB00045525F315F50494E004845415445525F8F
:102CC000305F50494E0046414E315F50494E0046FC
:102CD000414E5F50494E0045325F535445505F505E
:102CE000494E0045325F4D53325F50494E004532E8
:102CF0005F4D53315F50494E0045325F454E414272
:102D00004C455F50494E0045325F4449525F50493F
:102D10004E0045315F535445505F50494E00453198
:102D20005F4D53325F50494E0045315F4D53315F27
:102D300050494E0045315F454E41424C455F504938
:102D40004E0045315F4449525F50494E0045305F67
:102D5000535445505F50494E0045305F454E414207
:102D60004C455F50494E0045305F4449525F5049E1
:102D70004E0044494749504F5453535F50494E0009
:102D8000434153455F4C494748545F50494E0042C8
:102D9000544E5F454E430042544E5F454E32004212
:102DA000544E5F454E31004245455045525F5049B3
:102DB0004E004156525F53535F50494E00415652A8
:102DC0005F53434B5F50494E004156525F4D4F5346
:102DD000495F50494E004156525F4D49534F5F5035
:102DE000494E0054454D505F4245445F50494E00A6
:102DF00054454D505F315F50494E0054454D505F32
:102E0000305F50494E0046494C57494454485F5042
:102E1000494E00545844005258440050574D3A20EF
:102E2000202534640050574D3A202025346400504A
:102E3000574D3A20202534640050574D3A20202524
:102E400034640050574D3A20202534640050574DCB
:102E50003A20202534640050574D3A202025346410
:102E60000050574D3A20202534640050574D3A20E9
:102E7000202534640050574D3A20202534640050FA
:102E8000574D3A20202534640050574D3A202025D4
:102E900034640050574D3A20202534640050574D7B
:102EA0003A20202534640050574D3A2020253464C0
:102EB0000050574D3A202025346400496E707574D7
:102EC00020203D20004F7574707574203D20002037
:102ED000202000202020416E616C6F6720696E20E9
:102EE0003D2025356C64003C756E757365642F75E7
:102EF0006E6B6E6F776E3E0020284125326429206C
:102F000020002533642000257350494E3A200041AB
:102F10006E616C6F6720696E203D2025356C640002
:102F200070726F74656374656420002028412532D7
:102F300064292020002533642000257350494E3A2F
:102F40002000172E0001132E0101062E3900FB2D43
:102F50003600F02D3700E32D3800D62D3201C92D73
:102F60003301BD2D3401B22D3501A72D4F019F2D09
:102F70004C01972D4D018F2D4E01802D2E01722D6C
:102F80002601672D2C01592D16014D2D2001422DB2
:102F90002B01342D1A01292D41011E2D4201122D24
:102FA0002201072D2A01F92C1901EE2C3F01E32CF7
:102FB0004001D72C2101CF2C0801C62C0601B92CC9
:102FC0000901AC2C07019F2C0601902C0301872CD2
:102FD00050017B2C48016F2C4901632C4A01572C6E
:102FE0004B01472C47013B2C4601332C0D012A2C69
:102FF0003201212C3301192C34010B2C5101062CE8
:103000003501F62B0401DD2B0501C72B0201C02B76
:103010003501B62B3001A92B1D019F2B1801952BD3
:103020000C018B2B2801812B2901762B25016B2B81
:103030002B015D2B1A01512B2201472B31013A2B19
:103040001C01302B1701262B0B011C2B4501122BC9
:103050002701072B2401FC2A2A01EE2A1901E22A62
:103060002101D82A2F01CB2A1B01C12A1E01B72A10
:103070000A01AD2A4401A32A4301982A23012049C9
:103080006E76616C6964206578747275646572200F
:10309000007C3C3E5E2B3D3F2F5B5D3B2C2A225C3F
:1030A000001000AF00F03FAF004D6963726F7374A2
:1030B00065707320756E617661696C61626C650A1A
:1030C0000045323A200045313A20005A3A20005952
:1030D0003A2000583A20004D53312C4D53322050A5
:1030E000696E730A006265640A002C207379737438
:1030F000656D2073746F707065642120486561741C
:1031000065725F49443A2000453120486561746921
:103110006E67206661696C65640048656174696EFC
:1031200067206661696C6564004B494C4C45442ED0
:103130002000202D20496E76616C696420657874CA
:103140007275646572206E756D62657220210A0069
:103150004531204572723A204D415854454D50003A
:103160004D415854454D50207472696767657265CA
:1031700064004531204572723A204D494E54454D08
:1031800050004D494E54454D502074726967676533
:10319000726564000A0A00202059325F4D494E3A98
:1031A00000202058325F4D494E3A0020205A5F4D92
:1031B00041583A0020205A5F4D494E3A002020598C
:1031C0005F4D494E3A002020585F4D494E3A00204D
:1031D0002F0020403A005631204520434E432052D4
:1031E000656164792E005072696E74696E672E2E67
:1031F0002E005072696E74207061757365640050A2
:1032000072696E742061626F7274656400507269D5
:103210006E742066726F6D2053440053746F70207B
:103220007072696E74004E6F205344206361726443
:1032300000526573756D65207072696E740050611F
:10324000757365207072696E7400436F6E74726F6F
:103250006C00507265706172650054756E6500494E
:103260006E666F2073637265656E00466C6F7700E3
:10327000466C6F770046616E20737065656420321E
:103280000046616E20737065656420320046616E91
:1032900020737065656420320046616E207370652E
:1032A000656420310046616E20737065656420316D
:1032B0000046616E2073706565642031004E6F7A40
:1032C0007A6C65004E6F7A7A6C6500537065656440
:1032D000005370656564005370656564004D6169F5
:1032E0006E004D343238005072656865617420504C
:1032F0004C4100436F6F6C646F776E00507265686D
:10330000656174204142530044697361626C6520B9
:103310007374657070657273004D38340053657452
:1033200020686F6D65206F66667365747300417504
:10333000746F20686F6D6500473238004D6F766599
:103340002061786973004D61696E0056652D6A656C
:10335000726B0056652D6A65726B0056652D6A6545
:10336000726B00567A2D6A65726B00567A2D6A650B
:10337000726B0056792D6A65726B0056792D6A65FD
:10338000726B0056792D6A65726B0056782D6A65EE
:10339000726B0056782D6A65726B0056782D6A65DF
:1033A000726B004D6F74696F6E0045737465707356
:1033B0002F6D6D004573746570732F6D6D005A73BA
:1033C000746570732F6D6D005A73746570732F6D13
:1033D0006D005973746570732F6D6D00597374654A
:1033E00070732F6D6D005873746570732F6D6D0061
:1033F0005873746570732F6D6D004D6F74696F6EC7
:103400000053746570732F6D6D004A65726B0041D7
:103410006363656C65726174696F6E0056656C6F8D
:103420006369747900436F6E74726F6C0046696CE7
:103430002E204469612E0046696C2E204469612E5D
:10344000004F6666004F6E20004520696E206D6D4E
:103450003300436F6E74726F6C0043616E6E6F74F5
:1034600020656E746572207375626469723A20001B
:10347000022E2E004D61696E0043617264207265F8
:103480006D6F766564004361726420696E73657266
:103490007465640048617264636F646564204465A8
:1034A0006661756C742053657474696E6773204C23
:1034B0006F616465640A0090010000900100009053
:1034C000010000401F00000000F0420000F0420038
:1034D00000F0410000C8410000C8420000C842009E
:1034E00000C8430000C84243616E6E6F74206F7065
:1034F000656E2073756264697220006563686F3A57
:1035000000453120544845524D414C2052554E41C2
:1035100057415900546865726D616C2052756E6137
:103520007761790020746F6F206C6F6E672065780B
:1035300074727573696F6E2070726576656E7465EE
:10354000640A0020636F6C64206578747275736917
:103550006F6E2070726576656E7465640A004D6FDB
:1035600076652058004D6F76652059004D6F766561
:10357000205A004578747275646572004D6F7665E7
:1035800020302E316D6D004D6F766520316D6D00F0
:103590004D6F76652031306D6D004D6F7665206121
:1035A000786973004578747275646572004D6F7642
:1035B00065205A004D6F76652059004D6F76652065
:1035C00058004578747275646572004D6F76652099
:1035D0005A004D6F76652059004D6F766520580072
:1035E0005072657061726500526573746F72652008
:1035F0006661696C736166650046696C616D656ED4
:1036000074004D6F74696F6E0054656D7065726102
:1036100074757265004D61696E004572723A20756D
:1036200074663820666F6E74206E6F7420696E69E0
:103630007469616C697A65642E004572723A20750E
:1036400074663820666F6E74206E6F7420696E69C0
:103650007469616C697A65642E00000021002400A1
:1036600027002A002D003000330001010000040172
:1036700007010A0100002200250028002B002E006F
:103680003100340002010000050108010B010000B7
:1036900020002300260029002C002F00320000010A
:1036A00000000301060109010505050507050808D5
:1036B0000808020202020A0A0808040404040101BC
:1036C00001010101010103030303030303030407D1
:1036D00007070C0C0C0C0C0C0C0C02020202060668
:1036E0000606060606060B0B0B0B0B0B0B0B070750
:1036F0000A0A0A0A0A0A0505050404040808010260
:1037000010202008081020401020408002010201F3
:1037100008040201010204081020408080402010AB
:103720000804020180040201804020100804020104
:10373000080402010102040810204080010204086C
:1037400010204080100804088010204004408010A1
:103750002040048000000A0B02090C0D0E0807032C
:103760000401000000000000000000000000000054
:103770000000000000000000000000000000000049
:103780001211100000000000000000000000000006
:103790000000000000000000000000000000000029
:1037A00000000000000000000000486F6D6520254B
:1037B00073257325732066697273740020666972BD
:1037C00073740A005A0059005800486F6D65200054
:1037D0004F666673657473206170706C6965640010
:1037E0004572723A20546F6F206661722100546FE7
:1037F0006F206661722066726F6D207265666572F9
:10380000656E636520706F696E740A004361703A7B
:10381000006F6B00526573656E643A20004E414E36
:10382000494E495459494E46CDCCCC3D0AD7233C4C
:1038300017B7D13877CC2B329595E6241FB14F0AB4
:10384000000020410000C84200401C4620BCBE4C85
:10385000CA1B0E5AAEC59D7436D2D7C911241FBEDD
:10386000CFEFD1E2DEBFCDBF00E00CBF13E0A0E0A0
:10387000B2E0E6EDF3EC01E00BBF02C007900D9261
:10388000AE30B107D9F723E1AEE0B3E001C01D923D
:10389000A632B207E1F71CE1CDE2DCE100E006C0B0
:1038A00021970109802FFE010E9495D5CC32D107C6
:1038B00080E00807A9F70E9486CB0C94D9E10C940C
:1038C00000002F923F924F925F926F927F928F9261
:1038D0009F92AF92BF92CF92DF92EF92FF920F939F
:1038E0001F93CF93DF93CDB7DEB7C857D1090FB67B
:1038F000F894DEBF0FBECDBF2DB73EB7E9963FAF00
:103900002EAFE99700919F0C30E6039F80011124B0
:10391000015E144F8091910880FF07C08BEF94E304
:103920000E94DA3CC8010E9436440E9422C760937C
:103930003D0370933E0380933F03909340031092A6
:103940000D0E10920C0E8FE38093470310923B03F1
:1039500010923A03109228031092290310922A031E
:1039600010922B03C8018C01DC012C9101962032AE
:10397000D1F32E34D1F411968C9190ED980F9A30AA
:1039800020F08D3211F08B3281F40E5F1F4FF80161
:103990000F5F1F4F208120532A30C8F3CF018C01C5
:1039A0000196F80120812032D1F31093880300930F
:1039B00087037801FFEFEF1AFF0AD8017C906AE2D3
:1039C00070E0C7010E94EFD8009731F0FC013197F9
:1039D00080818032E1F31182BDE47B1631F0E4E5B1
:1039E0007E1619F0F7E47F12F8C0C701FC012081B0
:1039F00001962032D9F320532A3008F0EEC070929D
:103A0000470320913A0330913B034AE03196429FAD
:103A1000C001439F900D1124DF0111972C91022EBC
:103A2000000C330B20533109280F391F808180533C
:103A30008A3060F330933B0320933A03DF013196E1
:103A40008C918032D9F34DE4741689F040910C0EBC
:103A500050910D0EC0902803D0902903E0902A03C6
:103A6000F0902B03812C912C5401839448C02E316B
:103A7000310591F03CF42731310571F02C313105DD
:103A800029F70AC0253731050CF32737310524F013
:103A9000203A53E03507D1F6B0930D0EA0930C0EEB
:103AA0009CC06132F1F161546A3108F079C0CF01F4
:103AB000FC01708101967032D9F380ED870F8A3056
:103AC00008F04DC0CF01A62FB0E01401250104C0BD
:103AD000220C331C441C551C6A95D2F7C228D328EB
:103AE000E428F528009709F459C0801BA25FBC4F59
:103AF0008C93808181548A3108F05CC0DF01FD0124
:103B000031966C916111CDCF50930D0E40930C0EF8
:103B1000C0922803D0922903E0922A03F0922B034B
:103B20005CC08DE47812BFCF2032310509F0BBCFE5
:103B3000C0922803D0922903E0922A03F0922B032B
:103B4000F0930D0EE0930C0E63E270E0CF010E9443
:103B5000EFD8009709F441C0DC011C923EC07E32D0
:103B600011F481810DC07D3211F07B3269F48181C5
:103B700090ED980F9A3008F4A5CF8E3229F4828107
:103B800080538A3008F49ECF4115510511F00C94F2
:103B9000D933AF01415051090C94D93380E0A6CFFD
:103BA0004115510509F0A5CFAD01A3CF90ED980FB8
:103BB0009A3030F4BF0181918111F8CFCB0107C059
:103BC00093ED980F9230B0F38B32A1F3F7CFFC0155
:103BD000019660816032D9F391CF11E010933C03DC
:103BE000809147038D3411F40C94FC25843511F435
:103BF0000C94A733873411F00C94D23380913A039C
:103C000090913B038430910509F4D5C544F497FDA8
:103C1000EFC720912F028230910524F51EC08A350E
:103C2000910509F451C724F44C9709F4F3C5E0C792
:103C30008B35910509F44CC78C35910509F0D8C72F
:103C4000F4E52F2EF2E03F2EA1EFCA2EACE0DA2EE3
:103C5000E12CF12C00E010E078C721110C94DD3349
:103C60000C94D433222311F40C94D43311E0029732
:103C700009F010E00E94757F82E50E944438882395
:103C800009F45CC10E9483376B017C0140900E0BEC
:103C900050900F0B6090100B7090110B2091120B35
:103CA0003091130B4091140B5091150B23962CAFB0
:103CB0003DAF4EAF5FAF23978091000D9091010D06
:103CC000A091020DB091030D27968CAF9DAFAEAFC2
:103CD000BFAF27972091040D3091050D4091060D3F
:103CE0005091070D2B962CAF3DAF4EAF5FAF2B978A
:103CF00020E030E0A901C701B6010E94BFDD8823A2
:103D000009F44FC5A301920127966CAD7DAD8EAD30
:103D10009FAD27970E94BFDD811111C023962CAD66
:103D20003DAD4EAD5FAD23972B966CAD7DAD8EADA9
:103D30009FAD2B970E94BFDD882309F432C520E098
:103D400030E0A901C701B6010E94BFDD881F8827A6
:103D5000881F18130BC080E090E0A0E8BFE36B96CB
:103D60008CAF9DAFAEAFBFAF6B970AC020E030E025
:103D700040E85FEB6B962CAF3DAF4EAF5FAF6B97FC
:103D8000A301920127966CAD7DAD8EAD9FAD2797B7
:103D90000E94A5D563966CAF7DAF8EAF9FAF639742
:103DA00023962CAD3DAD4EAD5FAD23972B966CADFC
:103DB0007DAD8EAD9FAD2B970E94A5D567966CAF5C
:103DC0007DAF8EAF9FAF679763962CAD3DAD4EAD87
:103DD0005FAD6397CA01B9010E9425DE4B015C010A
:103DE00067962CAD3DAD4EAD5FAD6797CA01B90189
:103DF0000E9425DE9B01AC01C501B4010E94A6D53D
:103E00000E9454D82F966CAF7DAF8EAF9FAF2F9787
:103E100020E030E040E05FE30E9425DE4B015C01E2
:103E2000A7019601C701B6010E9425DE6B017C0146
:103E3000A5019401C501B4010E9425DE9B01AC01DE
:103E4000C701B6010E94A5D50E9454D89B01AC01C0
:103E50006B966CAD7DAD8EAD9FAD6B970E9425DEF0
:103E60004B015C0127962CAD3DAD4EAD5FAD279764
:103E7000C301B2010E94A6D520E030E040E05FE33C
:103E80000E9425DE6B017C0167966CAD7DAD8EAD29
:103E90009FAD679790582F962CAD3DAD4EAD5FAD61
:103EA0002F970E94A0D69B01AC01C501B4010E94CE
:103EB00025DE9B01AC01C701B6010E94A6D5A30176
:103EC00092010E94A5D56B017C012B962CAD3DADD6
:103ED0004EAD5FAD2B9723966CAD7DAD8EAD9FAD96
:103EE00023970E94A6D520E030E040E05FE30E94E7
:103EF00025DE2B013C012F962CAD3DAD4EAD5FADC7
:103F00002F9763966CAD7DAD8EAD9FAD63970E948C
:103F1000A0D69B01AC01C501B4010E9425DE9B0126
:103F2000AC01C301B2010E94A6D523962CAD3DADD4
:103F30004EAD5FAD23970E94A5D514C089E40E94C1
:103F40004438882329F00E9483376B017C0103C029
:103F5000C12CD12C76018AE40E9444388823F9F0E0
:103F60000E9483372B966CAF7DAF8EAF9FAF2B97A0
:103F700020E030E0A901C701B6010E94BFDD811138
:103F80001EC020E030E0A9012B966CAD7DAD8EAD5A
:103F90009FAD2B970E94BFDD811111C002C420E0AC
:103FA00030E0A901C701B6010E94BFDD882309F4F2
:103FB000F8C32B961CAE1DAE1EAE1FAE2B97D701BD
:103FC000C601B05823968CAF9DAFAEAFBFAF23975D
:103FD0002B962CAD3DAD4EAD5FAD2B97505827962F
:103FE0002CAF3DAF4EAF5FAF27979C01AD01BC0139
:103FF000CD010E9425DE4B015C0127962CAD3DAD25
:104000004EAD5FAD2797CA01B9010E9425DE9B0125
:10401000AC01C501B4010E94A6D50E9454D8A79650
:104020006CAF7DAF8EAF9FAFA79780910E0B909135
:104030000F0BA091100BB091110B2F968CAF9DAF71
:10404000AEAFBFAF2F97A7019601BC01CD010E9473
:10405000A6D56B966CAF7DAF8EAF9FAF6B9720915F
:10406000120B3091130B4091140B5091150B63966A
:104070002CAF3DAF4EAF5FAF63972B962CAD3DADF0
:104080004EAD5FAD2B9763966CAD7DAD8EAD9FADA4
:1040900063970E94A6D5AB966CAF7DAF8EAF9FAFF6
:1040A000AB978091000D9091010DA091020DB09100
:1040B000030D67968CAF9DAFAEAFBFAF67976B96A2
:1040C0002CAD3DAD4EAD5FAD6B97BC01CD010E94F7
:1040D000A5D56B017C012091040D3091050D409117
:1040E000060D5091070D6F962CAF3DAF4EAF5FAFF1
:1040F0006F97AB962CAD3DAD4EAD5FADAB976F9668
:104100006CAD7DAD8EAD9FAD6F970E94A5D54B0177
:104110005C018091160B9091170BA091180BB09138
:10412000190BA3968CAF9DAFAEAFBFAFA3979C0109
:10413000AD016091080D7091090D80910A0D90916B
:104140000B0D0E94A5D52B013C0120910C0D309147
:104150000D0D40910E0D50910F0DE3962CAF3DAF1C
:104160004EAF5FAFE39780911A0B90911B0BA0911C
:104170001C0BB0911D0BAF968CAF9DAFAEAFBFAF18
:10418000AF97A701960123966CAD7DAD8EAD9FAD27
:1041900023970E9425DEE7966CAF7DAF8EAF9FAF71
:1041A000E797A501940127966CAD7DAD8EAD9FADCF
:1041B00027970E9425DE9B01AC01E7966CAD7DAD93
:1041C0008EAD9FADE7970E94A6D5E7966CAF7DAF09
:1041D0008EAF9FAFE797A501940123966CAD7DAD9F
:1041E0008EAD9FAD23970E9425DE4B015C01A70198
:1041F000960127966CAD7DAD8EAD9FAD27970E9441
:1042000025DE9B01AC01C501B4010E94A5D5E7964E
:104210002CAD3DAD4EAD5FADE7970E9425D66B014D
:104220007C0120E030E0A9010E94BFDD87FF0AC0C9
:104230002BED3FE049EC50E4C701B6010E94A6D542
:104240006B017C01112351F02BED3FE049EC50E470
:10425000C701B6010E94A5D56B017C0120E030E0CA
:10426000A901C701B6010E94BFDD811128C0679670
:104270002CAD3DAD4EAD5FAD67972F966CAD7DAD6E
:104280008EAD9FAD2F970E94BFDD811118C06F9634
:104290002CAD3DAD4EAD5FAD6F9763966CAD7DAD12
:1042A0008EAD9FAD63970E94BFDD811108C00BEDFD
:1042B000C02E0FE0D02E09ECE02E00E4F02EA70176
:1042C0009601A7966CAD7DAD8EAD9FADA7970E9470
:1042D00025DE4B015C0120E030E0A901C301B20101
:1042E0000E94BFDD8823C9F0A5019401C501B40176
:1042F0000E9425DE4B015C01A3019201C301B201C2
:104300000E9425DE9B01AC01C501B4010E94A6D527
:104310000E9454D84B015C010DC020E030E0A9019F
:10432000C501B4010E9406D887FF04C0B7FAB09453
:10433000B7F8B0942FE632E143E85AE3C501B4017F
:104340000E94BFDD87FD21C22AE939E949E15EE328
:10435000C501B4010E94A0D60E9448D70E9419D777
:104360001B01672B19F422242394312CB10180E026
:1043700090E00E94C4DD4B015C019B01AC01C701D0
:10438000B6010E94A0D62F966CAF7DAF8EAF9FAFC7
:104390002F97A5019401C301B2010E94A0D6A79650
:1043A0006CAF7DAF8EAF9FAFA797AF962CAD3DADF5
:1043B0004EAD5FADAF97E3966CAD7DAD8EAD9FAD6D
:1043C000E3970E94A5D5A50194010E94A0D6E3968B
:1043D0006CAF7DAF8EAF9FAFE3972F962CAD3DAD09
:1043E0004EAD5FAD2F97CA01B9010E9425DE20E0D6
:1043F00030E040E05FE30E9425DE9B01AC0160E01D
:1044000070E080E89FE30E94A5D56F966CAF7DAF0A
:104410008EAF9FAF6F97A3962CAD3DAD4EAD5FAD08
:10442000A39729873A874B875C87AF968CAD9DAD64
:10443000AEADBFADAF978D879E87AF87B88B6091CC
:10444000340270913502072E000C880B990B0E94E4
:10445000C6DD20910D0230910E0240910F02509165
:1044600010020E9425DE2AE037ED43E25CE30E9461
:1044700025DE6BAF7CAF8DAF9EAF0E9422C79B0144
:10448000AC0128533F4F4F4F5F4FA3962CAF3DAF2A
:104490004EAF5FAFA3974FAC21965FAC21972296AA
:1044A0006FAC229723967FAC239741E050E065964E
:1044B0005FAF4EAF659759E160965FAF60976596C5
:1044C000EEADFFAD6597E215F30509F43EC10E941C
:1044D0004E910E9422C7DC01CB01A3962CAD3DADCD
:1044E0004EAD5FADA397821B930BA40BB50BB7FD2D
:1044F00010C00E9422C79B01AC0128533F4F4F4F71
:104500005F4FA3962CAF3DAF4EAF5FAFA3970E9416
:10451000833D60963FAD6097315060963FAF6097A6
:10452000332309F44BC06F962CAD3DAD4EAD5FAD5E
:104530006F9727966CAD7DAD8EAD9FAD27970E948E
:1045400025DE6B017C012F962CAD3DAD4EAD5FADF0
:104550002F97B201C3010E9425DEA70196010E9498
:10456000A6D57B018C016F962CAD3DAD4EAD5FADF8
:104570006F97B201C3010E9425DE4B015C012F96AB
:104580002CAD3DAD4EAD5FAD2F9727966CAD7DAD9B
:104590008EAD9FAD27970E9425DE9B01AC01C50122
:1045A000B4010E94A5D52B013C01C701D801279673
:1045B0008CAF9DAFAEAFBFAF279761C065964EADD4
:1045C0005FAD6597BA0180E090E00E94C4DD2F9650
:1045D0002CAD3DAD4EAD5FAD2F970E9425DE4B015A
:1045E0005C010E949BD66B017C01C501B4010E9455
:1045F00046D84B015C01A701960123966CAD7DADB9
:104600008EAD9FAD23970E9425DE2B013C01A501B5
:1046100094012B966CAD7DAD8EAD9FAD2B970E9416
:1046200025DE9B01AC01C301B2010E94A6D52B017E
:104630003C01A501940123966CAD7DAD8EAD9FAD7F
:1046400023970E9425DE4B015C01A70196012B9662
:104650006CAD7DAD8EAD9FAD2B970E9425DE9B018D
:10466000AC01C501B4010E94A5D527966CAF7DAF02
:104670008EAF9FAF279759E160965FAF6097920129
:10468000A3016B966CAD7DAD8EAD9FAD6B970E9417
:10469000A6D569837A838B839C8327962CAD3DAD09
:1046A0004EAD5FAD2797AB966CAD7DAD8EAD9FAD3A
:1046B000AB970E94A6D56D837E838F839887A7963C
:1046C0002CAD3DAD4EAD5FADA79769857A858B85E5
:1046D0009C850E94A6D569877A878B879C87E396FD
:1046E0002CAD3DAD4EAD5FADE3976D857E858F857D
:1046F00098890E94A6D56D877E878F87988BCE017B
:1047000001960E94875FE090D80C1C8E1D8E1E8E35
:104710001F8ECE014C966C018E01055C1F4F9E01D1
:10472000235F3F4FAE01475F5F4FBE016B5F7F4F1F
:104730004B970E947E496596AEADBFAD65971196C9
:104740006596BFAFAEAF6597BACEE090D80C1FAA02
:1047500018AE19AE1AAE9E01295C3F4F69018E0159
:10476000055C1F4F2CE03DE048E05DE064E07DE04B
:1047700080E09DE00E947E4980E1E0E0FDE0AEE067
:10478000BBE001900D928A95E1F70E9422C76093E9
:104790003D0370933E0380933F03909340030C943A
:1047A000D43388EC9CE00E94DA3C80E194E00E94E3
:1047B000DA3C0C94D43380E50E944438882329F0F5
:1047C0000E9473376B017C0103C0C12CD12C760190
:1047D00083E50E944438882361F00E94833720E0FB
:1047E00030E04AE754E40E9425DE0E9419D76B01AD
:1047F0007C010E947FB780918903811105C060E030
:1048000086E294E00E94A2A2C701B6010E94577FEF
:104810000C94D4330E947FB780910D0290910E02C8
:10482000A0910F02B0911002809343039093440330
:10483000A0934503B09346038091340290913502D2
:10484000909342038093410384E690E09093350275
:104850008093340210930F0F88E50E94B637282EFC
:1048600089E50E94B637082F8AE50E94B637382EB0
:10487000211005C0011105C011E0182705C0011164
:1048800002C010E001C0182F80E1EEE0FBE0A0E0E4
:10489000BDE001900D928A95E1F782E50E944438CF
:1048A000882369F00E9483376B017C0120E030E0AF
:1048B000A9010E94BFDD882309F4CBC006C0C12C2A
:1048C000D12CB0EAEB2EB0E4FB2E111105C0211063
:1048D00003C0002309F4CEC0C092080DD092090D88
:1048E000E0920A0DF0920B0D8090160B9090170B32
:1048F000A090180BB090190BA5019401C701B60147
:104900000E9406D818160CF0A4C08091120B90914A
:10491000130BA091140BB091150B23968CAF9DAF88
:10492000AEAFBFAF239720910E0B30910F0B40918C
:10493000100B5091110B27962CAF3DAF4EAF5FAFD0
:10494000279780910D0290910E02A0910F02B091D5
:1049500010022B968CAF9DAFAEAFBFAF2B97E3E3AA
:10496000FFE14590559065907490A7019601C501AF
:10497000B4010E94BFDD87FF12C040920D02509229
:104980000E0260920F0270921002C092160BD0922B
:10499000170BE092180BF092190B0E94C55F85E58A
:1049A00095E5A5E0B3E480930D0290930E02A093E9
:1049B0000F02B093100227962CAD3DAD4EAD5FAD0A
:1049C000279720930E0B30930F0B4093100B5093AF
:1049D000110B23968CAD9DADAEADBFAD23978093EB
:1049E000120B9093130BA093140BB093150B0E9412
:1049F000C55FA70196016091160B7091170B80910E
:104A0000180B9091190B0E9406D8181694F4409236
:104A10000D0250920E0260920F0270921002C0922C
:104A2000160BD092170BE092180BF092190B0E9404
:104A3000C55F2B962CAD3DAD4EAD5FAD2B97209352
:104A40000D0230930E0240930F02509310020E9409
:104A50007FB7111105C0211003C0011106C00AC0A3
:104A600080E00E9490601123C1F381E00E94906079
:104A7000111102C0332019F082E00E9490600E9460
:104A8000F15F80910E0F80930F0F809143039091FF
:104A90004403A0914503B091460380930D02909387
:104AA0000E02A0930F02B0931002809141039091E7
:104AB0004203909335028093340283E0809307028F
:104AC0000E9421620C94D433109239030C94D43395
:104AD000109339030C94D4330E9483372B013C018B
:104AE000133059F0F701EB51F34F208131814281AE
:104AF00053810E94A5D52B013C01F701E25FF44FE1
:104B00002081318142815381C301B2010E94A5D528
:104B10004B015C012DEB37E346E855EB0E9406D8CC
:104B200087FD1BC02DEB37E346E855E3C501B40113
:104B30000E94BFDD18168CF01F5FB4E0CB0ED11CB5
:104B4000E4E0EE0EF11C143039F1D1018D911D011C
:104B50000E944438882381F3BFCF133051F4409230
:104B60001A0B50921B0B60921C0B70921D0B01E0F4
:104B7000E3CFA5019401F601608171818281938167
:104B80000E94A6D5D6016D937D938D939C93139728
:104B9000812F0E94475FD0CF002331F120919E08E2
:104BA00030919F084091A0085091A10860911A0B84
:104BB00070911B0B80911C0B90911D0B0E9425DEA8
:104BC0000E9413D860930A0F70930B0F80930C0F01
:104BD00090930D0F1092FA0E1092FB0E1092FC0E95
:104BE0001092FD0E0E944BAA0E9421620C94D433B5
:104BF0000E94454B0C94D43380913A0390913B032F
:104C00008037910509F449C70CF0E5C08032910561
:104C100009F41EC40CF05BC08631910509F4ABC2E7
:104C200094F58530910509F46DC25CF483309105EB
:104C300009F45EC20CF061C2029708F4E1C10C9461
:104C4000A4338231910509F4C5C78CF4419711F062
:104C50000C94A43360E082E494E00E94A2A217982E
:104C6000149816981398159810980C94D43384318E
:104C7000910509F457C2459711F00C94A4330E9492
:104C80006F480C94D4338B31910509F49DC27CF4A8
:104C90008831910509F479C20CF473C28931910508
:104CA00009F47EC24A9709F481C20C94A4338D3171
:104CB000910511F40C94D4330CF4DDC28E319105BE
:104CC00009F4E3C24F9709F40FC40C94A43385355B
:104CD000910509F4B4C70CF04BC08D34910509F46B
:104CE00044C6BCF48B32910509F4FFC42CF48A97B6
:104CF00009F4B4C40C94A4338B34910509F432C67E
:104D00008C34910511F00C94A4330E942AA10C94C8
:104D1000D4338235910509F456C704F581359105E0
:104D200011F00C94A4330E94DC8E0E947FB70E9485
:104D3000443C1092BF0C1092BE0C1092C10C109209
:104D4000C00C68EE73E080E090E00E941E3C60E0E2
:104D500085EC95E00E94A2A20C94D4338335910592
:104D600009F434C78435910509F434C70C94A4338D
:104D70008B36910509F411C7F4F48836910509F4CE
:104D8000F7C57CF48C35910511F00C94A43318E52B
:104D9000C12E12E0D12E02E9E02E08E0F02E10E044
:104DA00067C78936910509F49DC68A36910509F4CD
:104DB000CFC60C94A4338D36910509F4FCC50CF4D0
:104DC00069C68E36910509F40CC68F36910509F433
:104DD00019C60C94A433823E910511F40C9435321B
:104DE0000CF07CC08B39910509F48DC694F586379B
:104DF000910511F40C94112FC4F48237910509F434
:104E0000B6C70CF44EC68337910509F4B5C785378C
:104E1000910511F00C94A43360E080910C0E9091F8
:104E20000D0E0E94C1A20C94D4338837910511F461
:104E30000C949A2F14F40C94472F8937910511F490
:104E40000C94A02F8139910511F40C94A52F0C948A
:104E5000A4338D3C910511F40C94A630DCF4893C0C
:104E6000910511F40C94F32F4CF4883C910511F04A
:104E70000C94A4330E94FD370C94D4338B3C9105E1
:104E800011F40C9414308C3C910511F40C943130D5
:104E90000C94A433833D910511F40C94703184F487
:104EA0008E3C910511F00C94A43340E6C42E42E0F0
:104EB000D42E52E0E52E5BE0F52E10E00C94193173
:104EC0008C3D910511F40C9428328D3D910511F023
:104ED0000C94A4330E94A2420C94D4338C3AF1E097
:104EE0009F0711F40C94A1320CF041C08E3531E0D3
:104EF000930711F40C94FD32ECF48D3251E09507D8
:104F000011F40C9457323CF48C32914011F40C940F
:104F100038320C94A4338E32E1E09E0711F40C94E5
:104F20005A328F32914011F00C94A4330E94CC7805
:104F30000C94D433833621E0920711F40C94863319
:104F40003CF48F35914011F40C9432330C94A4331B
:104F5000803951E0950711F40C949E328A399140C2
:104F600011F00C94A4330E94503C0C94D4338A3931
:104F7000B2E09B0711F40C942B311CF5853FF1E056
:104F80009F0711F40C94A4327CF4843F914011F0FB
:104F90000C94A43388EC9CE00E94DA3C8AE898E008
:104FA0000E94DA3C0C94D433863F41E0940711F41C
:104FB0000C94AA32873F914011F40C94AD320C94BA
:104FC000A4338C38A3E09A0711F40C94E33264F410
:104FD0008B38934011F00C94A43334E6E32E32E086
:104FE000F32E10E00C94BC32803AF3E09F0709F4F2
:104FF0006EC2873E934011F40C948F330C94A4330B
:10500000A0900C0EB0900D0E80E50E9444388823CD
:1050100059F00E9473376B017C0111E0672B682BFC
:10502000692B31F410E004C010E0C12CD12C7601C2
:1050300083E50E944438882311F40C94AA340E941A
:10504000833720E030E04AE754E40E9425DE0E94E6
:1050500019D76B017C0111110BC0672B682B692BD1
:1050600039F4A114B10421F0D5018C91811102C051
:1050700010E001C011E00E947FB7112329F061E028
:10508000C5010E94C1A205C060E08FE294E00E94C9
:10509000A2A283E080933C0381E08093CE0EC114F2
:1050A000D104E104F104E9F00E9422C7C60ED71E24
:1050B000E81EF91E0E9422C7DC01CB018C199D0954
:1050C000AE09BF09B7FD06C00E94C0961092CE0E71
:1050D0000C94D4338091CE0E8823B1F30E94833D8B
:1050E000E9CF8091CE0E882379F30E94833DF9CFDA
:1050F00081E00E942F800C94D43380E00E942F80A6
:105100000C94D4330E947FB7739A60E070E082E021
:105110000E9400C661E070E080E090E00E94577F4E
:105120000C94D4338AE594E00E94DA3C1092BA11D0
:1051300040E050E0BA018BE99FE00E9476858BE168
:10514000EBE9FFE0DE01119601900D928A95E1F7FF
:1051500040E050E0BE016F5F7F4F80E090E00E9432
:105160007AA8CE0101960E94C23C8BE494E00E9492
:10517000DA3C0C94D43310926E0F10926F0F0C9493
:10518000D4330E94C97C0C94D43380916F0F882350
:1051900019F081E080936E0F0E94F0A00C94D4333C
:1051A00010926E0F0E942AA10C94D43380916F0F3D
:1051B000882311F40C94D43383E50E944438811180
:1051C0000C94AF340C94D43383E40E94B637882314
:1051D00019F185E794E00E94DA3C80910811882358
:1051E00091F0BE016F5F7F4F85E091E10E945F8685
:1051F0008E010F5F1F4FF80181918F01882339F0D5
:105200000E94C83CF8CF8BE694E00E94DA3C8AE02A
:105210000E94C83C0C94D43380916F0F882329F1ED
:1052200080916E0F882309F184E894E00E94DA3CB3
:105230006091B6117091B7118091B8119091B91128
:105240004AE00E9433408FE20E94C83C6091B21154
:105250007091B3118091B4119091B5114AE00E9400
:1052600033400E9430440C94D43386E994E00E9489
:10527000DA3C0C94D43340E060E080910C0E9091C5
:105280000D0E0E94B0460C94D43380916F0F88238A
:1052900011F40C94D43385E091E10E94338585E0CC
:1052A00091E10E94AF8610926D0F10926C0FE0900A
:1052B0000C0EF0900D0E80916F0F882311F40C945A
:1052C000D4330E94A5461C8E1F8E8BE99FE09093DD
:1052D000B70F8093B60FD7018C918F3209F058C069
:1052E0006FE270E0C7010E94EFD88C010F5F1F4F83
:1052F0004E01BCE18B0E911C0115110509F44EC045
:105300006FE270E0C8010E94EFD86C01009709F4C9
:1053100046C00817190708F042C05C01A01AB10A7C
:10532000A501B801CE0101960E9418D9E1E0F0E094
:10533000EC0FFD1FEA0DFB1D1082CE0101960E94AD
:1053400036446091B60F7091B70F21E0AE014F5F08
:105350005F4FC4010E94FC8B811112C0BE016F5FC0
:105360007F4F8DEC94E00E94093D8EE20E94C83C84
:105370008AE00E94C83CC4010E94C23C0C94D43311
:105380009092B70F8092B60F86010F5F1F4FB4CF78
:1053900088EB9FE09093B70F8093B60F87016091E1
:1053A000B60F7091B70F19821C8222E0A801CE01BE
:1053B00001960E94FC8B811102C0F12C1EC0CE010F
:1053C00001960E94E8A78823C1F36D857E858F85AD
:1053D000988941E00E94EB74882379F3E98920E2FF
:1053E000E29FF0011124EE55F74F309731F385EE2F
:1053F00080831C820E94AB74F82ECE0101960E941D
:10540000C23CFF2081F08FEB94E00E94DA3CC8019F
:105410000E9436441092B6111092B7111092B81132
:105420001092B9110FC087EA94E00E94DA3CD801CB
:105430008D918D01882319F00E94C83CF8CF8EE22F
:105440000E94C83CCE014C960E94C23C0C94D433BE
:1054500080916E0F81110E947FB780916F0F88231A
:1054600011F40C94D43380E50E944438882319F059
:105470000E94633703C080E50E94B637182F482F7B
:1054800061E080910C0E90910D0E0E94B04683E574
:105490000E944438882381F00E943F37AB01BC0151
:1054A0004093B6115093B7116093B8117093B9112E
:1054B00085E091E10E94768580916F0F882319F035
:1054C00081E080936E0F11110C94D43365CE8091DE
:1054D0000C0E90910D0E21E020936D0F40E060E0E6
:1054E0000E94B0460C94D4330E94BCA0ECE3CE2EB4
:1054F000D12CE12CF12CA70196010E949DE1B62E42
:10550000A72ECA01B901A70196010E949DE16B0176
:105510007C01CA01B90128E130E040E050E00E947E
:105520009DE12B013C01C9016DE671E00E944ED561
:105530008E010F5F1F4F61157105D9F0AF92BF92B9
:10554000DF92CF925F924F929F938F937F936F934F
:1055500089E095E09F938F931F930F930E9456DDF0
:10556000EDB7FEB73E960FB6F894FEBF0FBEEDBF87
:1055700063C00097D1F0AF92BF92DF92CF925F925B
:105580004F929F938F9389EF94E09F938F931F93F4
:105590000F930E9456DD2DB73EB7245F3F4F0FB6E5
:1055A000F8943EBF0FBE2DBF47C0411451046104A3
:1055B0007104C1F0AF92BF92DF92CF925F924F928F
:1055C0008DEE94E09F938F931F930F930E9456DD6F
:1055D0004DB75EB7465F5F4F0FB6F8945EBF0FBE24
:1055E0004DBF2AC0C114D104E104F104A9F0AF9267
:1055F000BF92DF92CF9285EE94E09F938F931F939B
:105600000F930E9456DD8DB79EB708960FB6F8949B
:105610009EBF0FBE8DBF10C0AF92BF9281EE94E0CF
:105620009F938F931F930F930E9456DD0F900F90BF
:105630000F900F900F900F9060E0C8010E94C1A2E0
:105640008BEF94E30E94DA3CB8018DE195E00E9473
:10565000093D8AE00E94C83C0C94D43383E50E9443
:105660004438882311F40C94D4330E944F37E82E29
:1056700080E50E944438882339F00E943F378B012F
:1056800077FF04C00C94D4330DE010E0802F0E940B
:105690009A3C882351F088EC9CE00E94DA3C8AE234
:1056A00095E00E94DA3C0C94D43361E0802F0E9494
:1056B000C4C56E2D802F0E9494C5F12CB701802F98
:1056C0000E9400C696E0091751F0A8E00A130C9456
:1056D000D433F092BF0CE092BE0C0C94D433F09211
:1056E000C10CE092C00C0C94D43384E50E94B63710
:1056F000882309F462C089E40E944438882319F0A1
:105700000E94633703C089E40E94B637082F82E500
:105710000E944438882321F00E943F377B0103C058
:10572000EE24E394F12C83E50E944438882321F091
:105730000E943F37162F01C010E085E40E944438D4
:10574000882321F00E943F376B0103C061E5C62E1C
:10575000D12C87E50E944438882319F00E943F37F6
:1057600002C064EF71E02B01770F66087708812F84
:1057700090E0C816D906DCF01235B8F401110C948B
:10578000C034812F0E949A3C882311F40C94C034B9
:105790002FEB32E041E060E0812F0E94FC808AE044
:1057A0000E94C83C8AE00E94C83C1F5FE0CF89E3AA
:1057B00095E00E94DA3C0C94D43385E40E94B6371D
:1057C0008823C1F00E9463378093820E8EE695E0B5
:1057D0000E94DA3C8091820E811103C080E695E040
:1057E00002C084E695E00E94DA3C87E695E00E94DC
:1057F000DA3CDAC783E50E94B637882349F088ECA3
:105800009CE00E94DA3C80E495E00E94DA3CCCC740
:1058100080E50E944438882321F00E943F378B01A5
:1058200002C000E010E0F02E80E50E9444388111B3
:1058300007C0E1E5E01708F4B7C751E5652E01C0E0
:10584000602E89E40E944438882319F00E9463374F
:1058500003C089E40E94B637782E87E50E94443859
:10586000882319F00E94633703C087E50E94B6378A
:10587000882309F474C0ADB6BEB681E595E00E94F8
:10588000DA3C1127862D90E0801B910B01962DB7F5
:105890003EB7281B390B0FB6F8943EBF0FBE2DBF85
:1058A0004DB75EB74F5F5F4F6A01EF2C6E1478F013
:1058B00051E55E1550F08E2D0E949A3C882311F41C
:1058C0000C94EE3471100C94EE34E394EFCF81E03D
:1058D0008093CE0E83E080933C03EF2C6E1418F17E
:1058E00081E58E15F0F08E2D0E949A3C882311F0F0
:1058F0007720B9F08E2D0E946BC5582E8E2C912CDE
:10590000801A910A8C0C9D1CD4018C91581649F078
:1059100024ED32E040E0672D8E2D0E94FC80D40102
:105920005C92E394DBCF8091CE0E811106C00FB65E
:10593000F894BEBE0FBEADBE37C768EC70E080E025
:1059400090E00E941E3CC9CFB1E5BF1538F024EDB0
:1059500032E041E0672D8F2D0E94FC80F3946F149C
:1059600098F722C70E94F0A01FC70E943FA11CC742
:105970000E94FA7F811118C78091910883FD14C796
:1059800083E50E944438882399F00E9483370E945F
:1059900012D78B0170938B0E60938A0E80E00E9469
:1059A000918E0635110524F40E943FA10E94C096F5
:1059B0000E94F1D1F9C60E94FA7F8111F5C680914B
:1059C000910883FDF1C683E50E9444388FAF8111B1
:1059D0000C94053582E50E94443881110C940535FC
:1059E000E3C68EE40E944438882309F4DDC60E9491
:1059F0003F376093060E7093070E8093080E9093C6
:105A0000090ED2C683E50E94B637882359F083E594
:105A10000E944438882319F00E944F3701C080E06B
:105A2000809391088BEF94E30E94DA3C8BEA95E037
:105A30000E94DA3C80919108882349F121EAE22E04
:105A400025E0F22E00E010E020E08091910890E047
:105A5000002E02C0959587950A94E2F780FF0EC04C
:105A6000DD24D394D20E222319F08CE20E94C83C8C
:105A7000F701859194910E94DA3C2D2D0F5F1F4F05
:105A800032E0E30EF11C05301105F9F6C0CB8DE9CB
:105A900095E0BBCB10920C0287C682EB95E00E948A
:105AA000283D83E50E944438882359F00E944F37EF
:105AB000809300028D3308F477C68CE38093000254
:105AC00073C68BEF94E30E94DA3C4091000250E0F1
:105AD00060E070E08BEB95E00E949B408AE00E94C2
