:100000000C94441C0C94751C0C94751C0C94751C5D
:100010000C94751C0C94751C0C94751C0C94751C1C
:100020000C94751C0C94751C0C94751C0C94751C0C
:100030000C94751C0C94751C0C94751C0C94751CFC
:100040000C94751C0C946A760C94751C0C94751C9D
:100050000C94751C0C94751C0C946B970C9402C832
:100060000C94751C0C94C6420C94751C0C94751C55
:100070000C94751C0C94751C0C94751C0C94751CBC
:100080000C94751C0C94751C0C94751C0C94751CAC
:100090000C94751C0C94751C0C94751C0C94751C9C
:1000A0000C94751C0C94751C0C94751C0C94751C8C
:1000B0000C94751C0C94751C0C94751C0C94751C7C
:1000C0000C94751C0C94751C0C94751C0C94751C6C
:1000D0000C94751C0C94751C0C94751C0C94751C5C
:1000E0000C94751C045707570B570E5711573B5765
:1000F000155718571C571F572257265729572C5743
:100100003B573057335736574D596C598B59AE5969
:10011000D159705BF459155A365A595A7C5A9F5A1C
:10012000C25AE55A705B085B2B5B4D5BDFC5E2C5CD
:10013000D1C5D5C5DBC519C6E6C5EAC5F0C5F4C548
:10014000F8C5FEC502C606C619C60CC610C614C63A
:10015000FDC602C707C711C71BC794C725C72DC750
:1001600035C73FC749C753C762C76CC794C776C76F
:1001700080C78AC7084AD73B3BCE016E84BCBFFD0F
:10018000C12F3D6C74319ABD56833DDA3D00C77F67
:1001900011BED9E4BB4C3E916BAAAABE0000008000
:1001A0003F05A84CCDB2D44EB93836A9020C50B98F
:1001B000918688083CA6AAAA2ABE000000803F00BB
:1001C0000C94D3B00C94D6B00C9458870C9480C780
:1001D0000C94F75E0C94595A0C94FEC50C94B78C91
:1001E0000C940CC60C94677E0C941F570C94F8C5A5
:1001F0000C9476C70C942DC70C9415570C94ACD363
:100200000C9476640C9453C70C9449C70C948AC719
:100210000C9430570C94434D0C949F5A0C94EABFA5
:100220000C9406C60C947C5A0C94F4C50C94C25FD2
:100230000C94D84E0C94F0C50C94DFC50C9419C6E0
:100240000C9411570C94DBC50C94F45E0C940DA324
:100250000C94DC5B0C9404570C9435C70C94225717
:100260000C9407570C94FA5E0C944D5B0C94E55A71
:100270000C942D890C94FE5D0C94844C0C942B5B97
:100280000C944D590C94BC8C0C9426570C9410C6AD
:100290000C946A870C9467870C94085B0C947A54CE
:1002A0000C94EAC50C9402C70C9418570C94005E89
:1002B0000C942F9A0C9425C70C94C55B0C94F1C92F
:1002C0000C9433570C941BC70C94819B0C94A4631F
:1002D0000C946CC70C946DBE0C945F500C94AE5B88
:1002E0000C94AF850C94D64E0C9490510C9414C67B
:1002F0000C9402C60C942E9A0C941C570C94D1C5E5
:100300000C94DB690C94F4590C9429570C94628773
:100310000C9478850C94705B0C946CB10C940E5713
:100320000C94D47E0C94AE590C941F7E0C94E6C5AC
:100330000C94F7850C94FDC60C9411C70C94365799
:100340000C949C510C9407C70C94D1590C948B5964
:100350000C946C590C94BA4B0C9480640C94A04F80
:100360000C94E2C50C942C530C942C570C9462C73B
:100370000C943B570C94365A0C947B640C9452BDED
:100380000C94AB7E0C943FC70C9494C70C94925180
:100390000C94155A0C94C25A0C94CC4E0C94B585FE
:1003A0000C94BB850C940B570C94D5C50C945D87AD
:1003B000434F4D4D554E49434154494F4E004452D1
:1003C0005952554E004552524F525300494E464FD6
:1003D000004543484F0020746F6F206C6F6E67209C
:1003E000657874727573696F6E2070726576656E6C
:1003F0007465640A0020636F6C642065787472759C
:1004000073696F6E2070726576656E7465640A003C
:1004100047322F47332062616420706172616D65DD
:10042000746572730A00536C6565702E2E2E00433E
:100430006C69636B20746F20726573756D652E2E09
:100440002E004E6F206D6F76652E00456E6420661F
:10045000696C65206C6973740A00426567696E2077
:1004600066696C65206C6973740A0044656C657418
:10047000696F6E206661696C65642C2046696C65E5
:100480003A200046696C652064656C657465643A61
:10049000006F70656E206661696C65642C2046692A
:1004A0006C653A20002569730025696D2025697304
:1004B000002569682025696D202569730025696418
:1004C000202569682025696D2025697300256979D3
:1004D00020256964202569682025696D20256973B8
:1004E000005072696E742074696D653A2000507214
:1004F0006F7465637465642050696E0A00446F6EA2
:10050000652E0A00534552564F206E6F7420736556
:100510007475700A005761746368696E672070694A
:100520006E730A0064697300656E0061626C6564D5
:100530000A00656E6473746F70206D6F6E69746FFE
:1005400072200020573A004520436F6F6C696E6738
:100550002E2E2E00452048656174696E672E2E2E62
:10056000006F666600D103CC03C503BE03B003442D
:10057000454255473A004B494C4C45442E20004DCE
:100580003131332053006F6B005631204520434EEC
:1005900043204F66662E00544845524D414C5F50F3
:1005A000524F54454354494F4E004155544F5245C4
:1005B000504F52545F53445F535441545553004578
:1005C0004D455247454E43595F50415253455200A5
:1005D000434153455F4C494748545F42524947485D
:1005E000544E45535300544F47474C455F4C494781
:1005F00048545300534F4654574152455F504F574C
:100600004552004255494C445F50455243454E5473
:10061000004C4556454C494E475F44415441005AB1
:100620005F50524F4245004155544F4C4556454C42
:10063000005052494E545F4A4F420050524F475269
:10064000455353004155544F5245504F52545F54F7
:10065000454D5000564F4C554D4554524943004569
:100660004550524F4D0053455249414C5F584F4EF3
:100670005F584F4646004649524D574152455F4EDE
:10068000414D453A4D61726C696E206275676669CD
:10069000782D322E302E78202847697468756229AB
:1006A00020534F555243455F434F44455F55524C8D
:1006B0003A68747470733A2F2F6769746875622E84
:1006C000636F6D2F4D61726C696E4669726D7761F3
:1006D00072652F4D61726C696E2050524F544F43BA
:1006E0004F4C5F56455253494F4E3A312E30204DB4
:1006F000414348494E455F545950453A563120458B
:1007000020434E432045585452554445525F434F71
:10071000554E543A3120555549443A636564653223
:100720006132662D343161322D343734382D3962DF
:1007300031322D6335356336326633363766660AB5
:10074000002F2F20007A5F6D61783A20007A5F6D6C
:10075000696E3A200079325F6D696E3A2000795FE8
:100760006D696E3A200078325F6D696E3A200078CC
:100770005F6D696E3A20005265706F7274696E67C2
:1007800020656E6473746F70207374617475730A7E
:10079000002059002058004475616C20456E647338
:1007A000746F702041646A7573746D656E7420286F
:1007B0006D6D293A20004F6666004F6E2000205A6A
:1007C00000205900580020204D61783A2000205A1E
:1007D00000205900580020204D696E3A2000536FC8
:1007E000667420656E6473746F70733A20002046DF
:1007F0006C6F773A200043290A0061626C656420BF
:10080000286D696E2074656D702000436F6C6420E4
:100810006578747275646573206172652000486F35
:100820006D652025732573257320666972737400C6
:100830002066697273740A005A0059005800486FA4
:100840006D6520004F666673657473206170706C0F
:10085000696564004572723A20546F6F2066617258
:100860002100546F6F206661722066726F6D207276
:1008700065666572656E636520706F696E740A00E7
:10088000454550524F4D2064697361626C65640A3E
:10089000004E6F2063617365206C696768740A009D
:1008A0004163746976652045787472756465723A3F
:1008B0002000496E76616C69642065787472756495
:1008C00065720A0025301D0C182829FF24311C0BE5
:1008D000174527FF232F1B0A1E4443FFFFFFFF037B
:1008E0000806FFFF202C16FFFFFF033809FF362202
:1008F0002B1AFF212A19FF0001627573793A2070C3
:10090000617573656420666F7220696E7075740A14
:1009100000627573793A2070617573656420666F43
:100920007220757365720A00627573793A2070726D
:100930006F63657373696E670A004B494C4C45449D
:100940002E20004B494C4C20636175736564206216
:1009500079204B494C4C20627574746F6E2F70690E
:100960006E0A004B494C4C45442E20004B494C4CE0
:100970002063617573656420627920746F6F206DE8
:1009800075636820696E6163746976652074696D4A
:1009900065202D2063757272656E7420636F6D6DB6
:1009A000616E643A2000506C6561736520726573F6
:1009B0006574005052494E5445522048414C5445AC
:1009C00044005072696E7465722068616C7465646D
:1009D0002E206B696C6C28292063616C6C65642126
:1009E0000A00205400205200416363656C65726107
:1009F00074696F6E3A20500020643A0020693A0012
:100A000020703A00496E76616C6964206578747272
:100A1000756465720A00656E7175657565696E67E6
:100A20002022004D3234004D323320257300556EA4
:100A30006B6E6F776E20636F6D6D616E643A20220E
:100A40000053442063617264206F6B0A006F70650D
:100A50006E526F6F74206661696C65640A00766F10
:100A60006C756D652E696E6974206661696C65646C
:100A70000A00534420696E6974206661696C0A003B
:100A800057726974696E6720746F2066696C653A85
:100A900020006F70656E206661696C65642C20466D
:100AA000696C653A20006F70656E206661696C65DF
:100AB000642C2046696C653A200046696C65207399
:100AC000656C65637465640A002053697A653A2031
:100AD0000046696C65206F70656E65643A20006F32
:100AE00070656E206661696C65642C2046696C6572
:100AF0003A2000667265736800646F696E67002053
:100B000066696C653A20004E6F772000454E4420A0
:100B1000535542524F5554494E450A002220706F9A
:100B200073002220706172656E743A220053554240
:100B3000524F5554494E452043414C4C20746172EC
:100B40006765743A22004B494C4C45442E20007492
:100B50007279696E6720746F2063616C6C207375A5
:100B6000622D67636F64652066696C6573207769C1
:100B7000746820746F6F206D616E79206C65766586
:100B80006C732E204D4158206C6576656C2069731E
:100B90003A004572726F723A000001FFFFFFFFFFDB
:100BA000FFFFFFFFC183FFC0000007FFFFFFFFFF44
:100BB000FFFFFFFF87E1FFE000000FFFFFFFFFFFE8
:100BC000FFFFFFFF0FF07FF000000E0000000000AD
:100BD000000000001FFC3FF000001C0000000000AF
:100BE000000000003FFE003800001C000000000074
:100BF000000000007FFF803800001C0000000000A3
:100C000000000001FF1FC03800001C3C0000780FEE
:100C100080000003FE0FC03800001C3C0000783F3D
:100C20008000000FFC07C03800001C3C0000F8FFEB
:100C30008000001FFC0FC03800001C3E0000F8FFC1
:100C40008000007FF80F803800001C1E0000F0F7C5
:100C5000800001FFF81F803800001C1F0001F00712
:100C6000800007FFF01F803800001C1F0001E00714
:100C700080001FFFF03F803800001C0F0003E007DA
:100C800080007FFFE07F803800001C0F8003E007BA
:100C90008003FFFFC07F803800001C078003C0076F
:100CA000801FFFFE00FF803800001C078007C00780
:100CB000803FFFF800FF803800001C07C007800756
:100CC000807FFFE001FF003800001C03C0078007A1
:100CD000807FFFE001FF003800001C03E00F800769
:100CE000807FFFC000FF003800001C01E00F0007FC
:100CF0008078000000FF003800001C01E01F0007A2
:100D00008078000000FF003800001C01F01E000782
:100D10008078000000FF003800001C00F01E000773
:100D20008078000000FF003800001C00F83E00073B
:100D30008078000000FF003800001C00F83C00072D
:100D4000807FFFC000FF003800001C00787C000797
:100D5000807FFFE001FF003800001C007C7C000762
:100D6000807FFFE001FF003800001C003C78000796
:100D7000807FFFF001FF003800001C003EF80007F4
:100D8000803FFFFC00FF803800001C003EF00007A1
:100D90008007FFFFC07F803800001C001FF00007A5
:100DA0008000FFFFE07F803800001C001FF000077C
:100DB00080001FFFE03F803800001C000FE00007AC
:100DC000800007FFF03F803800001C000FE00007A4
:100DD000800001FFF81F803800001C000FC00007D2
:100DE0008000007FF80F803800001C0007C000075B
:100DF0008000003FFC0FC03800001C0007C0000747
:100E00008000000FFC07C03800001C0003800007B2
:100E100080000007FE07C03800001C0003800003AC
:100E200000000001FE0FC03800001C0000000000A0
:100E300000000000FF3F803800001C0000000000A0
:100E4000000000007FFF003800000E0000000000DE
:100E5000000000001FFC007800000FFFFFFFFFFFF5
:100E6000FFFFFFFF0FF03FF8000007FFFFFFFFFF4E
:100E7000FFFFFFFF87E0FFF0000003FFFFFFFFFF22
:100E8000FFFFFFFFC383FFE0000000000000000041
:100E90000000000000000000000000000000000052
:100EA0000000000000000000000000000000000042
:100EB0000000000000000000000000000000000032
:100EC000000000000000000000000FF40307C280D3
:100ED00067F9FF3E0A0183E000001FF6031FE6C02A
:100EE0006FFBFF7F1B018FF000001807033876E0CF
:100EF0006C0300631B819C1800001807833006F008
:100F00006C0300619BC1980000001807C36006F8DD
:100F10006C0300619BE1B00000001806E36006DC92
:100F20006C0300639B71B00000001FE67361E6CEA6
:100F30006FF3FC7F1B39B0F0000018063B61F6C769
:100F40006C03007E1B1DB0F8000018061F6036C33E
:100F5000EC0300671B0FB018000018060F3036C1F5
:100F6000EC0300639B07981800001806071876C06A
:100F7000EC0300619B038C3800001FF6030FE6C0F2
:100F80006FFBFE60DB0187F000000FF60107C6C0B3
:100F900027F9FE60DB0083E0001FFFFFFFFFFFFF7C
:100FA000600000000001FF400000000000FF800022
:100FB000000000007F83CF00000C303F87FF8000DF
:100FC0000C301F867980000C000F8C30C7838C306A
:100FD000E78C30CFC7CC31F38C30DCECEC33B98C00
:100FE00030D86C6C33198C30D06C0C33198C30D8F1
:100FF0006C0C33198C30DC6C0E3B198C30CF7C07B9
:101000009F198C30C77C038F19400000000000023C
:10101000600000000000061FFFFFFFFFFFF8202018
:10102000506C616E6E657242756666657242797467
:1010300065733A20002046726565204D656D6F72BC
:10104000793A2000436F6D70696C65643A204D6198
:101050007920313420323031380A00207C2041752B
:1010600074686F723A20286E6F6E652C2064656616
:1010700061756C7420636F6E666967290A0032308F
:1010800031382D30312D323000204C6173742055B1
:101090007064617465643A20006275676669782DD2
:1010A000322E302E780A004D61726C696E0020532A
:1010B0006F6674776172652052657365740A0020EB
:1010C0005761746368646F672052657365740A00C2
:1010D0002042726F776E206F75742052657365744D
:1010E0000A002045787465726E616C2052657365E4
:1010F000740A00506F77657255700A0073746172DC
:10110000740A006175746F25692E67006572726FCD
:10111000722077726974696E6720746F2066696CDB
:10112000650A00446F6E6520736176696E6720669C
:10113000696C652E0A004D323900456E6473746F18
:1011400070732025632025632025632025630020FC
:101150005A3A0020593A0020583A00656E64737478
:101160006F7073206869743A200000060C00FE0757
:10117000022903BF017FFE08FE08FE0508080600DD
:101180000040F0C88888987810050808060000C05C
:10119000F88888888888F80505050600012030F859
:1011A00030200508080600002070F820202020E0EC
:1011B0000509090600FF2070A8A8B88888702005D6
:1011C00009090600FFE080C0B0A8283028280509DA
:1011D000090600FFF8A88888888888A8F8050A0A00
:1011E0000600FE205050505088A8A88870030303C2
:1011F00006000340A040FFFFFFFFFFFFFFFFFFFFD0
:10120000FFFFFFFFFFFFFFFFFFFFFFFF00000006E4
:1012100005FF0107070602008080808080008003B0
:101220000303060105A0A0A005060606000050F86D
:101230005050F8500509090600FF2070A8A070283A
:10124000A87020050707060000C8C810204098981D
:1012500005070706000040A0A040A890680103030E
:101260000602058080800309090601FF20404080B6
:1012700080804040200309090601FF804040202073
:101280002040408005070706000020A8702070A8B5
:10129000200505050600012020F820200203030692
:1012A00001FFC04080050101060003F802020206AA
:1012B0000100C0C0050707060000081010204040CC
:1012C00080050707060000708898A8C88870030783
:1012D0000706010040C040404040E0050707060007
:1012E00000708808102040F8050707060000F8087D
:1012F000103008887005070706000010305090F87D
:101300001010050707060000F880F008088870052F
:101310000707060000304080F08888700507070640
:101320000000F808101020202005070706000070B4
:10133000888870888870050707060000708888789C
:10134000081060020505060100C0C000C0C002060A
:10135000060601FFC0C000C040800305050601016C
:101360002040804020050303060002F800F8030532
:101370000506010180402040800507070600007037
:101380008810202000200507070600007088B8A8F4
:10139000B88070050707060000708888F88888887C
:1013A000050707060000F04848704848F0050707A1
:1013B000060000708880808088700507070600009E
:1013C000F04848484848F0050707060000F88080C4
:1013D000F08080F8050707060000F88080F0808024
:1013E00080050707060000708880809888700507D0
:1013F00007060000888888F88888880307070601A0
:1014000000E04040404040E005070706000038107B
:1014100010101090600507070600008890A0C0A07B
:101420009088050707060000808080808080F8058E
:10143000070706000088D8A8888888880507070657
:1014400000008888C8A898888805070706000070EB
:10145000888888888870050707060000F08888F06B
:1014600080808005070706000070888888A890683B
:10147000050707060000F08888F0A0908805070798
:101480000600007088807008887005070706000055
:10149000F8202020202020050707060000888888E3
:1014A000888888700507070600008888888850505B
:1014B0002005070706000088888888A8A850050727
:1014C0000706000088885020508888050707060016
:1014D0000088885020202020050707060000F80813
:1014E00010204080F80309090601FFE08080808019
:1014F000808080E005070706000080404020101033
:10150000080309090601FFE020202020202020E018
:101510000503030600052050880501010600FEF8BA
:101520000303030601058040200505050600007041
:10153000087888780507070600008080F08888888A
:10154000F005050506000070808088700507070615
:10155000000008087888888878050505060000706E
:1015600088F08070050707060000304840E04040E2
:10157000400507070600FE70888888780870050710
:10158000070600008080F088888888030707060126
:10159000004000C0404040E00409090601FE100080
:1015A000301010101090600507070600008080883A
:1015B00090E09088030707060100C040404040408B
:1015C000E0050505060000D0A8A8A8A805050506A1
:1015D0000000B0C888888805050506000070888866
:1015E00088700507070600FEF0888888F08080056F
:1015F00007070600FE78888888780808050505062C
:101600000000B0C880808005050506000078807065
:1016100008F00507070600002020F8202020180504
:1016200005050600008888889868050505060000FD
:1016300088888850200505050600008888A8A850DD
:10164000050505060000885020508805070706009C
:10165000FE88888850204080050505060000F810A7
:101660002040F80309090601FF2040404080404027
:1016700040200109090602FF8080808080808080F0
:10168000800309090601FF8040404020404040801F
:1016900005030306000248A890FF53746570732F7A
:1016A0006D6D004A65726B00416363656C657261C4
:1016B00074696F6E0056656C6F6369747900436F6F
:1016C0006E74726F6C0046696C2E204469612E0046
:1016D00046696C2E204469612E004F6666004F6E8D
:1016E00020004520696E206D6D3300436F6E74726B
:1016F0006F6C0043616E6E6F7420656E746572204E
:101700007375626469723A2000022E2E004D616981
:101710006E005A5F535445505F50494E005A5F4D1A
:1017200053325F50494E005A5F4D53315F50494E1E
:10173000005A5F4D494E5F50494E005A5F4D415827
:101740005F50494E005A5F454E41424C455F5049FB
:101750004E005A5F4449525F50494E0059325F5320
:101760005445505F50494E0059325F454E41424CFE
:10177000455F50494E0059325F4449525F50494ECF
:1017800000595F535445505F50494E00595F4D53C7
:10179000325F50494E00595F4D53315F50494E0002
:1017A000595F4D494E5F50494E00595F4D41585F5A
:1017B00050494E00595F454E41424C455F50494E9D
:1017C00000595F4449525F50494E0058325F5354AC
:1017D00045505F50494E0058325F454E41424C459E
:1017E0005F50494E0058325F4449525F50494E00A5
:1017F000585F535445505F50494E00585F4D533227
:101800005F50494E00585F4D53315F50494E00586C
:101810005F4D494E5F50494E00585F4D41585F50F3
:10182000494E00585F454E41424C455F50494E007D
:10183000585F4449525F50494E0053535F50494EE0
:10184000005350494E444C455F4C415345525F5004
:10185000574D5F50494E005350494E444C455F4CE4
:10186000415345525F454E41424C455F50494E0001
:101870005350494E444C455F4449525F50494E00D5
:10188000534453530053445F4445544543545F50BD
:10189000494E0053434B5F50494E004D4F53495FF3
:1018A00050494E004D49534F5F50494E004C4544FE
:1018B0005F50494E004C43445F50494E535F525372
:1018C000004C43445F50494E535F454E41424C45A6
:1018D000004C43445F50494E535F4437004C4344EF
:1018E0005F50494E535F4436004C43445F50494E6D
:1018F000535F4435004C43445F50494E535F44347A
:10190000004B494C4C5F50494E00484541544552AC
:101910005F4245445F50494E004845415445525F3F
:10192000325F50494E004845415445525F315F5047
:10193000494E004845415445525F305F50494E0082
:1019400046414E315F50494E0046414E5F50494E30
:101950000045325F535445505F50494E0045325F59
:101960004D53325F50494E0045325F4D53315F5009
:10197000494E0045325F454E41424C455F50494E0D
:101980000045325F4449525F50494E0045315F5334
:101990005445505F50494E0045315F4D53325F50C2
:1019A000494E0045315F4D53315F50494E0045313E
:1019B0005F454E41424C455F50494E0045315F44C2
:1019C00049525F50494E0045305F535445505F5077
:1019D000494E0045305F454E41424C455F50494EAF
:1019E0000045305F4449525F50494E0044494749E1
:1019F000504F5453535F50494E00434F4F4C414E4C
:101A0000545F4D4953545F50494E00434F4F4C4132
:101A10004E545F464C4F4F445F50494E0043415334
:101A2000455F4C494748545F50494E0042544E5F11
:101A3000454E430042544E5F454E320042544E5F85
:101A4000454E31004245455045525F50494E004198
:101A500056525F53535F50494E004156525F5343B5
:101A60004B5F50494E004156525F4D4F53495F50B6
:101A7000494E004156525F4D49534F5F50494E0009
:101A800054454D505F4245445F50494E0054454DCA
:101A9000505F315F50494E0054454D505F305F50AC
:101AA000494E0046494C57494454485F50494E00FE
:101AB0005458440052584400433A2000423A20000F
:101AC000413A200020202020434F4D002020206E4E
:101AD0006F6E2D7374616E646172642050574D2077
:101AE0006D6F646500202020636F6D7061726520EA
:101AF000696E7465727275707420656E61626C6572
:101B000064002020206F766572666C6F7720696EA6
:101B10007465727275707420656E61626C656400C4
:101B20003A20002020202054494D534B00423A20B7
:101B300000202020205443435200413A200020201E
:101B4000202054434352002020202043533A2000B9
:101B50002020202057474D3A200050574D3A202052
:101B60002534640050574D3A202025346400470046
:101B70004800000088008A008C00B300B400000018
:101B800098009A009C00A800AA00AC0028012A0135
:101B90002C012020202054494D455200440045008E
:101BA0006E00800081006F00B000B10070009000F6
:101BB00091007100A000A1007200200121017300BA
:101BC00020697320616C736F207469656420746F81
:101BD00020746869732070696E0054494D45523114
:101BE00043000A202E002020002020506F72743AFB
:101BF000200050574D3A20202534640050574D3A6C
:101C000020202534640050574D3A202025346400AC
:101C100050574D3A20202534640050574D3A20202B
:101C20002534640050574D3A202025346400505725
:101C30004D3A20202534640050574D3A2020253459
:101C4000640050574D3A20202534640050574D3AD7
:101C500020202534640050574D3A2020253464005C
:101C600050574D3A20202534640050574D3A2020DB
:101C70002534640050574D3A2020253464005057D5
:101C80004D3A20202534640050574D3A2020253409
:101C90006400496E70757420203D20004F7574708B
:101CA0007574203D200020202000202020416E61FE
:101CB0006C6F6720696E203D2025356C64003C7593
:101CC0006E757365642F756E6B6E6F776E3E002058
:101CD0002841253264292020002533642000257303
:101CE00050494E3A2000416E616C6F6720696E204A
:101CF0003D2025356C640070726F74656374656493
:101D0000200020284125326429202000253364202A
:101D100000257350494E3A2000B41A0001B01A0150
:101D200001A31A3900981A36008D1A3700801A3824
:101D300000731A3201661A33015A1A34014F1A35E8
:101D400001441A4F013C1A4C01341A4D012C1A4E11
:101D5000011D1A2E010B1A2D01FA191F01EC19266B
:101D600001E1192C01D3191601C7192001BC192B47
:101D700001AE191A01A3194101981942018C1922C7
:101D80000181192A017319190168193F015D194070
:101D90000151192101491908014019060133190996
:101DA0000126190701191906010A19030101195021
:101DB00001F5184801E9184901DD184A01D1184B0D
:101DC00001C1184701B5184601AD180D01A418321C
:101DD000019B18330193183401851851018018357F
:101DE000017018040157180501411802013A18350D
:101DF000013018300123181D01191818010F180C93
:101E00000105182801FB172901F0172501E5172BFB
:101E100001D7171A01CB172201C1173101B4171CC2
:101E200001AA171701A0170B01961745018C172758
:101E3000018117240176172A01681719015C1721FF
:101E40000152172F0145171B013B171E0131170ABD
:101E500001271744011D1743011217230145787408
:101E60007275646572004D6F7665205A004D6F760D
:101E7000652059004D6F766520580050726570617D
:101E8000726500526573746F7265206661696C7368
:101E90006166650046696C616D656E74004D6F74B6
:101EA000696F6E0054656D7065726174757265005E
:101EB0004D61696E005072656865617420414253DE
:101EC00020636F6E66005072656865617420504CC7
:101ED0004120636F6E66005049442D4400504944D0
:101EE0002D44005049442D49005049442D4900508B
:101EF00049442D50005049442D500020082046618F
:101F000063740020082046616374002008204D613E
:101F100078002008204D6178002008204D6178006D
:101F20002008204D696E002008204D696E002008B1
:101F3000204D696E004F6666004F6E20004175743B
:101F40006F74656D700046616E2073706565642006
:101F5000320046616E207370656564203200466110
:101F60006E20737065656420320046616E20737068
:101F700065656420310046616E207370656564207C
:101F8000310046616E2073706565642031004E6FCC
:101F90007A7A6C65004E6F7A7A6C6500436F6E7466
:101FA000726F6C004E6F7A7A6C65004E6F7A7A6C45
:101FB00065004E6F7A7A6C650046616E20737065BD
:101FC00065640046616E2073706565640046616EED
:101FD0002073706565640054656D70657261747519
:101FE0007265005654726176206D696E00565472A7
:101FF0006176206D696E005654726176206D696E4F
:1020000000566D696E00566D696E00566D696E0002
:10201000566D6178204500566D6178204500566DFB
:102020006178204500566D6178205A00566D6178C0
:10203000205A00566D6178205A00566D61782059FB
:1020400000566D6178205900566D61782059005610
:102050006D6178205800566D6178205800566D618A
:10206000782058004D6F74696F6E0025753A2530E1
:10207000327500253032753A253032750025756489
:1020800020253032753A253032750020202020205E
:102090002000202020200009200000000000000077
:1020A0000000000000003FFFF00000000000000002
:1020B0000000000000380070000000000000000078
:1020C0000000000030FC30000000000000000000B4
:1020D00000000020FC1000000000000000000000D4
:1020E0000000207810000000000000000000000048
:1020F0000020301000000000000000000000000080
:102100002C00D03FC0000000000000000000002EA6
:1021100031D07FE0000000000000000000002F7BB5
:10212000D07FE0000000000000000000002F7BD006
:102130007FE0000000000000000000002E31D03FD2
:10214000C0000000000000000000002C00D03FC0D4
:10215000000000000000000000002030107FE000C0
:102160000000000000000000002078107FE0000068
:10217000000000000000000020FC107FE0000000D4
:102180000000000000000030FC301F800000000054
:102190000000000000003800700F00000000000088
:1021A00000000000003FFFF00600000000000000FB
:1021B000000000000000000000000000000000001F
:1021C0000000003FFFF000000000000000000000E1
:1021D0000000380070000000000000000000000057
:1021E0000031863000000000000000000000000008
:1021F00023871000000000000000000000000027FE
:1022000087900000000000000000000000002F8701
:10221000D00000000000000000000000002F03D0EC
:102220003FC0000000000000000000002030107FD0
:10223000E0000000000000000000002078107FE0B7
:10224000000000000000000000002078107FE00087
:102250000000000000000000002030103FC000001F
:1022600000000000000000002F03D03FC00000006D
:10227000000000000000002F87D07FE00000000079
:102280000000000000002787907FE00000000000B1
:1022900000000000002387107FE000000000000025
:1022A000000000003186301F8000000000000000A8
:1022B0000000003800700F00000000000000000067
:1022C00000003FFFF00600000000000000000000DA
:1022D000000000005631204520434E4320526561E6
:1022E00064792E005072696E74696E672E2E2E000E
:1022F0005072696E74207061757365640050726904
:102300006E742061626F72746564005072696E74DD
:102310002066726F6D2053440053746F702070728A
:10232000696E7400526573756D65207072696E74A4
:10233000004E6F20534420636172640050617573D6
:1023400065207072696E7400436F6E74726F6C00FA
:10235000507265706172650054756E6500496E66F5
:102360006F2073637265656E0020286D6D290020F3
:10237000440020490020204D333031205000504986
:10238000442073657474696E67733A0A00204600CE
:1023900020420020480020204D3134352053004D8C
:1023A0006174657269616C20686561747570207014
:1023B0006172616D65746572733A0A00205900207C
:1023C000580020204D36363600456E6473746F70A9
:1023D0002061646A7573746D656E743A0A00205AE0
:1023E0000020590020204D323036205800486F6DB3
:1023F00065206F66667365743A0A00204500205AAE
:102400000020590020580020420020540020204D78
:10241000323035205300416476616E6365643A2042
:10242000533C6D696E5F66656564726174653E20DC
:10243000543C6D696E5F74726176656C5F6665654C
:1024400064726174653E20423C6D696E5F736567BE
:102450006D656E745F74696D655F75733E20583C81
:102460006D61785F78795F6A65726B3E205A3C6D6A
:1024700061785F7A5F6A65726B3E20453C6D61787A
:102480005F655F6A65726B3E0A002054002052004F
:1024900020204D323034205000416363656C6572FA
:1024A0006174696F6E2028756E6974732F73322999
:1024B0003A20503C7072696E745F616363656C3E74
:1024C00020523C726574726163745F616363656C12
:1024D0003E20543C74726176656C5F616363656C29
:1024E0003E0A00204500205A0020590020204D328D
:1024F00030312058004D6178696D756D20416363FE
:10250000656C65726174696F6E2028756E6974738D
:102510002F7332293A0A00204500205A0020590022
:1025200020204D3230332058004D6178696D756D33
:10253000206665656472617465732028756E6974C0
:10254000732F73293A0A00204500205A00205900B1
:1025500020204D3932205800537465707320706507
:102560007220756E69743A0A0020204D3230302096
:1025700044300A0020204D3230302044002044698D
:102580007361626C65640A0046696C616D656E74A6
:102590002073657474696E67733A0020204D31347E
:1025A000392043203B20556E69747320696E2043A7
:1025B000656C736975730A00202047323120202032
:1025C000203B20556E69747320696E206D6D00206C
:1025D0005A3A0020593A0020436F756E7420583AD9
:1025E0000020453A00205A3A0020593A00583A0053
:1025F000000048430000484300004843000000003A
:1026000000000000000000000000000000000000CA
:1026100000000000000048420000484200008040E6
:10262000000000005761726E696E673A20486F6D56
:10263000696E672042756D702044697669736F72A8
:10264000203C20310A000404060000E0400000E0C5
:10265000400000404000004843000048430000485C
:1026600043FFFFFF537465707261746520746F6F70
:1026700020686967683A200024F4D43050C38E2063
:10268000C2A24017828B7011127A910D816CD90A07
:10269000A861E108C7586607615143061E4B5D05F6
:1026A000C145A7041A411104093D9803713931034A
:1026B0004036DB0265339102D4305402802E1D0275
:1026C000632CEE01752AC501B028A00110278101F5
:1026D0008F2564012B244B01E0223401AC211F0122
:1026E0008D200D01801FFC00841EED00971DDF0072
:1026F000B81CD200E61BC600201BBC00641AB20046
:10270000B219A8000A19A0006A189900D1179100FF
:1027100040178B00B516840031167E00B315790082
:102720003A157300C7146F0058146A00EE13660060
:102730008813630025135E00C7125B006C125700FC
:1027400015125400C111510070114F0021114B009E
:10275000D61049008D104700461044000210420078
:10276000C00F4000800F3E00420F3C00060F3B00B0
:10277000CB0E3800930E37005C0E3500270E340068
:10278000F30D3200C10D3100900D3000600D2E00B0
:10279000320D2D00050D2C00D90C2B00AE0C29009C
:1027A000850C29005C0C2700350C27000E0C260038
:1027B000E80B2400C40B2400A00B23007D0B230096
:1027C0005A0B2100390B2100180B2000F80A1F00BA
:1027D000D90A1E00BB0A1E009D0A1D00800A1D00AA
:1027E000630A1C00470A1B002C0A1B00110A1A006E
:1027F000F7091A00DD091900C4091900AB0919000D
:10280000920917007B091800630917004C0916008C
:1028100036091600200916000A091500F5081500EA
:10282000E0081400CC081400B8081400A408140030
:10283000900813007D0812006B081300580812005E
:102840004608120034081100230811001208110074
:1028500001081100F0071000E0071000D007100079
:10286000C0071000B0070F00A107100091070E006D
:1028700083070F0074070F0065070E0057070E004F
:1028800049070E003B070D002E070E0020070D0024
:1028900013070D0006070D00F9060C00ED060D00EC
:1028A000E0060C00D4060C00C8060C00BC060C00A8
:1028B000B0060C00A4060B0099060C008D060B0058
:1028C00082060B0077060B006C060B0061060A00FF
:1028D00057060B004C060A0042060A0038060A009A
:1028E0002E060A0024060A001A060A00100609002D
:1028F00007060A00FD050900F4050900EB050900BB
:10290000E2050900D9050900D0050900C70509003D
:10291000BE050900B5050800AD050800A5050900BC
:102920009C050800940508008C0508008405080033
:102930007C050800740508006C05070065050800A3
:102940005D050700560508004E050700470507000E
:102950004005080038050700310507002A05070073
:10296000230507001C050600160507000F050700D4
:102970000805060002050700FB040600F504070031
:10298000EE040600E8040600E2040700DB0406008B
:10299000D5040600CF040600C9040600C3040600DF
:1029A000BD040600B7040600B1040500AC0406002F
:1029B000A6040600A00405009B040600950405007B
:1029C000900406008A0405008504050080040600C2
:1029D0007A04050075040500700405006B04050009
:1029E00066040500610405005C0405005704050049
:1029F000520405004D040500480405004304050089
:102A00003E0404003A0405003504050030040400C7
:102A10002C04050027040400230405001E04040000
:102A20001A04040016040500110404000D04040037
:102A3000090405000404040000040400FC0304006D
:102A4000F8030400F4030400F0030400EC030400A2
:102A5000E8030400E4030400E0030400DC030400D2
:102A6000D8030400D4030400D0030400CC03040002
:102A7000C8030300C503030024F404D9201BC40CBD
:102A80005C0E9804C4095F0265077101F405F90042
:102A9000FB04B30048048700C103690058035500D4
:102AA00003034500BE023A008402310053022A00AB
:102AB0002902250004022000E4011C00C8011900BD
:102AC000AF01170098011400840113007101100078
:102AD0006101100051010E0043010D0036010B0091
:102AE0002B010B0020010B00150109000C0109004E
:102AF00003010800FB000800F3000800EB000700DA
:102B0000E4000600DE000600D8000600D200060041
:102B1000CC000500C7000500C2000500BD00040090
:102B2000B9000400B5000400B1000400AD000400C9
:102B3000A9000400A5000300A20003009F000400F8
:102B40009B0003009800030095000200930003001F
:102B5000900003008D0002008B000300880002003B
:102B60008600020084000300810002007F00020052
:102B70007D0002007B000200790002007700010066
:102B80007600020074000200720001007100020071
:102B90006F0002006D0001006C0002006A0001007D
:102BA0006900020067000100660001006500010085
:102BB0006400020062000100610001006000010089
:102BC0005F0002005D0001005C0001005B0001008D
:102BD0005A0001005900010058000100570001008F
:102BE0005600010055000100540001005300000090
:102BF000530001005200010051000100500001008B
:102C00004F0001004E0000004E0001004D00010089
:102C10004C0001004B0000004B0001004A00010085
:102C20004900010048000000480001004700010081
:102C3000460000004600010045000000450001007C
:102C40004400010043000000430001004200000076
:102C5000420001004100000041000100400001006D
:102C60003F0000003F0001003E0000003E00010068
:102C70003D0000003D0001003C0000003C00000061
:102C80003C0001003B0000003B0001003A00000056
:102C90003A0001003900000039000100380000004E
:102CA0003800000038000100370000003700010044
:102CB000360000003600000036000100350000003C
:102CC0003500000035000100340000003400000031
:102CD0003400010033000000330000003300010025
:102CE000320000003200000032000100310000001C
:102CF0003100000031000100300000003000000011
:102D0000300001002F0000002F0000002F00000005
:102D10002F0001002E0000002E0000002E000100F8
:102D20002D0000002D0000002D0000002D000100EE
:102D30002C0000002C0000002C0000002C000100E2
:102D40002B0000002B0000002B0000002B000100D6
:102D50002A0000002A0000002A0000002A000100CA
:102D600029000000290000002900000029000000BF
:102D700029000100280000002800000028000000B1
:102D800028000000280001002700000027000000A4
:102D90002700000027000000270001002600000097
:102DA000260000002600000026000000260001008A
:102DB000250000002500000025000000250000007F
:102DC0002500000025000100240000002400000070
:102DD0002400000024000000240001002300000063
:102DE0002300000023000000230000002300000057
:102DF0002300000023000100220000002200000048
:102E00002200000022000000220000002200010039
:102E1000210000002100000021000000210000002E
:102E2000210000002100000021000100200000001E
:102E30002000000020000000200000002000000012
:102E40002000000020000000200001001F00000002
:102E50001F0000001F0000001F0000001F000000F6
:102E60001F0000001F0001001E0000001E000000E7
:102E70001E0000001E000000466C6F7700466C6F5D
:102E8000770046616E20737065656420320046618C
:102E90006E20737065656420320046616E20737029
:102EA00065656420320046616E207370656564203C
:102EB000310046616E2073706565642031004661A3
:102EC0006E2073706565642031004E6F7A7A6C6590
:102ED000004E6F7A7A6C65005370656564005370BC
:102EE000656564005370656564004D61696E004DF1
:102EF000343238005072656865617420504C41006E
:102F0000436F6F6C646F776E0050726568656174B3
:102F1000204142530044697361626C65207374659B
:102F20007070657273004D38340053657420686F9B
:102F30006D65206F666673657473004175746F20EC
:102F4000686F6D6500473238004D6F766520617897
:102F50006973004D61696E004D6F76652058004DB4
:102F60006F76652059004D6F7665205A004578745C
:102F70007275646572004D6F766520302E316D6D0F
:102F8000004D6F766520316D6D004D6F7665203197
:102F9000306D6D004D6F76652061786973004578FE
:102FA000747275646572004D6F7665205A004D6FBE
:102FB00076652059004D6F76652058007C3C3E5E5A
:102FC0002B3D3F2F5B5D3B2C2A225C001000AF00A5
:102FD000F03FAF004D6963726F7374657073207555
:102FE0006E617661696C61626C650A0045323A20F7
:102FF0000045313A20005A3A2000593A2000583A08
:1030000020004D53312C4D53322050696E730A000D
:103010006265640A002C2073797374656D20737483
:103020006F7070656421204865617465725F494402
:103030003A200045312048656174696E67206661F9
:10304000696C65640048656174696E6720666169D2
:103050006C6564004B494C4C45442E2000202D20CB
:10306000496E76616C696420657874727564657206
:10307000206E756D62657220210A0045312045720F
:10308000723A204D415854454D50004D41585445D9
:103090004D50207472696767657265640045312020
:1030A0004572723A204D494E54454D50004D494E9F
:1030B00054454D5020747269676765726564000AF3
:1030C0000A00202059325F4D494E3A0020205832E4
:1030D0005F4D494E3A0020205A5F4D41583A00203A
:1030E000205A5F4D494E3A002020595F4D494E3AD3
:1030F000002020585F4D494E3A00202F0020403AD2
:10310000004572723A207574663820666F6E7420BE
:103110006E6F7420696E697469616C697A65642E7A
:10312000004572723A207574663820666F6E74209E
:103130006E6F7420696E697469616C697A65642E5A
:10314000004572723A207574663820666F6E74207E
:103150006E6F7420696E697469616C697A65642E3A
:103160000043616E6E6F74206F70656E20737562C0
:1031700064697220006563686F3A004531205448E5
:1031800045524D414C2052554E41574159005468CB
:1031900065726D616C2052756E6177617900207483
:1031A0006F6F206C6F6E6720657874727573696FCE
:1031B0006E2070726576656E7465640A0020636FB8
:1031C0006C6420657874727573696F6E20707265B7
:1031D00076656E7465640A00286E6F2066696C659A
:1031E000290043757272656E742066696C653A20B9
:1031F000005344207072696E74696E67206279743E
:103200006520004E6F74205344207072696E74699B
:103210006E670A0023646566696E65204445464111
:10322000554C545F4B64200023646566696E6520CD
:1032300044454641554C545F4B6920002364656604
:10324000696E652044454641554C545F4B702000E3
:10325000504944204175746F74756E652066696EBF
:103260006973686564212050757420746865206CEA
:10327000617374204B702C204B6920616E64204B6D
:103280006420636F6E7374616E74732066726F6D09
:103290002062656C6F7720696E746F20436F6E6675
:1032A000696775726174696F6E2E680A00504944CF
:1032B000204175746F74756E65206661696C656414
:1032C000212074696D656F75740A0045312054487A
:1032D00045524D414C2052554E415741590054687A
:1032E00065726D616C2052756E6177617900453150
:1032F0002048656174696E67206661696C65640069
:1033000048656174696E67206661696C6564005028
:103310004944204175746F74756E65206661696CEF
:103320006564212054656D706572617475726520E5
:10333000746F6F20686967680A00204B643A200048
:10334000204B693A2000204B703A20000A20436C41
:10335000617373696320504944200A002054753A10
:103360002000204B753A2000206D61783A20002023
:103370006D696E3A200020643A2000206269617312
:103380003A2000504944204175746F74756E652071
:1033900073746172740A00504944204175746F74EB
:1033A000756E65206661696C6564212042616420E8
:1033B0006578747275646572206E756D6265720AE7
:1033C00000436172642072656D6F766564004361CD
:1033D000726420696E73657274656400486172641A
:1033E000636F6465642044656661756C7420536521
:1033F0007474696E6773204C6F616465640A009031
:103400000100009001000090010000401F0000003A
:1034100000F0420000F0420000F0410000C841000E
:1034200000C8420000C8420000C8430000C8424132
:103430006D6178204500416D6178204500416D61E6
:1034400078205A00416D6178205A00416D617820E2
:103450005900416D6178205900416D617820580014
:10346000416D6178205800412D74726176656C0061
:10347000412D74726176656C00412D7265747261C4
:10348000637400412D7265747261637400416363FB
:10349000656C00416363656C004D6F74696F6E000D
:1034A00056652D6A65726B0056652D6A65726B00F4
:1034B00056652D6A65726B00567A2D6A65726B00CF
:1034C000567A2D6A65726B0056792D6A65726B00AB
:1034D00056792D6A65726B0056792D6A65726B009C
:1034E00056782D6A65726B0056782D6A65726B008E
:1034F00056782D6A65726B004D6F74696F6E00456A
:1035000073746570732F6D6D004573746570732FE0
:103510006D6D005A73746570732F6D6D005A7374FE
:103520006570732F6D6D005973746570732F6D6DB9
:10353000005973746570732F6D6D005873746570E6
:10354000732F6D6D005873746570732F6D6D004D22
:103550006F74696F6E004361703A004D31343520ED
:10356000533C696E6465783E206F7574206F6620E9
:1035700072616E67652028302D31290A006F6B005B
:10358000526573656E643A20004B494C4C45442E9D
:10359000200053544F505045442E20005072696E05
:1035A0007465722073746F70706564206475652033
:1035B000746F206572726F72732E20466978207462
:1035C0006865206572726F7220616E642075736524
:1035D000204D39393920746F2072657374617274AB
:1035E0002E202854656D706572617475726520694E
:1035F000732072657365742E20536574206974207E
:1036000061667465722072657374617274696E6745
:10361000290A004E6F20436865636B73756D2077D0
:10362000697468206C696E65206E756D6265722CB8
:10363000204C617374204C696E653A20004E6F20F7
:10364000436865636B73756D2077697468206C6976
:103650006E65206E756D6265722C204C61737420EE
:103660004C696E653A2000636865636B73756D2005
:103670006D69736D617463682C204C617374204CA8
:10368000696E653A20004C696E65204E756D626505
:1036900072206973206E6F74204C617374204C69C2
:1036A0006E65204E756D6265722B312C204C6173F6
:1036B00074204C696E653A20004D313130004D3335
:1036C000310053442072656164206572726F720A22
:1036D00000446F6E65207072696E74696E67206653
:1036E000696C650A0000002100240027002A002DD3
:1036F000003000330001010000040107010A01004D
:10370000002200250028002B002E0031003400028A
:10371000010000050108010B010000200023002624
:103720000029002C002F00320000010000030106D8
:103730000109010505050507050808080802020238
:10374000020A0A080804040404010101010101013C
:10375000010303030303030303040707070C0C0C13
:103760000C0C0C0C0C0202020206060606060606EB
:10377000060B0B0B0B0B0B0B0B07070A0A0A0A0AAB
:103780000A050505040404080801021020200808A1
:1037900010204010204080020102010804020101B3
:1037A000020408102040808040201008040201809C
:1037B00004020180402010080402010804020101F3
:1037C00002040810204080010204081020408010EC
:1037D000080408801020400440801020400480002D
:1037E000000A0B02090C0D0E08070304010000007B
:1037F00000000000000000000000000000000000C9
:103800000000000000000000000000121110000085
:1038100000000000000000000000000000000000A8
:103820000000000000000000000000000000000098
:10383000000000000020496E76616C6964206578A4
:1038400074727564657220004E414E494E49545958
:10385000494E46CDCCCC3D0AD7233C17B7D138775B
:10386000CC2B329595E6241FB14F0A000020410071
:1038700000C84200401C4620BCBE4CCA1B0E5AAEBB
:10388000C59D7400ACD3F1C911241FBECFEFD1E2A6
:10389000DEBFCDBF00E00CBF13E0A0E0B2E0ECE281
:1038A000F4EC01E00BBF02C007900D92AE30B107FF
:1038B000D9F723E1AEE0B3E001C01D92A632B20712
:1038C000E1F71CE1C3E4DCE100E006C02197010957
:1038D000802FFE010E94BBD5C234D10780E00807CB
:1038E000A9F70E94C5CA0C9404E20C9400002F9220
:1038F0003F924F925F926F927F928F929F92AF9280
:10390000BF92CF92DF92EF92FF920F931F93CF93CC
:10391000DF93CDB7DEB7C857D1090FB6F894DEBF35
:103920000FBECDBF2DB73EB7E9963FAF2EAFE9979B
:103930000091630C30E6039F800111240D51154F57
:103940008091910880FF07C085E791E30E94283DA0
:10395000C8010E94A1420E94F6C760933D03709384
:103960003E0380933F0390934003109248031092CC
:1039700047038FE38093490310923B0310923A036D
:10398000109228031092290310922A0310922B03FD
:10399000C8018C01DC012C9101962032D1F32E3428
:1039A000D1F411968C9190ED980F9A3020F08D32D1
:1039B00011F08B3281F40E5F1F4FF8010F5F1F4F24
:1039C000208120532A30C8F3CF018C010196F801E1
:1039D00020812032D1F3109388030093870378016C
:1039E000FFEFEF1AFF0AD8017C906AE270E0C7018E
:1039F0000E941AD9009731F0FC0131978081803202
:103A0000E1F31182BDE47B1631F0E4E57E1619F096
:103A1000F7E47F12F8C0C701FC0120810196203233
:103A2000D9F320532A3008F0EEC070924903209158
:103A30003A0330913B034AE03196429FC001439FD5
:103A4000900D1124DF0111972C91022E000C330BE5
:103A500020533109280F391F808180538A3060F349
:103A600030933B0320933A03DF0131968C918032EF
:103A7000D9F34DE4741689F04091470350914803FF
:103A8000C0902803D0902903E0902A03F0902B03E4
:103A9000812C912C5401839448C02E31310591F032
:103AA0003CF42731310571F02C31310529F70AC07A
:103AB000253731050CF32737310524F0203A53E040
:103AC0003507D1F6B0934803A09347039CC06132F9
:103AD000F1F161546A3108F079C0CF01FC017081C5
:103AE00001967032D9F380ED870F8A3008F04DC00F
:103AF000CF01A62FB0E01401250104C0220C331C15
:103B0000441C551C6A95D2F7C228D328E428F5280E
:103B1000009709F459C0801BA25FBC4F8C93808131
:103B200081548A3108F05CC0DF01FD0131966C914F
:103B30006111CDCF5093480340934703C0922803AF
:103B4000D0922903E0922A03F0922B035CC08DE40B
:103B50007812BFCF2032310509F0BBCFC0922803C5
:103B6000D0922903E0922A03F0922B03F0934803AA
:103B7000E093470363E270E0CF010E941AD90097F7
:103B800009F441C0DC011C923EC07E3211F48181F7
:103B90000DC07D3211F07B3269F4818190ED980F78
:103BA0009A3008F4A5CF8E3229F4828180538A306E
:103BB00008F49ECF4115510511F00C943534AF0136
:103BC000415051090C94353480E0A6CF4115510580
:103BD00009F0A5CFAD01A3CF90ED980F9A3030F446
:103BE000BF0181918111F8CFCB0107C093ED980FF0
:103BF0009230B0F38B32A1F3F7CFFC0101966081D4
:103C00006032D9F391CF11E010933C0380914903C6
:103C10008D3411F40C941226843511F40C94033471
:103C2000873411F00C942E3480913A0390913B0329
:103C30008430910509F4D5C544F497FDEFC7209170
:103C400031028230910524F51EC08A35910509F4B0
:103C500051C724F44C9709F4F3C5E0C78B3591059F
:103C600009F44CC78C35910509F0D8C714E5212E0D
:103C700012E0312E02EFC02E0CE0D02EE12CF12C00
:103C800000E010E078C721110C9439340C943034E2
:103C9000222311F40C94303411E0029709F010E063
:103CA0000E946AC882E50E949438882309F45CC1A6
:103CB0000E948A376B017C014090D20A5090D30A4F
:103CC0006090D40A7090D50A2091D60A3091D70A14
:103CD0004091D80A5091D90A23962CAF3DAF4EAFF0
:103CE0005FAF23978091010D9091020DA091030D7C
:103CF000B091040D27968CAF9DAFAEAFBFAF2797A5
:103D00002091050D3091060D4091070D5091080D41
:103D10002B962CAF3DAF4EAF5FAF2B9720E030E03E
:103D2000A901C701B6010E94EADD882309F44FC545
:103D3000A301920127966CAD7DAD8EAD9FAD279707
:103D40000E94EADD811111C023962CAD3DAD4EAD30
:103D50005FAD23972B966CAD7DAD8EAD9FAD2B9750
:103D60000E94EADD882309F432C520E030E0A90191
:103D7000C701B6010E94EADD881F8827881F181333
:103D80000BC080E090E0A0E8BFE36B968CAF9DAFE6
:103D9000AEAFBFAF6B970AC020E030E040E85FEB0A
:103DA0006B962CAF3DAF4EAF5FAF6B97A301920107
:103DB00027966CAD7DAD8EAD9FAD27970E94CBD57C
:103DC00063966CAF7DAF8EAF9FAF639723962CAD9C
:103DD0003DAD4EAD5FAD23972B966CAD7DAD8EADF9
:103DE0009FAD2B970E94CBD567966CAF7DAF8EAF02
:103DF0009FAF679763962CAD3DAD4EAD5FAD6397BA
:103E0000CA01B9010E9450DE4B015C0167962CADDE
:103E10003DAD4EAD5FAD6797CA01B9010E9450DE5E
:103E20009B01AC01C501B4010E94CCD50E947AD897
:103E30002F966CAF7DAF8EAF9FAF2F9720E030E015
:103E400040E05FE30E9450DE4B015C01A701960158
:103E5000C701B6010E9450DE6B017C01A5019401EF
:103E6000C501B4010E9450DE9B01AC01C701B6013F
:103E70000E94CBD50E947AD89B01AC016B966CADA9
:103E80007DAD8EAD9FAD6B970E9450DE4B015C0106
:103E900027962CAD3DAD4EAD5FAD2797C301B20166
:103EA0000E94CCD520E030E040E05FE30E9450DE8D
:103EB0006B017C0167966CAD7DAD8EAD9FAD679754
:103EC00090582F962CAD3DAD4EAD5FAD2F970E9413
:103ED000C6D69B01AC01C501B4010E9450DE9B0116
:103EE000AC01C701B6010E94CCD5A30192010E948A
:103EF000CBD56B017C012B962CAD3DAD4EAD5FADAE
:103F00002B9723966CAD7DAD8EAD9FAD23970E9410
:103F1000CCD520E030E040E05FE30E9450DE2B0192
:103F20003C012F962CAD3DAD4EAD5FAD2F97639606
:103F30006CAD7DAD8EAD9FAD63970E94C6D69B01E3
:103F4000AC01C501B4010E9450DE9B01AC01C3016C
:103F5000B2010E94CCD523962CAD3DAD4EAD5FADE8
:103F600023970E94CBD514C089E40E9494388823FB
:103F700029F00E948A376B017C0103C0C12CD12C2F
:103F800076018AE40E9494388823F9F00E948A37E7
:103F90002B966CAF7DAF8EAF9FAF2B9720E030E0BC
:103FA000A901C701B6010E94EADD81111EC020E00F
:103FB00030E0A9012B966CAD7DAD8EAD9FAD2B97FA
:103FC0000E94EADD811111C002C420E030E0A901A5
:103FD000C701B6010E94EADD882309F4F8C32B96D5
:103FE0001CAE1DAE1EAE1FAE2B97D701C601B0583A
:103FF00023968CAF9DAFAEAFBFAF23972B962CAD62
:104000003DAD4EAD5FAD2B97505827962CAF3DAFD1
:104010004EAF5FAF27979C01AD01BC01CD010E945F
:1040200050DE4B015C0127962CAD3DAD4EAD5FAD32
:104030002797CA01B9010E9450DE9B01AC01C5015E
:10404000B4010E94CCD50E947AD8A7966CAF7DAF00
:104050008EAF9FAFA7978091D20A9091D30AA0917B
:10406000D40AB091D50A2F968CAF9DAFAEAFBFAF3B
:104070002F97A7019601BC01CD010E94CCD56B966C
:104080006CAF7DAF8EAF9FAF6B972091D60A30910A
:10409000D70A4091D80A5091D90A63962CAF3DAF08
:1040A0004EAF5FAF63972B962CAD3DAD4EAD5FAD80
:1040B0002B9763966CAD7DAD8EAD9FAD63970E94DF
:1040C000CCD5AB966CAF7DAF8EAF9FAFAB978091E9
:1040D000010D9091020DA091030DB091040D679612
:1040E0008CAF9DAFAEAFBFAF67976B962CAD3DADBC
:1040F0004EAD5FAD6B97BC01CD010E94CBD56B017E
:104100007C012091050D3091060D4091070D5091D5
:10411000080D6F962CAF3DAF4EAF5FAF6F97AB966C
:104120002CAD3DAD4EAD5FADAB976F966CAD7DAD3B
:104130008EAD9FAD6F970E94CBD54B015C018091F6
:10414000DA0A9091DB0AA091DC0AB091DD0AA3960D
:104150008CAF9DAFAEAFBFAFA3979C01AD01609197
:10416000090D70910A0D80910B0D90910C0D0E941C
:10417000CBD52B013C0120910D0D30910E0D4091BE
:104180000F0D5091100DE3962CAF3DAF4EAF5FAFCA
:10419000E3978091DE0A9091DF0AA091E00AB09146
:1041A000E10AAF968CAF9DAFAEAFBFAFAF97A7019F
:1041B000960123966CAD7DAD8EAD9FAD23970E9489
:1041C00050DEE7966CAF7DAF8EAF9FAFE797A5014E
:1041D000940127966CAD7DAD8EAD9FAD27970E9463
:1041E00050DE9B01AC01E7966CAD7DAD8EAD9FAD11
:1041F000E7970E94CCD5E7966CAF7DAF8EAF9FAFAF
:10420000E797A501940123966CAD7DAD8EAD9FAD72
:1042100023970E9450DE4B015C01A701960127966F
:104220006CAD7DAD8EAD9FAD27970E9450DE9B019A
:10423000AC01C501B4010E94CBD5E7962CAD3DADD4
:104240004EAD5FADE7970E944BD66B017C0120E03D
:1042500030E0A9010E94EADD87FF0AC02BED3FE0B4
:1042600049EC50E4C701B6010E94CCD56B017C013A
:10427000112351F02BED3FE049EC50E4C701B601AA
:104280000E94CBD56B017C0120E030E0A901C70181
:10429000B6010E94EADD811128C067962CAD3DADC4
:1042A0004EAD5FAD67972F966CAD7DAD8EAD9FAD7A
:1042B0002F970E94EADD811118C06F962CAD3DAD9D
:1042C0004EAD5FAD6F9763966CAD7DAD8EAD9FAD1E
:1042D00063970E94EADD811108C02BEDC22E2FE00A
:1042E000D22E29ECE22E20E4F22EA7019601A79609
:1042F0006CAD7DAD8EAD9FADA7970E9450DE4B019A
:104300005C0120E030E0A901C301B2010E94EADDB6
:104310008823C9F0A5019401C501B4010E9450DEB3
:104320004B015C01A3019201C301B2010E9450DE66
:104330009B01AC01C501B4010E94CCD50E947AD882
:104340004B015C010DC020E030E0A901C501B401C2
:104350000E942CD887FF04C0B7FAB094B7F8B09485
:104360002FE632E143E85AE3C501B4010E94EADDD9
:1043700087FD21C22AE939E949E15EE3C501B401BB
:104380000E94C6D60E946ED70E943FD71B01672BA2
:1043900019F422242394312CB10180E090E00E9492
:1043A000EFDD4B015C019B01AC01C701B6010E942E
:1043B000C6D62F966CAF7DAF8EAF9FAF2F97A5015E
:1043C0009401C301B2010E94C6D6A7966CAF7DAF1F
:1043D0008EAF9FAFA797AF962CAD3DAD4EAD5FAD05
:1043E000AF97E3966CAD7DAD8EAD9FADE3970E9428
:1043F000CBD5A50194010E94C6D6E3966CAF7DAFE4
:104400008EAF9FAFE3972F962CAD3DAD4EAD5FAD18
:104410002F97CA01B9010E9450DE20E030E040E051
:104420005FE30E9450DE9B01AC0160E070E080E839
:104430009FE30E94CBD56F966CAF7DAF8EAF9FAFE1
:104440006F97A3962CAD3DAD4EAD5FADA397298779
:104450003A874B875C87AF968CAD9DADAEADBFAD57
:10446000AF978D879E87AF87B88B60912F02709131
:104470003002072E000C880B990B0E94F1DD209171
:104480000D0230910E0240910F02509110020E94D5
:1044900050DE2AE037ED43E25CE30E9450DE6BAF72
:1044A0007CAF8DAF9EAF0E94F6C79B01AC01285335
:1044B0003F4F4F4F5F4FA3962CAF3DAF4EAF5FAF17
:1044C000A3974FAC21965FAC219722966FAC2297B1
:1044D00023967FAC239741E050E065965FAF4EAFE7
:1044E000659759E160965FAF60976596EEADFFAD59
:1044F0006597E215F30509F43EC10E94DC980E941D
:10450000F6C7DC01CB01A3962CAD3DAD4EAD5FAD42
:10451000A397821B930BA40BB50BB7FD10C00E9491
:10452000F6C79B01AC0128533F4F4F4F5F4FA396F7
:104530002CAF3DAF4EAF5FAFA3970E94B13D6096E9
:104540003FAD6097315060963FAF6097332309F4D9
:104550004BC06F962CAD3DAD4EAD5FAD6F972796BE
:104560006CAD7DAD8EAD9FAD27970E9450DE6B0187
:104570007C012F962CAD3DAD4EAD5FAD2F97B201B6
:10458000C3010E9450DEA70196010E94CCD57B0199
:104590008C016F962CAD3DAD4EAD5FAD6F97B20106
:1045A000C3010E9450DE4B015C012F962CAD3DAD46
:1045B0004EAD5FAD2F9727966CAD7DAD8EAD9FADA7
:1045C00027970E9450DE9B01AC01C501B4010E94F7
:1045D000CBD52B013C01C701D80127968CAF9DAFED
:1045E000AEAFBFAF279761C065964EAD5FAD659723
:1045F000BA0180E090E00E94EFDD2F962CAD3DAD3A
:104600004EAD5FAD2F970E9450DE4B015C010E94C2
:10461000C1D66B017C01C501B4010E946CD84B016D
:104620005C01A701960123966CAD7DAD8EAD9FAD6B
:1046300023970E9450DE2B013C01A50194012B968B
:104640006CAD7DAD8EAD9FAD2B970E9450DE9B0172
:10465000AC01C301B2010E94CCD52B013C01A501E4
:10466000940123966CAD7DAD8EAD9FAD23970E94D6
:1046700050DE4B015C01A70196012B966CAD7DAD20
:104680008EAD9FAD2B970E9450DE9B01AC01C50102
:10469000B4010E94CBD527966CAF7DAF8EAF9FAF94
:1046A000279759E160965FAF60979201A3016B96DF
:1046B0006CAD7DAD8EAD9FAD6B970E94CCD56983FF
:1046C0007A838B839C8327962CAD3DAD4EAD5FAD39
:1046D0002797AB966CAD7DAD8EAD9FADAB970E942D
:1046E000CCD56D837E838F839887A7962CAD3DAD07
:1046F0004EAD5FADA79769857A858B859C850E94B5
:10470000CCD569877A878B879C87E3962CAD3DADA6
:104710004EAD5FADE3976D857E858F8598890E944C
:10472000CCD56D877E878F87988BCE0101960E94AE
:10473000F76DE090D90C1C8E1D8E1E8E1F8ECE0143
:104740004C966C018E01055C1F4F9E01235F3F4F0D
:10475000AE01475F5F4FBE016B5F7F4F4B970E947B
:10476000E9476596AEADBFAD659711966596BFAF4B
:10477000AEAF6597BACEE090D90C1FAA18AE19AEAD
:104780001AAE9E01295C3F4F69018E01055C1F4FE7
:104790002DE03DE049E05DE065E07DE081E09DE009
:1047A0000E94E94780E1E1E0FDE0A2EDBAE001907E
:1047B0000D928A95E1F70E94F6C760933D037093CE
:1047C0003E0380933F03909340030C94303482E97E
:1047D0009BE00E94283D80E194E00E94283D0C94DB
:1047E000303480E50E949438882329F00E947A377B
:1047F0006B017C0103C0C12CD12C760183E50E94A2
:104800009438882361F00E948A3720E030E04AE73C
:1048100054E40E9450DE0E943FD76B017C010E944D
:10482000A6B080918903811105C060E086E294E022
:104830000E9453BAC701B6010E944CC80C94303490
:104840000E94A6B080910D0290910E02A0910F02DD
:10485000B09110028093430390934403A0934503C7
:10486000B093460380912F029091300290934203BF
:104870008093410384E690E09093300280932F026E
:104880001093070E88E50E94C137282E89E50E9403
:10489000C137082F8AE50E94C137382E211005C084
:1048A000011105C011E0182705C0011102C010E078
:1048B00001C0182F80E1E2EDFAE0A1E0BDE0019037
:1048C0000D928A95E1F782E50E949438882369F079
:1048D0000E948A376B017C0120E030E0A9010E9430
:1048E000EADD882309F4CBC006C0C12CD12C80EAB4
:1048F000E82E80E4F82E111105C0211003C000231A
:1049000009F4CEC0C092090DD0920A0DE0920B0DB1
:10491000F0920C0D8090DA0A9090DB0AA090DC0AED
:10492000B090DD0AA5019401C701B6010E942CD800
:1049300018160CF0A4C08091D60A9091D70AA091C5
:10494000D80AB091D90A23968CAF9DAFAEAFBFAF56
:1049500023972091D20A3091D30A4091D40A5091E2
:10496000D50A27962CAF3DAF4EAF5FAF279780910A
:104970000D0290910E02A0910F02B09110022B96A1
:104980008CAF9DAFAEAFBFAF2B97ECE1F6E2459099
:10499000559065907490A7019601C501B4010E94DD
:1049A000EADD87FF12C040920D0250920E02609223
:1049B0000F0270921002C092DA0AD092DB0AE092E3
:1049C000DC0AF092DD0A0E94356E85E595E5A5E0EA
:1049D000B3E480930D0290930E02A0930F02B09364
:1049E000100227962CAD3DAD4EAD5FAD27972093BD
:1049F000D20A3093D30A4093D40A5093D50A23960F
:104A00008CAD9DADAEADBFAD23978093D60A90938C
:104A1000D70AA093D80AB093D90A0E94356EA7018D
:104A200096016091DA0A7091DB0A8091DC0A90911C
:104A3000DD0A0E942CD8181694F440920D02509270
:104A40000E0260920F0270921002C092DA0AD092A7
:104A5000DB0AE092DC0AF092DD0A0E94356E2B96AA
:104A60002CAD3DAD4EAD5FAD2B9720930D02309335
:104A70000E0240930F02509310020E94A6B0111133
:104A800005C0211003C0011106C00AC080E00E94C9
:104A9000006F1123C1F381E00E94006F111102C069
:104AA000332019F082E00E94006F0E94616E8091B5
:104AB000060E8093070E8091430390914403A091CA
:104AC0004503B091460380930D0290930E02A0938C
:104AD0000F02B09310028091410390914203909392
:104AE000300280932F0283E0809307020E9491702E
:104AF0000C943034109239030C94303410933903F1
:104B00000C9430340E948A372B013C01133059F049
:104B1000F701EA51F34F20813181428153810E9494
:104B2000CBD52B013C01F701EE52F54F20813181AD
:104B300042815381C301B2010E94CBD54B015C017C
:104B40002DEB37E346E855EB0E942CD887FD1BC0C0
:104B50002DEB37E346E855E3C501B4010E94EADDD9
:104B600018168CF01F5FB4E0CB0ED11CE4E0EE0E03
:104B7000F11C143039F1D1018D911D010E9494383E
:104B8000882381F3BFCF133051F44092DE0A509254
:104B9000DF0A6092E00A7092E10A01E0E3CFA5012A
:104BA0009401F60160817181828193810E94CCD54C
:104BB000D6016D937D938D939C931397812F0E94C3
:104BC000B76DD0CF002331F120919E0830919F081E
:104BD0004091A0085091A1086091DE0A7091DF0A0F
:104BE0008091E00A9091E10A0E9450DE0E9439D83B
:104BF0006093020E7093030E8093040E9093050E43
:104C00001092F20D1092F30D1092F40D1092F50D1A
:104C10000E9472A30E9491700C9430340E94B0499B
:104C20000C94303480913A0390913B038E36910579
:104C300009F4C8C60CF020C18D31910511F40C9413
:104C400030340CF096C08231910509F4BCC79CF554
:104C50008530910509F4B5C25CF48330910509F4FF
:104C6000A6C20CF0A9C2029708F429C20C94003421
:104C70008830910509F4B5C24CF4079711F00C94F3
:104C800000340E94A6B0469A0C94303489309105C5
:104C900009F4B1C2419711F00C94003460E082E451
:104CA00094E00E9453BA1798149816981398159880
:104CB00010980C9430348831910509F4BDC20CF081
:104CC00040C08531910509F4A0C26CF5449711F0FC
:104CD0000C9400348AE594E00E94283D1092B210B2
:104CE00040E050E0BA0183E99EE00E94048D8BE130
:104CF000E3E9FEE0DE01119601900D928A95E1F75D
:104D000040E050E0BE016F5F7F4F80E090E00E9486
:104D1000A1A1CE0101960E94103D8BE494E00E9477
:104D2000283D0C9430348631910509F472C24797BE
:104D300011F00C9400348091470390914803FC01DA
:104D400072C28A31910509F486C20CF47EC28B319D
:104D5000910509F484C24C9711F00C94003440E0A2
:104D600060E080914703909148030E941B450C949A
:104D700030348235910509F41FC70CF046C08B32E0
:104D8000910509F4A0C47CF48F31910509F49AC30C
:104D90000CF469C28032910509F448C38A9709F47A
:104DA0004BC40C9400348C34910509F4CCC54CF4FC
:104DB0008B34910511F00C9400340E94A1B80C942E
:104DC00030348D34910509F4C1C58135910511F058
:104DD0000C9400340E946A960E94A6B00E94923CF5
:104DE0001092830C1092820C1092850C1092840CFD
:104DF00068EE73E080E090E00E946E3C60E089E83D
:104E000095E00E9453BA0C9430348836910509F429
:104E1000A0C5CCF48435910509F4D5C60CF4CFC6F1
:104E20008535910509F401C78C35910511F00C9475
:104E3000003498E5C92E92E0D92E22E9E22E28E02E
:104E4000F22E10E00BC78B36910509F49FC654F47F
:104E50008936910509F43FC68A36910509F471C671
:104E60000C9400348C36910509F40AC68D369105F0
:104E700009F492C50C9400348D3D910511F40C9405
:104E80001E310CF08CC08937910511F40C948B2FD6
:104E9000ECF58337910509F460C7ACF480379105D0
:104EA00009F4F1C50CF49FC58137910509F4F2C5E9
:104EB0008237910511F00C9400340E94A6B00E9434
:104EC00091700C9430348637910509F49BC774F4C3
:104ED0008537910511F00C94003460E08091470310
:104EE000909148030E9472BA0C9430348737910530
:104EF00009F4BEC78837910511F00C94003481E0A5
:104F00008093070E8093060E0C9430348B3C9105F1
:104F100011F40C94EC2F1CF58B39910509F4ECC5B8
:104F20004CF48139910511F00C9400340E9453C562
:104F30000C943034883C910511F40C94902F893CEA
:104F4000910511F00C9400340FE2E02E0DE0F02EEC
:104F50000CE512E084E0D82ED00E0C94D42F8E3CB9
:104F6000910511F40C94F22F74F48C3C910511F41A
:104F70000C94EF2F8D3C910511F00C9400340E949D
:104F800008380C943034833D910511F40C94593059
:104F90008C3D910511F40C9411310C9400348A3934
:104FA000F1E09F0709F473C50CF041C08F3231E086
:104FB000930711F40C94E831ECF48C3251E095072E
:104FC00011F40C9482314CF4823E910511F00C9452
:104FD00000340E949EC90C9430348D32B1E09B079E
:104FE00011F40C94A1318E32914011F40C94A4313F
:104FF0000C9400348F35F1E09F0711F40C948E333C
:105000003CF48E35914011F40C9459330C940034D7
:10501000833641E0940711F40C94E23380399140D7
:1050200011F00C9400340E94A6B00C943034873FE9
:10503000A1E09A0711F40C940A33ECF4843FE1E008
:105040009E0711F40C94FB323CF48C3A914011F41D
:105050000C94EB310C940034853F31E0930711F44C
:105060000C940433863F914011F00C9400340E945C
:1050700006B70C9430348C3853E0950711F40C9437
:105080003F338CF48A39B2E09B0709F4CDC78B38E3
:10509000934011F00C94003434E6E32E32E0F32E0A
:1050A00010E00C941833803AF3E09F0709F4FDC137
:1050B000873E934011F40C94EB330C940034A09091
:1050C0004703B090480380E50E949438882359F044
:1050D0000E947A376B017C0111E0672B682B692BEA
:1050E00031F410E004C010E0C12CD12C760183E52E
:1050F0000E949438882311F40C9406350E948A3754
:1051000020E030E04AE754E40E9450DE0E943FD79E
:105110006B017C0111110BC0672B682B692B39F4D3
:10512000A114B10421F0D5018C91811102C010E0CD
:1051300001C011E00E94A6B0112329F061E0C50171
:105140000E9472BA05C060E08FE294E00E9453BAF8
:1051500083E080933C0381E080931212C114D10458
:10516000E104F104E9F00E94F6C7C60ED71EE81E5E
:10517000F91E0E94F6C7DC01CB018C199D09AE090E
:10518000BF09B7FD06C00E94A369109212120C94C9
:105190003034809112128823B1F30E94B13DE9CFDF
:1051A00080911212882379F30E94B13DF9CF81E0FA
:1051B0000E9424C90C94303480E00E9424C90C94CD
:1051C00030340E94A6B0739A60E070E082E00E94E2
:1051D000D4C661E070E080E090E00E944CC80C947E
:1051E00030340E94A6B080910B018095807180932D
:1051F00009010C9430340E94A6B0469880910B01AE
:105200008071809309010C9430340E94DA460C942A
:1052100030341092660E1092670E0C9430342032A7
:1052200009F41082319620812111F9CF40E061E02C
:105230000E941B450C9430348091670E81111093AD
:10524000660E0E94A1B80C9430341092660E0E9433
:10525000DBB80C9430340E94DEC10C9430340E94D0
:105260009CB60C9430348091670E882311F40C9412
:1052700030348DEF9FE00E94C18C8DEF9FE00E9443
:105280003D8E1092650E1092640EE0904703F090F0
:1052900048038091670E882311F40C9430340E94E7
:1052A00010451C8E1F8E83E99EE09093AF0E809375
:1052B000AE0EF70180818F3209F058C06FE270E0C6
:1052C000C7010E941AD98C010F5F1F4F4E01FCE1EC
:1052D0008F0E911C0115110509F44EC06FE270E0AC
:1052E000C8010E941AD96C01009709F446C008173A
:1052F000190708F042C05C01A01AB10AA501B80163
:10530000CE0101960E9443D9E1E0F0E0EC0FFD1FD1
:10531000EA0DFB1D1082CE0101960E94A142609110
:10532000AE0E7091AF0E21E0AE014F5F5F4FC40132
:105330000E944093811112C0BE016F5F7F4F81E9CF
:1053400094E00E94373D8EE20E94163D8AE00E9462
:10535000163DC4010E94103D0C9430349092AF0E63
:105360008092AE0E86010F5F1F4FB4CF80EB9EE0A0
:105370009093AF0E8093AE0E87016091AE0E709148
:10538000AF0E19821C8222E0A801CE0101960E9474
:105390004093811102C0F12C1EC0CE0101960E94E3
:1053A0000FA18823C1F36D857E858F85988941E0A3
:1053B0000E945D83882379F3E98920E2E29FF0016E
:1053C0001124EE55F74F309731F385EE80831C8220
:1053D0000E941D83F82ECE0101960E94103DFF20F1
:1053E00081F083E894E00E94283DC8010E94A14218
:1053F0001092AE101092AF101092B0101092B11027
:105400000FC08BE694E00E94283DD8018D918D015C
:10541000882319F00E94163DF8CF8EE20E94163DB7
:10542000CE014C960E94103D0C9430348091660E53
:1054300081110E94A6B08091670E882311F40C940C
:10544000303480E50E949438882319F00E949E5BD6
:1054500003C080E50E94C137182F482F61E080917A
:105460004703909148030E941B4583E50E949438AE
:10547000882381F00E945637AB01BC014093AE10E7
:105480005093AF106093B0107093B1108DEF9FE008
:105490000E94048D8091670E882319F081E080932B
:1054A000660E11110C943034CCCE8091470390914C
:1054B000480321E02093650E40E060E00E941B4518
:1054C0000C9430340E946DB8BCE3CB2ED12CE12C6F
:1054D000F12CA70196010E94C8E1B62EA72ECA01A1
:1054E000B901A70196010E94C8E16B017C01CA01C4
:1054F000B90128E130E040E050E00E94C8E12B0112
:105500003C01C9016DE671E00E9474D58E010F5F08
:105510001F4F61157105D9F0AF92BF92DF92CF9204
:105520005F924F929F938F937F936F938DEC94E054
:105530009F938F931F930F930E9481DDEDB7FEB76A
:105540003E960FB6F894FEBF0FBEEDBF63C0009746
:10555000D1F0AF92BF92DF92CF925F924F929F9322
:105560008F938DEB94E09F938F931F930F930E94E3
:1055700081DD2DB73EB7245F3F4F0FB6F8943EBF95
:105580000FBE2DBF47C04114510461047104C1F026
:10559000AF92BF92DF92CF925F924F9281EB94E0F5
:1055A0009F938F931F930F930E9481DD4DB75EB73A
:1055B000465F5F4F0FB6F8945EBF0FBE4DBF2AC067
:1055C000C114D104E104F104A9F0AF92BF92DF92BB
:1055D000CF9289EA94E09F938F931F930F930E9439
:1055E00081DD8DB79EB708960FB6F8949EBF0FBEAB
:1055F0008DBF10C0AF92BF9285EA94E09F938F93C6
:105600001F930F930E9481DD0F900F900F900F90CA
:105610000F900F9060E0C8010E9472BA85E791E395
:105620000E94283DB80181EE94E00E94373D8AE057
:105630000E94163D0C94303483E50E9494388823F0
:1056400011F40C9430340E946637E82E80E50E94F5
:105650009438882339F00E9456378B0177FF04C0B5
:105660000C9430340DE010E0802F0E94E83C882339
:1056700051F082E99BE00E94283D8EEE94E00E946A
:10568000283D0C94303461E0802F0E9498C66E2D26
:10569000802F0E9468C6F12CB701802F0E94D4C6CB
:1056A00096E0091751F0A8E00A130C943034F092F8
:1056B000830CE092820C0C943034F092850CE092D2
:1056C000840C0C94303484E50E94C137882309F49B
:1056D00062C089E40E949438882319F00E949E5B7E
:1056E00003C089E40E94C137082F82E50E949438E4
:1056F000882321F00E9456377B0103C0EE24E394F7
:10570000F12C83E50E949438882321F00E945637BB
:10571000162F01C010E085E40E949438882321F000
:105720000E9456376B0103C0F1E5CF2ED12C87E5DF
:105730000E949438882319F00E94563702C064EF03
:1057400071E02B01770F66087708812F90E0C8166B
:10575000D906DCF01235B8F401110C940B35812F09
:105760000E94E83C882311F40C940B3525EC32E0C0
:1057700041E060E0812F0E9467578AE00E94163D59
:105780008AE00E94163D1F5FE0CF8DEF94E00E94FB
:10579000283D0C94303485E40E94C1378823C9F039
:1057A0000E949E5B8093980D82E395E00E94283DC5
:1057B0008091980D811103C084E295E002C088E2D7
:1057C00095E00E94283D8BE295E00E94283D0C94D4
:1057D000303483E50E94C137882351F082E99BE091
:1057E0000E94283D84E095E00E94283D0C943034CE
:1057F00080E50E949438882321F00E9456378B015F
:1058000002C000E010E0F02E80E50E949438811183
:1058100008C0E1E5E01710F40C943034E1E56E2E99
:1058200001C0602E89E40E949438882319F00E94F8
:105830009E5B03C089E40E94C137782E87E50E94F1
:105840009438882319F00E949E5B03C087E50E946C
:10585000C137882309F474C0ADB6BEB685E195E0C2
:105860000E94283D1127862D90E0801B910B019608
:105870002DB73EB7281B390B0FB6F8943EBF0FBEAD
:105880002DBF4DB75EB74F5F5F4F6A01EF2C6E14AF
:1058900078F051E55E1550F08E2D0E94E83C88238B
:1058A00011F40C94393571100C943935E394EFCF21
:1058B00081E08093121283E080933C03EF2C6E14FE
:1058C00018F181E58E15F0F08E2D0E94E83C8823BA
:1058D00011F07720B9F08E2D0E943FC6582E8E2CE5
:1058E000912C801A910A8C0C9D1CD4018C91581615
:1058F00049F02AED32E040E0672D8E2D0E94675777
:10590000D4015C92E394DBCF80911212811106C026
:105910000FB6F894BEBE0FBEADBEA2C768EC70E075
:1059200080E090E00E946E3CC9CFB1E5BF1538F031
:105930002AED32E041E0672D8F2D0E946757F394E6
:105940006F1498F78DC70E94DBB88AC70E94F0B821
:1059500087C70E94EFC8811183C78091910883FD9A
:105960007FC783E50E949438882399F00E948A3784
:105970000E9438D78B017093A10D6093A00D80E039
:105980000E941F960635110524F40E94F0B80E946B
:10599000A3690E94C1D264C70E94EFC8811160C789
:1059A0008091910883FD5CC783E50E9494388FAF96
:1059B00081110C94503582E50E94943881110C9429
:1059C00050354EC78EE40E949438882309F448C7A6
:1059D0000E9456376093A7127093A8128093A91261
:1059E0009093AA123DC783E50E94C137882359F0DE
:1059F00083E50E949438882319F00E94663701C01D
:105A000080E08093910885E791E30E94283D8FE62E
:105A100095E00E94283D80919108882349F155E640
:105A2000E52E55E0F52E00E010E020E08091910891
:105A300090E0002E02C0959587950A94E2F780FFCA
:105A40000EC0DD24D394D20E222319F08CE20E94E2
:105A5000163DF701859194910E94283D2D2D0F5FF1
:105A60001F4F32E0E30EF11C05301105F9F604C0BA
:105A700081E695E00E94283D8AE00E94163DF0C62E
:105A800010920C02EDC686E795E00E94563D0E94FA
:105A90009E3CE6C683E50E949438882359F00E9414
:105AA0006637809300028D3308F4DAC68CE3809366
:105AB0000002D6C685E791E30E94283D409100028E
:105AC00050E060E070E08FE795E00E94C8408AE017
:105AD0000E94163DC5C60E94EFC8811109C086E824
